:020000040800F2
:10000000C0070020E5010008E9230008E1230008FB
:10001000E5230008A10C0008FD23000800000000F3
:10002000000000000000000000000000F1230008B4
:10003000A50C000800000000ED230008F5230008CF
:10004000FF010008FF010008FF010008FF01000890
:10005000FF010008FF010008FF010008FF01000880
:10006000FF010008FF010008FF010008FF01000870
:10007000FF010008FF010008FF010008FF01000860
:10008000FF010008FF010008FF010008FF01000850
:10009000FF010008FF010008FF010008FF01000840
:1000A000FF010008FF010008FF010008FF01000830
:1000B000FF010008FF010008FF010008FF01000820
:1000C000FF010008FF010008FF010008FF01000810
:1000D000FF010008FF010008FF010008FF01000800
:1000E000FF010008FF010008FF01000800F002F80E
:1000F00000F068F814A696E8000CB244B344DA4560
:1001000001D100F05FF8BAE80F000FA696E83000C2
:10011000A5EB040504EB0607AAEB0704A7F101070A
:100120004FEA15154FEA3414A4F10104AC4201D38F
:1001300000F048F813F0010F18BFFB1A43F0010359
:1001400000F001F8DBE71847EC3300000C34000046
:10015000103A24BF78C878C1FAD8520724BF30C8F3
:1001600030C144BF04680C60704700007047000055
:100170000023002400250026103A28BF78C1FBD8B0
:10018000520728BF30C148BF0B607047662903F093
:10019000668103681B0A28BF41F08001752900F0C1
:1001A0005780E42900F09080002070471FB500F0D0
:1001B00047FC04000020002102F0F4FEE0601FBDB7
:1001C00010B510BD00F0F6FC1146FFF7EFFF02F08E
:1001D00017F900F014FD03B4FFF7F2FF03BC00F0C1
:1001E00057FD00000948804709480047FEE7FEE741
:1001F000FEE7FEE7FEE7FEE7FEE7FEE7FEE7FEE7D7
:1002000004480549054A064B70470000F9230008D9
:10021000ED000008C0010020C0070020C00300203E
:10022000C00300200FB41CB5084B06AA7B446946E6
:100230000090059800F0EBFB04460020694600F0B2
:10024000F9FB20461CBC5DF814FB0000050800000B
:100250002DE9F0410646002410687529314616A59F
:1002600010D0AFF30080002802DA404213A507E067
:1002700031688A0701D512A502E0490704D511A506
:10028000012401E0AFF3008000210A2206F12407D7
:1002900009E0B0FBF2FCB0FBF2F302FB1C003030D3
:1002A00078541846491C0028F3D123462A46304684
:1002B000BDE8F04100F03EB9000000002D00000054
:1002C0002B000000200000002DE9F0418046D21DE7
:1002D00022F007020025D2E90002F52915A614D064
:1002E000011E72F1000106DA0023D0EB030063EB7C
:1002F000020211A608E0D8F800108B0701D50FA65E
:1003000002E0490701D50EA601251146002408F197
:10031000240704E000F0C9F830323A55641C50EA72
:100320000102F7D12B46324621464046BDE8F04156
:1003300000F000B9000000002D0000002B000000BC
:10034000200000002DE9F0474FF0000A89460446DE
:10035000C0F820A02046E1688847002876D02528EC
:1003600006D0D4E901219047206A401C2062F1E7C1
:10037000E168204600268847C4F81CA005460027EF
:10038000C4F818A02A2D09D0284602F003FE38B37D
:1003900004EB8708303DC8F8185019E059F8041BE1
:1003A000204604EB87029161E1688847012F0546EA
:1003B00018D1E069002820DA26F020061DE0D8F8E0
:1003C000180000EB800005EB40003038C8F818003A
:1003D0002046E1688847054602F0DCFD0028EED1A2
:1003E000012F0AD02E2D08D12046E16888477F1CB6
:1003F0000546022F46F02006C4DBA069002803DA78
:10040000404246F00106A061F00701D026F0100638
:100410006C2D0AD0682D08D04C2D39D06A2D35D0DE
:10042000742D35D07A2D33D016E0E1682F46204662
:100430008847B84205460AD16C2F27D04FF4806018
:10044000E168064320468847054605E027E06C2F13
:100450001AD04FF4807006430DB3A5F1410019285E
:1004600002D8203546F400664A46294620462660D2
:100470004E46FFF78BFE80B101280BD0F61D26F00B
:10048000070000F1080965E74020E4E78020D7E78E
:100490000020D5E706F104095CE7284661E7206AF9
:1004A000BDE8F08770477047704730B5B0F10A0279
:1004B00071F100034FEA900E4EEA817EB0EB0E0020
:1004C00061EB91014FEA101E4EEA017E10EB0E0027
:1004D00041EB11114FEA102E4EEA016E10EB0E00A7
:1004E00041EB11214FEA104E4EEA014E10EB0E0087
:1004F00041EB1141401841F100014FEAD00040EAC0
:1005000041704FEAD1014FEA810444EA907410EB44
:10051000800544EB01046D1944EB0404521BA34114
:100520004FF0000348BF0A3200D530BD401C41F1F6
:10053000000130BD2DE9F0470D469946924604462C
:1005400000F124080168880604D5E06921F0100153
:10055000216000E00120A84201DD471B00E00027E8
:10056000A1697A1902EB0900081AA0612078C00677
:1005700002D42046AFF30080002608E0D4E9012130
:100580001AF806009047206A401C761C20624E45EF
:10059000F4DB2078C0060AD52046AFF3008006E0E1
:1005A000D4E9012130209047206A401C2062381E87
:1005B000A7F10107F4DC07E0D4E9012118F80500F0
:1005C0009047206A401C2062281EA5F10105F3DC3B
:1005D0002046AFF300802078000602D50220BDE857
:1005E000F0870120FBE72DE9FF4F0C461E464FF038
:1005F000FF378BB0D2E90001DDF860800A908A46AF
:10060000C1F30A5505B93D46002108464FF00000E8
:10061000BAF1000F00F4400005DA00EB80004FF45F
:10062000400101EA50004FEA9059B9F1010F00DD95
:10063000B9460A9850EA4A000ED044F61050A5F286
:10064000FF3545432F14B8F1000F1ED07542291E07
:100650001EDDC9F100021CE0B8F1010F4FF00000EF
:1006600001D0302103E0F24305E02154401CB042A8
:10067000FBDB30460022002121540B99C1F8088091
:10068000C1E900200FB0BDE8F08FBD1B6D1CDEE797
:100690004A4600DA694206A800F016FA06AB93E86B
:1006A000070003AB83E8070050460A9902F095F86B
:1006B0008DE80700A0F500501F3800900398002D2A
:1006C0000ADD42F21F014A460844002303A90390B1
:1006D000684602F0FFFA09E0A0F500504A461F38CC
:1006E000002303A90390684602F009FB8DE8070088
:1006F0000004000C03D04FF0FF30410800E010462A
:10070000B8F1000F03D00022009215461EE0751EBE
:1007100005D4FFF7CAFE303262556D1EF9D5B346D7
:100720000122084302D000227F1C04E020783028F8
:1007300001D100227F1E002A099784D01DE0112DCF
:1007400007DAFFF7B2FE303262556D1C50EA010243
:10075000F5D1084302D00098C8B10EE00021681E10
:1007600005E0235C625C63542254401E491C8142B4
:10077000F7DBAB46A81B401E0990002004F80B00D5
:100780000B98099AC0F80880C0E9002B7AE7112677
:100790004FF0000857E72DE9F04F88460446D21D78
:1007A00022F0070191B0D1E90001CDE90A0102F080
:1007B000DDFB02460B98C00F01D02D2007E020681A
:1007C000810701D52B2002E0202101EAC000032A85
:1007D000099001D0072A05DB03464146204600F078
:1007E00033F90BE12078800601D5E06900E00620AE
:1007F000B8F1650F814606D0B8F1660F18D0B8F190
:10080000670F70D131E00020B9F1110F009001DBCA
:10081000112301E009F101030AAA01A90CA8FFF7BD
:10082000E2FEDDE90C70002609F10105834647E090
:1008300001204B4600904FF000470AAA01A90CA8DE
:10084000FFF7D1FEDDE90DB00C995D46002610B929
:1008500009F101000D18B9EB050003D4C0F1FF3612
:1008600009F10105A5EB09002BE0B9F1010F01DA4F
:100870004FF001090020B9F1110F0090484601DD49
:10088000112300E003460AAA01A90CA8FFF7ABFE5A
:10089000DDE90C704D4600268346207800070AD417
:1008A000AB4500DA5D4601A8012D04DD411911F8C0
:1008B000011C302907D04F4502DA17F1040F04DA82
:1008C000012082460FE06D1EEEE7002F02DCED1BDB
:1008D0003E4403E0781CA84200DD7D1CB81B00F1FB
:1008E000010A4FF000472078000703D4AA4501DB36
:1008F0004FF0FF3A0021B7F1004F0DF143088DF89A
:10090000431024D002202B23002F01DA7F422D2315
:100910000A21021EA0F1010000DC5FB197FBF1FC8F
:1009200097FBF1F201FB1C7C17460CF1300C08F828
:1009300001CDEEE7A8F1010003702188090501D57A
:10094000452100E06521A0F1010800F8011C09988B
:100950000FA9A1EB0807FF1D00B10120411901EB10
:10096000EA70A1693844081A401EA0612078C006C8
:1009700002D42046AFF30080099828B1D4E90121C0
:100980009047206A401C20622078C00622D520466D
:10099000AFF300801EE0002E04DBB34502DD01A8AA
:1009A000805D00E03020D4E901219047206A401C9E
:1009B0002062761CAAF101005FEA000A0AD100F069
:1009C0003FF8C0680168405CD4E901219047206A83
:1009D000401C2062281EA5F10105DCDC07E0D4E9FB
:1009E000012118F8010B9047206A401C2062381E34
:1009F000A7F10107F3DC2046AFF30080032011B01C
:100A000041E6000001694A1C02610878704700B5A0
:100A10008FB0CDE901310021059105497944CDE937
:100A2000031011466846FFF78DFC0FB000BD0000B3
:100A3000E5FFFFFF0A6802F8010B0A60704700003B
:100A400000487047300000202DE9F0411F46044661
:100A500003260168072A01F4006004DB08B116A52B
:100A600005E016A503E008B115A500E015A521F0E5
:100A700010002060A069C01EA0610FB1401EA061DF
:100A80002046AFF300804FB1D4E9012138469047AA
:100A9000206A401C2062C01C206206E0206AFAE73F
:100AA000D4E9012115F8010B9047761EF8D22046B3
:100AB000AFF30080BDE8F0814E414E006E616E00E4
:100AC000494E4600696E66002DE9F047814616469C
:100AD0008AB0354878440DC88DE80D003248784416
:100AE000801C03AC0DC884E80D0041F69B3008441F
:100AF000372190FBF1F290FBF1F5A5F1800501FBA8
:100B000012041B3C02D56442012000E00020DFF803
:100B100098A080460027FA44AAF1BE0A0EE0E0073A
:100B20000AD03246684607EB470101230AEB8101F0
:100B300002F0E5F88DE8070064107F1C002CEED170
:100B4000194F7F44AE3F19E0E80715D007EB0410BA
:100B50000DF1180A90E80E008AE80E00C068F04215
:100B600001D1981908903246012306A903A802F082
:100B7000C6F803AB83E807006D10641C002DE3D1B9
:100B80004FF0010332466946B8F1000F03A802D0C6
:100B900002F0A0F801E002F0B2F8C9E90001C9F8DA
:100BA00008200AB0BDE8F087082A00000048704716
:100BB000100000207546FFF7F9FFAE4605006946B4
:100BC000534620F00700854618B020B5FFF718FB04
:100BD000BDE820404FF000064FF000074FF000083E
:100BE0004FF0000BAC46ACE8C009ACE8C009ACE87B
:100BF000C009ACE8C00921F007018D46704710B567
:100C00000446AFF300802046BDE81040FFF7E3BA8A
:100C10004FF0013C50F8042B51F8043B9A4221D18B
:100C2000A2EB0C03934313EACC1317D150F8042B17
:100C300051F8043B9A4215D1A2EB0C03934313EAFB
:100C4000CC130BD150F8042B51F8043B9A4209D134
:100C5000A2EB0C03934313EACC13DBD04FF000005C
:100C6000704700BFD01A01BAB1FA81F101F0180142
:100C700022FA01F0CB40DBB2C0B2C01AC1F12001B0
:100C80002CFA01F3D11A914311EAC311E6D170474E
:100C900001491820ABBEFEE72600020070470000A5
:100CA000FEE7000070470000B0B5044600F01EF9F2
:100CB000054640F20000C2F200000078611C18BF37
:100CC000044400BF00F012F9401BA042FAD3B0BDAB
:100CD0002DE9F04F82B00E68002E00F0FD8041F249
:100CE0000042C4F20102042340F2004E904208BFC9
:100CF00003234FF6FF7CC4F2010E0093002401236E
:100D0000C1F2100C4FF0000A4FF000094BE000BF99
:100D100041F20002C4F20102009F904208BF022784
:100D200004F00C030F229A402BEA020207FA03F3A5
:100D30004FEA9A051A4346F825204E6840F20C45C2
:100D4000F202DEF8082054BF22EA080242EA080252
:100D5000C4F20105CEF808202A68B30254BF22EA83
:100D6000080242EA08022A60B303DEF8042054BFF6
:100D700022EA080242EA0802F303CEF80420DEF871
:100D800000204FF0010354BF22EA080242EA0802A1
:100D9000CEF800200E680AF1010A36FA0AF204F1D0
:100DA000040400F0998003FA0AFB16EA0B08F1D05C
:100DB0004E68664512DC122E56D8DFE806F0350B79
:100DC0004D495555555555555555555555555545F7
:100DD000510000BFD1F80C9046E000BF4FF6FF7203
:100DE000C1F2210296420FDC0022C1F211029642AA
:100DF0001AD00022C1F21202964215D00022C1F28E
:100E00002102964210D02FE00022C1F22202964227
:100E10000AD00022C1F23102964205D00022C1F26E
:100E20003202964220D100BF8A684AB1012A14BF1B
:100E3000C0F814B0C0F810B04FF0080914E000BFBB
:100E40004FF0040910E000BFCA6802F104090BE08A
:100E50004FF0000908E000BFCA6802F1080903E08A
:100E6000CA6802F10C0900BF02462646B8F5807F29
:100E700024BF0432203E17680F25B54027EA050538
:100E800009FA06F635431560CA79D2067FF582AFB6
:100E900041F21803C4F202031A68AEF57E7642F0FE
:100EA00001021A601A6802F001020192019A2AF006
:100EB000030256F802B040F60002C4F2010290426A
:100EC00008D040F60042C4F2010290427FF420AF05
:100ED000012725E7002723E702B0BDE8F08F0000D7
:100EE000002A08BF090401617047000040F2B810F1
:100EF000C2F200000068704740F2000040F2B811F2
:100F0000C2F20000C2F2000100780A6810440860D2
:100F10007047000080B542F20000C4F20200016890
:100F200041F010010160032000F07AF80F2000F07A
:100F300005F800F027F8002080BD000070B540F2F1
:100F40000006C2F2000640F208013278C2F2000147
:100F50004FF47A730968B3FBF2F20446B1FBF2F185
:100F6000084600F073FB0F2C4FF0010508D838B984
:100F70004FF0FF3021460022002500F025F8746074
:100F8000284670BD82B041F21800C4F20200016828
:100F9000022241F001010160016801F001010191AB
:100FA0000199416841F080514160406800F08050F3
:100FB000009000980420C4F20100016862F31A61F5
:100FC000016002B07047000010B54EF60C5CCEF226
:100FD000000CDCF80030C3F3022E8EF00704042C62
:100FE00028BF0424BEF103034FF0FF3E0EFA04F4C1
:100FF00038BF0023A14399400EFA03F39A431143EB
:1010000000F00F0200F160430901043A03F5644364
:101010006244002848BF02F10C03197010BD0000A3
:101020004EF60C51CEF200010A684FF6FF031A404B
:1010300060F30A2242F0806040F0FD700860704763
:10104000002804BF012070472DE9F04381B042F22F
:101050000008C4F202080446D8F800000D4600F06B
:10106000070081420CD9D8F8000020F0070028437F
:10107000C8F80000D8F8000000F00700A8426CD1C2
:10108000206841F204098107C4F2020917D541071B
:1010900005D5D9F8001041F4E061C9F80010010746
:1010A00005D5D9F8001041F46051C9F80010D9F8FD
:1010B0000010A26821F0F0011143C9F80010C00728
:1010C00042D1D8F8000000F0070085420CD2D8F8D1
:1010D000000020F007002843C8F80000D8F80000FE
:1010E00000F00700A84238D12068410707D5D9F899
:1010F0000010E26821F4E0611143C9F80010000714
:1011000008D5D9F80000216920F4605040EAC100F8
:10111000C9F80000D9F8002002F00C00082841F2BC
:101120000020C0F27A004DD143F21253C2F3834142
:10113000C0F60003595CD20338D440F60010C0F268
:101140003D0048433EE000BF606859F8041C022897
:1011500008D0012826D1890306D4012001B0BDE8BA
:10116000F08300BF8901F8D5D9F8001021F0030100
:101170000843C9F80000FFF7B9FE064641F2883778
:10118000D9F80000616800F00C00B0EB810F98D036
:10119000FFF7ACFE801BB842F2D9032001B0BDE8D6
:1011A000F08300BF8907D8D5DEE700BFD9F800205B
:1011B00043F21053C2F34042C0F600039A5C484326
:1011C000B0FBF2F0D9F8001043F2F842C1F303117A
:1011D000C0F60002515C40F2080220FA01F140F230
:1011E0000400C2F200000068C2F200021160FFF7C2
:1011F000A5FE002001B0BDE8F083000040F2080029
:1012000041F20401C2F20000C4F202010068096860
:1012100043F20852C1F30221C0F60002515CC840FB
:101220007047000040F2080041F20401C2F20000E1
:10123000C4F202010068096843F20852C1F3C221F6
:10124000C0F60002515CC84070470000002804BF8F
:10125000012070472DE9F04182B00446007841F248
:101260000006C007C4F202060CD0706800F00C0043
:10127000042840F081803068800303D5606800282E
:1012800000F04681207880071BD5706810F00C0FA5
:1012900009D0706800F00C00082840F08780706862
:1012A000C00300F183803068800703D520690128DE
:1012B00040F02E813068616920F0F80040EAC100FA
:1012C00030602078000713D4207840072CD4E569DB
:1012D000002D00F01881706800F00C00082840F024
:1012E000A780012D40F00481012002B0BDE8F0810B
:1012F000A069002800F084800020C4F2422001216F
:10130000C0F88014FFF7F2FD054600BF706A800741
:1013100000F1B280FFF7EAFD401B0228F6D9032056
:1013200002B0BDE8F08100BFF0695FEAC00808D4F0
:10133000F06940F08050F061F06900F0805000905A
:10134000009847F20007C4F200073868C00549D486
:10135000386840F480703860FFF7C8FD054600BF6C
:101360003868C0053ED4FFF7C1FD401B6428F7D99B
:10137000032002B0BDE8F081706800F00C0008287E
:1013800003D17068C0033FF576AF6168306800290B
:1013900000F00C81B1F5A02F00F00081B1F5803F85
:1013A00040F01A8140F480301CE100BF2069002821
:1013B00040F20000C4F2422000F088800121016068
:1013C000FFF794FD054600BF306880073FF572AF18
:1013D000FFF78CFD401B0228F6D9032002B0BDE8C0
:1013E000F08100BFE168306A002900F09D80052986
:1013F00000F09280012940F0AF8040F00100B1E0A0
:101400000020C4F242200021C0F88014FFF76EFDD6
:10141000054600BF706A80077FF556AFFFF766FD8F
:10142000401B0228F6D9032002B0BDE8F08100BFBE
:101430000027C4F2422700203866FFF757FD022D2F
:1014400005460DD13068800140F1DE80FFF74EFD8A
:10145000401B02284FF00300F4D902B0BDE8F08130
:10146000306880014FD5FFF741FD401B02284FF047
:101470000300F5D9F1E700BF40F20800C2F2000016
:10148000006844F6D351C1F26201A0FB0101480A91
:10149000019000BF00BF0198411E002801913FF458
:1014A00013AF00BF0198411E002801913FF40CAF1B
:1014B00000BF0198411E002801913FF405AF00BF15
:1014C0000198411E00280191E4D1FDE60021016050
:1014D000FFF70CFD054600BF306880077FF5F1AED1
:1014E000FFF704FD401B02284FF00300F4D9B4E7D6
:1014F0007068216A00F480328A4209D1616A00F47E
:101500007010884204D1002002B0BDE8F08100BF15
:10151000012002B0BDE8F08140F004003062306A82
:1015200040F001001EE000BF20F001003062306A90
:1015300020F004003062FFF7D9FC054641F28837FD
:10154000306A800720D5FFF7D1FC401BB8424FF02E
:101550000300F5D981E700BF20F001003062306A56
:1015600020F004003062FFF7C1FC054641F28837E5
:10157000306A800708D4FFF7B9FC401BB842F7D99E
:10158000032002B0BDE8F081B8F1000F3FF59FAE37
:10159000F06920F08050F06199E600BF40F48020AF
:1015A0003060306840F480301CE000BF20F48030B0
:1015B0003060306820F480203060FFF797FC0546EB
:1015C000306880037FF55EAEFFF790FC401B642817
:1015D0004FF00300F4D940E720F4803030603068E9
:1015E00020F480203060FFF781FC054630688003DE
:1015F0003FF548AEFFF77AFC401B6428F6D903207C
:1016000002B0BDE8F08100BF206AB0F5803F05D18F
:101610007168A26821F40031114371607168626AD7
:1016200021F4741111430843706001203866FFF7FC
:101630005DFC0446306880013FF565AFFFF756FC5E
:10164000001B02284FF00300F4D906E7411E0020DA
:10165000B0EB116F1CBF012070474EF21002CEF2AA
:10166000000251604EF62351CEF20001F0230B70C0
:10167000072190601160704790F83C20012A04BF58
:1016800002207047B0B501F108053CCDD1E900CE8C
:1016900023F47C5322F470521A432EF4F0431A437D
:1016A0002CF4E0431A4324F4C0431A432A43C96983
:1016B00022F48042036811435964002180F83C10F1
:1016C0000020B0BD90F83C20012A4FF0020236D035
:1016D00010B580F83D200268D2F804E0D2F808C0C6
:1016E0000C682EF07003234340F2FF74C4F2000430
:1016F000A24253600ADCB2F1804F13D040F20043A3
:10170000C4F200039A420DD011E000BF42F600433C
:10171000C4F201039A4205D040F60003C4F200036C
:101720009A4204D149682CF0800319439160012149
:10173000002280F83D1080F83C20BDE810401046A3
:1017400070470000002804BF0120704710B590F8D2
:101750003D1031B9002180F83C10044600F070F8CB
:101760002046022180F83D10016840F2FF740B68AA
:10177000C4F2000442F6004CA142C4F2010C15DC94
:10178000B1F1804F1AD040F20042C4F200029142FF
:1017900014D0A14218DCB1F1804F1DD040F20042BC
:1017A000C4F20002914217D01AE000BF614505D093
:1017B00040F60002C4F200029142EAD1826823F0AE
:1017C00070031343A142E6DD614505D040F60002F7
:1017D000C4F20002914203D1026923F4407313431F
:1017E000846923F08002D0F804E0C3682243614595
:1017F0000A60CB62C1F828E002D14269CCF83020FF
:1018000001224A610B69DB0703D00B6923F0010356
:101810000B6180F8462080F83E2080F83F2080F859
:10182000402080F8412080F8422080F8432080F852
:10183000442080F8452080F83D20002010BD0000A5
:101840000068B0F1804F18BF704781B041F21C00B2
:10185000C4F20200016841F001010160006800F07B
:1018600001000090009801B07047000090F83C2003
:10187000012A4FF002026CD080B580F83D20D0F8EC
:1018800000C04FF67772DCF8083023EA0202CCF889
:1018900008200B684F2B29DC1F2B45DD202B46D061
:1018A000302B44D0402B40F0AF80D1F804E0C96821
:1018B000DCF82030DCF8202022F00102CCF82020D7
:1018C000DCF8182022F0F00242EA011123F00A02AB
:1018D00042EA0E02CCF81810CCF82020DCF80810F0
:1018E00041F0470121F0300128E000BF6F2B33DDCC
:1018F000B3F5005F74D0B3F5805F21D0702B40F05A
:101900008380D1E901E3C968DCF8082043EA0E03CB
:1019100022F47F4243EA01211143CCF80810DCF89D
:10192000081041F0770109E00BB1102B6CD1DCF805
:10193000081021F07001194341F00701CCF808109C
:101940000022012180F83D10002180F83C10BDE804
:1019500080401046704700BF502B21D0602B53D1E0
:10196000D1F804E0C968DCF82030DCF8202022F04F
:101970001002CCF82020DCF8182022F4704242EA51
:10198000013123F0A00242EA0E12CCF81810CCF874
:101990002020DCF8081041F0670121F01001CDE7AC
:1019A000D1F804E0C968DCF82030DCF8202022F00F
:1019B0000102CCF82020DCF8182022F0F00242EAE4
:1019C000011123F00A0242EA0E02CCF81810CCF8FA
:1019D0002020DCF8081041F0570121F02001ADE78C
:1019E000D1E901E3C968DCF8082043EA0E0322F4D8
:1019F0007F4243EA01211143CCF80810DCF80810BB
:101A000041F480419AE700BF01229AE7002804BF11
:101A1000012070472DE9F04F81B090F83D2042B988
:101A2000002280F83C2004460D4600F09DF829462F
:101A30002046022280F83D20026844F207059368A0
:101A400042F6004CAB43936040F2FF731468C4F25B
:101A500000039A42C4F2010C14DCB2F1804F19D099
:101A600040F20045C4F20005AA4213D09A4217DCA6
:101A7000B2F1804F1CD040F20043C4F200039A42FE
:101A800016D01AE0624505D040F60005C4F2000504
:101A9000AA42EBD1856824F070042C439A42E7DD1A
:101AA000624505D040F60003C4F200039A4204D117
:101AB000036924F4407543EA050424F08003846933
:101AC000D0F804E0C568234362451360D562C2F8CC
:101AD00028E002D14369CCF830304FF0010EC2F853
:101AE00014E01569ED0703D0156925F001051561AE
:101AF00095689469D2F820C0D1E90038D1E9027B19
:101B000043EA050A8D694FF6FF7924EA090447EA9A
:101B100005254FF6FC47BD43D1E9077644EA0B049F
:101B20000B692C4344EA07242CF02207496944EA54
:101B3000031347EA080743EA063347EA0111C2F8EC
:101B400008A09361116280F846E080F83EE080F8DA
:101B50003FE080F842E080F843E080F83DE000207C
:101B600001B0BDE8F08F000080B586B040F20041C2
:101B70000068C4F2000100228842CDE904220392E9
:101B8000029201D006B080BD41F21800C4F20200FA
:101B9000436843F002034360436803F00203019388
:101BA000019B036843F004030360006800F0040035
:101BB00001900198C020CDE902020120049001F5B6
:101BC000823002A9FFF784F806B080BD80B590F896
:101BD0003E2090F83F3090F842E090F843C004294E
:101BE0000AD0B9B9012A4FF0010208BFBEF1010FB6
:101BF00034D0104680BD00BF012B4FF0010208BF5A
:101C0000BCF1010FF5D1022180F83F1080F843109C
:101C100000681EE0012A4FF0010208BF012BE8D145
:101C2000BEF1010FE5D1BCF1010FE2D1022280F833
:101C30003E2080F83F2080F8422080F8432091B178
:101C40000068016A21F001010162016A41F00101AD
:101C5000016210216FF0100209E000BF022180F83C
:101C60003E1080F84210006801216FF00102036A03
:101C70001A400262026A114301620168002241F0C7
:101C800001010160104680BD80B586B0014640F676
:101C90000000C4F20100096800F5105291424FF0B3
:101CA0000001CDE90411CDE9021101D006B080BDDB
:101CB00041F21801C4F202010A6842F004020A600B
:101CC000096801F00401019101994FF440710291FA
:101CD00002210391059102A9FEF7FAFF06B080BD2B
:101CE00090F83C30012B04BF022070474FEAB2024B
:101CF000032A00F2F1802DE9F043DFE802F003A5AA
:101D00003B7500BF036842F600461D6A1A6AC4F2BA
:101D1000010622F001021A621A465C6852F818CFD6
:101D2000B3428E68D1F800E025F0020545EA0605C9
:101D30000CD1CE68D1E9057824F4407425F00C0567
:101D400026F004063C43354344EA08042CF07307AC
:101D500047EA0E075C609F614F6809695F631D6217
:101D60009F6947F008079F619F6927F004079F61FB
:101D7000A6E000BF036842F600461D6A1A6AC4F274
:101D8000010622F480721A621A46D3F804C052F88F
:101D90001CEFB3428E680C6825F4007545EA0625F1
:101DA0000FD1CE68D1E90598360240F2FF4725F4FD
:101DB0004065BE4335432CF4405748EA090647EADC
:101DC000061C2EF073072743C3F804C0DF614F6879
:101DD0000969DF631D62DF6947F00807DF61DF69BA
:101DE00027F00407DF616BE0036842F60047D3F891
:101DF00020C01A6AC4F2010722F480521A621A46FD
:101E00005C6852F81C5FD1F800E08E68BB4204D1D8
:101E10004F6924F4804444EA87142CF4005747EABD
:101E2000063725F4E64646EA0E265C60DE614E681B
:101E300009691E641F62DF6947F40067DF61DF69BB
:101E400027F48067DF613AE0036842F600461D6AC6
:101E50001A6AC4F2010622F010021A621A46D3F876
:101E600004C052F8184FB3428E68D1F800E025F054
:101E7000200545EA06150FD1CE68D1E905986FF027
:101E8000400725F0C00507EA061635432CF44067E5
:101E900048EA090647EA860C24F4E64444EA0E2799
:101EA000C3F804C09F614F6809699F631D629F6901
:101EB00047F400679F619F6927F480679F6109026B
:101EC0001368194311600021BDE8F043002280F837
:101ED0003C200846704700BF0121002280F83C20CA
:101EE00008467047002804BF0120704710B590F8DD
:101EF0003D1031B9002180F83C10044600F070F824
:101F00002046022180F83D10016840F2FF740B6802
:101F1000C4F2000442F6004CA142C4F2010C15DCEC
:101F2000B1F1804F1AD040F20042C4F20002914257
:101F300014D0A14218DCB1F1804F1DD040F2004214
:101F4000C4F20002914217D01AE000BF614505D0EB
:101F500040F60002C4F200029142EAD1826823F006
:101F600070031343A142E6DD614505D040F600024F
:101F7000C4F20002914203D1026923F44073134377
:101F8000846923F08002D0F804E0C36822436145ED
:101F90000A60CB62C1F828E002D14269CCF8302057
:101FA00001224A610B69DB0703D00B6923F00103AF
:101FB0000B6180F8462080F83E2080F83F2080F8B2
:101FC000402080F8412080F8422080F8432080F8AB
:101FD000442080F8452080F83D20002010BD0000FE
:101FE000006842F60041C4F20101884218BF704700
:101FF00081B041F21800C4F20200016841F40061AE
:102000000160006800F400600090009801B0704723
:10201000C1B1042908D0082914BF41224022825CA2
:10202000012A05D016E000BF3F22825C012A11D1AF
:102030000222082910D0042914BF80F8412080F81A
:102040003F200BE090F83E20012A03D1022280F8C5
:102050003E2003E00120704780F84020006801F036
:102060001F010122036A8A4023EA02010162036A16
:1020700042F64441C4F201011A43A1F144039842DB
:1020800002620FD040F2FF71C4F20001884213DCFB
:10209000B0F1804F1CD040F20041C4F200018842F0
:1020A00016D01CE00A6842F400420A6040F2FF7158
:1020B000C4F200018842EBDD42F60041C4F20101A6
:1020C000884205D040F60001C4F20001884206D1E2
:1020D000816801F00701062904BF002070470168EC
:1020E00041F001010160002070470000002804BF9A
:1020F0000120704710B5044690F8410028B900202F
:1021000084F84000204600F063F8242084F8410061
:102110002068D4E90212C36823F40053C360036942
:1021200023F440531A430261D4E904231143C268E3
:10213000194341F20C639A431143C1604169A2699A
:1021400021F44071114343F60002C4F201029042AF
:10215000416103D0FFF752F802E000BFFFF762F8D9
:10216000D4E90023192148439900B0FBF1F048F26B
:102170001F5CC5F2EB1CA0FB0C314FF69C734909A8
:10218000C0F6FF7301FB0300322303EB0010A0FB3A
:102190000C03F02000EA531000EB0110C3F34311CD
:1021A000084490601069202120F49040106150692B
:1021B00020F02A005061D06840F40050D060002028
:1021C000606484F8411084F84210606310BD000020
:1021D00070B586B040F60004C4F201040068A4F5AE
:1021E0004441002688420596CDE90366029601D057
:1021F00006B070BD41F21800C4F20200416802ADA1
:1022000041F400314160416801F4003101910199CC
:10221000016841F0040101600068294600F00400F3
:102220000190019804200290022003900320059061
:102230002046FEF74DFD0820CDE90206204629463E
:102240000496FEF745FD06B070BD00002DE9F04391
:1022500081B0044690F84100202809D100294FF0B0
:10226000010018BF002A07D101B0BDE8F08300BF0C
:10227000022001B0BDE8F0830020606421201D46EB
:102280000E4684F841001746FEF730FEA784E78427
:10229000A1688146B1F5805F02D1206900285DD038
:1022A00037460020E28C2168002A5DD06A1C24D0C9
:1022B000002D4AD0804600BF0868000608D4FEF70B
:1022C00015FEA0EB0900A8427AD82168C868F3E798
:1022D00017B117F8010B04E038F8020B00276FF371
:1022E0005F204860E08C0138E084E08C0028E3D176
:1022F0003AE000BF0A68120609D40A68120606D43A
:102300000A6812065CBF0A685FEA0262F2D51FB172
:1023100017F8012B05E000BF30F8022B00276FF300
:102320005F224A60E28C013AE284E28C002AE4D126
:102330001AE000BF30F8022B00276FF35F224A60DB
:10234000E28C013AE284E28C72B10A68120635D559
:10235000002FEFD017F8012BF1E700BF0027304620
:10236000E28C2168002AA1D1086840061ED42DB352
:10237000681C14D1086840062AD40868400627D48F
:102380000868400624D4086840064FF00000F1D5E4
:102390000DE000BF2068C1680068400618D4FEF751
:1023A000A5FDA0EB0900A842F4D909E000202021F6
:1023B00084F8411001B0BDE8F08300BFFEF796FD40
:1023C0000320202184F8411001B0BDE8F08300BF54
:1023D0000020202184F8411001B0BDE8F083000006
:1023E000FEE70000FEE70000FEE700007047000087
:1023F00070470000FEF780BD70470000FEE7000058
:10240000A8B0FEF787FD00240120CDE91444CDE9F2
:1024100012440F9013904FF4E0104FF480310225D6
:1024200018900FA8CDE91014CDE91651FEF70EFF54
:1024300020B1EFF3108072B6FEE700BF0F20CDE9A8
:1024400004054FF48060CDE9070404A80221069436
:10245000FEF7F6FD20B1EFF3108072B6FEE700BF85
:10246000002441F21800CDE91144CDE90F44C4F233
:102470000200016840F6004541F02001016001685A
:10248000C4F2010501F020010491049901680022C1
:1024900041F0040101600168182601F00401049173
:1024A0000499016841F0080101600068182100F0FA
:1024B0000800049004982846FEF712FD0120CDE99B
:1024C0001004022012900FA928460F96FEF700FC78
:1024D00040F2700AC2F2000A05F50051504640F879
:1024E000281F40F60F61CDE90C441594C0E9014462
:1024F000C0E90314C0E90544FFF7F4FC20B1EFF391
:10250000108072B6FEE700BF0AF128060CA930461B
:10251000FFF7D8F820B1EFF3108072B6FEE700BFE6
:10252000602004904FF4616005900020CDE9060022
:10253000CDE908000A9004A930460022FFF7D0FB3D
:1025400020B1EFF3108072B6FEE700BFC8200590FF
:1025500004A930460422FFF7C3FB28B1EFF3108033
:1025600072B600BFFEE700BF4FF400500024149085
:102570000FA930461394CDE91144CDE90F441694C8
:10258000FFF77AF820B1EFF3108072B6FEE700BFD4
:102590003046FFF779FB40F22810A5F58431C2F2EE
:1025A0000000C0E900140321CDE90F1401214FF60A
:1025B000FF72CDE91114CDE915140FA9CDE904443A
:1025C000C0E9024204618461CDE913441794FFF726
:1025D0001DFA28B1EFF3108072B600BFFEE700BF0E
:1025E00040F22810C2F2000004A9FFF76BF828B1EE
:1025F000EFF3108072B600BFFEE700BF40F270102C
:10260000A5F54841C2F2000000240C234FF4E1324A
:1026100080E81600C0E90344C0E90534C461FFF74F
:1026200065FD28B1EFF3108072B600BFFEE700BF72
:1026300040F2E000C2F200004FF080414FF6FF721E
:102640001294CDE91044CDE90444C0E90014C0E976
:10265000024204618461FFF775F818B1EFF310804E
:1026600072B6FEE74FF480500F9040F2E000C2F2E5
:1026700000000FA9FFF7FAF820B1EFF3108072B64F
:10268000FEE700BF40F2E000C2F2000004A9FFF73D
:1026900019F818B1EFF3108072B6FEE7304600214A
:1026A0004FF0000BFFF7B4FC30460421FFF7B0FCFD
:1026B00040F22814C2F2000420460421FFF786FAF3
:1026C00020680821C0F824B028460122FEF708FC43
:1026D000284610210122FEF703FC0FAD60E000BF89
:1026E000DAF828200024546391638AF80040CAF87D
:1026F000040040F22810C2F200000668716ABAF8BD
:102700000200CAE9061B00F087FD44F6A571C3F676
:102710007A4100F095FD8046002C08BF88F0004803
:10272000CAF80880746ADAE90801DAF81070201A29
:102730006BEB010100F043FD0021C4F2C84100F041
:1027400079FC48F20001C4F2BB5100F079FD8146EA
:10275000CAF80C004046CAE9084B00F03DFE0446AA
:1027600048460E4600F03AFC0B4643F222510290D6
:102770002846C0F600013A46CDE900460393FDF72E
:1027800051FD82B240F27010C2F2000029464FF0B3
:10279000FF33FFF75BFDDAF810000A30CAF81000CB
:1027A0000A20FEF781FABAF8020000F13206AAF810
:1027B0000260FEF79BFBDAF804109AF80040411A19
:1027C00041F28832914294D3002CB1B288D1DAF828
:1027D000282001245163002186E75FEA400C08BFEE
:1027E00091F0000F4FEA8C234FEAC12243EA515186
:1027F0004FEA1C5018BF00F5F0404FEA300018BFF8
:1028000041F000415FEA6C5C00F02980BCF1FF3FC1
:1028100008BF40F080407047130C06BF12044FF011
:10282000100C4FF0000C130E04BF12020CF1080C38
:10283000130F04BF12010CF1040C930F04BF92009C
:102840000CF1020CD30F04BF52000CF1010C114625
:102850004FF00002A0F11F00A0EB0C00704711F038
:10286000004F08BF704731F000413FF4D5AF0B0C6B
:1028700006BF09044FF0100C4FF0000C0B0E04BF04
:1028800009020CF1080C0B0F04BF09010CF1040C38
:102890008B0F04BF89000CF1020CCB0F04BF490061
:1028A0000CF1010CCCF1200322FA03F341EA0301FD
:1028B00002FA0CF2A0EB0C0000F1010070470000DE
:1028C00023F07F4720F07F4C80EA030000F00040B7
:1028D000ACEB070303F57C5303F1FF032DE98049BB
:1028E00009B44FEA144324EA03484FEA154B25EA9A
:1028F0000B4E0FF2042606EB13273E7803FB066708
:10290000C7F5000707FB06F64FEAD64606F10206B2
:102910004FEA543707FB066CCCF1005C4FEA1C47CA
:102920002CEA074C0CFB06F507FB06F404EB1546F6
:102930004FEA961649085FEA320234BF00204FF092
:1029400000404FEAD13706FB07FC4FEA1C4C0CFB5A
:102950000BF7D21B03FB0CF761EB07010CFB0EF727
:10296000B0EB074072EB17420CFB08F734BFA2EB49
:102970000742B2EB074261EB17414FEA0C444FEAC2
:10298000910706FB07FC4FEA1C4C0CFB0BF7B0EB66
:10299000C74072EB573203FB0CF734BFA2EBC742C0
:1029A000B2EBC74261EB57310CFB0EF7B0EBC7003F
:1029B00072EB57720CFB08F734BFA2EBC702B2EB05
:1029C000C70261EB57714FEA816141EA92114FEA08
:1029D000826242EA90124FEA806004EBCC04039FCB
:1029E0004FEAD13706FB07FC4FEA1C4C0CFB0BF7F8
:1029F000D21B03FB0CF761EB07010CFB0EF7B0EBEE
:102A0000074072EB17420CFB08F734BFA2EB0742FA
:102A1000B2EB074261EB17414FEA8C5504EB9C2463
:102A20004FEA910706FB07FC4FEA1C4C0CFB0BF727
:102A3000B0EBC74072EB573203FB0CF734BFA2EB8D
:102A4000C742B2EBC74261EB57310CFB0EF7B0EB5C
:102A5000C70072EB57720CFB08F734BFA2EBC7023A
:102A6000B2EBC70261EB57714FEA816141EA921103
:102A70004FEA826242EA90124FEA806015EB4C25E1
:102A800044F100044FEAD13706FB07FC4FEA1C4C27
:102A90000CFB0BF7D21B03FB0CF761EB07010CFBE4
:102AA0000EF7B0EB074072EB17420CFB08F734BF90
:102AB000A2EB0742B2EB074261EB17414FEA8131CB
:102AC00041EA92414FEA823242EA90424FEA803034
:102AD0004FEA0C7615EB1C1544F1000448EA034359
:102AE0004EEA0B484FF0000EB2EB080C71EB0307F7
:102AF00024BF624639464EEB0E0E4FF0000B001815
:102B0000524149414BEB0B0BB2EB080C71EB030745
:102B10007BF1000B24BF624639464EEB0E0E4FF0A0
:102B2000000B0018524149414BEB0B0BB2EB080C68
:102B300071EB03077BF1000B24BF624639464EEB75
:102B40000E0E51EA020718BF46F0010616EB0E768C
:102B500055F1000254F1000103D5BDE88901BDE83B
:102B60000088BDE88901BDE80048B619524141EB33
:102B70000101A3F10103704780807F7E7D7C7B7A19
:102B80007978777676757473727171706F6E6E6D19
:102B90006C6C6B6A6A6968686766666564646363BF
:102BA00062616160605F5F5E5E5D5D5C5C5B5B5A45
:102BB0005A595958585757565655555554545353B2
:102BC00052525251515050504F4F4F4E4E4D4D4D0D
:102BD0004C4C4C4B4B4B4A4A4A4949494848484758
:102BE0004747474646464545454444444443434396
:102BF00043424242424141419C46002B30D477003F
:102C00002BD04FEA37071CB503B44FF010004FF03C
:102C10001001BAF1000F06D0BCF1000FDCBF40F08C
:102C2000080040F008014FF000000FBCBDE8104064
:102C30000BF1010BBBF1010F08BF5FEA170722BFC1
:102C400012F1010211F101014FF0004143F10003C3
:102C500000F0004043EA00007047F9D35708D0E77E
:102C600046EA06464FEA164613F1400F1FDD13F100
:102C7000200FDFBF16430A46002120335B42BED03F
:102C8000C3F1200746EA06464FEA164602FA07F75E
:102C900046EA070622FA03F2C3F1200701FA07F712
:102CA00042EA070221FA03F14FF00003A7E746EAE0
:102CB000020646EA06464FEA164646EA0106BCBF49
:102CC00046EA0646360C4FF000034FF000024FF084
:102CD000000194E72DE9804C70B49A46934691E840
:102CE000380007C831EA400C48BF34EA430C03D52A
:102CF000FFF7E6FDFFF780FFF0BCBDE8008C2DE993
:102D0000804C70B49A46934691E8380007C810F09A
:102D1000804F08BF13F0804F03D100F005F8FFF794
:102D20006BFFF0BCBDE8008C20F07F4723F07F4CA8
:102D300080EA030000F0004007EB0C03A3F57C538E
:102D4000A3F1FE0392F0000F00F0B38095F0000FA6
:102D500000F077802DE901494FEA114021EA00484F
:102D60004FEA144624EA064700FB06FC08FB06F679
:102D700007FB08F818EB06484CEB164C00FB07F76E
:102D800018EB07484CEB17404FEA124B22EA0B4E68
:102D90004FEA154625EA06470BFB06FC0EFB06F636
:102DA00007FB0EFE1EEB064E4CEB164C0BFB07F71B
:102DB0001EEB074E4CEB174B18EB0B0840F10000D5
:102DC00018EB0E0B58EB000840F100008F1A4FF083
:102DD00000014FF000063CBFC943661B14BFB5EBB2
:102DE000040C00213CBFC943F61B4FEA174427EAF5
:102DF00004454FEA1C472CEA074C04FB076205FB1D
:102E000007F70CFB05F616EB074642EB174204FBEF
:102E10000CFC16EB0C4642EB1C421BEB060658EB77
:102E2000020241414EEA8E0E46EA9E0601D5BDE8F9
:102E30000189B619524141EB0101A3F10103BDE83B
:102E400001894FEA144524EA05464FEA114721EA71
:102E5000074C05FB07F406FB07F70CFB06F111EB2B
:102E6000074144EB174405FB0CFC11EB0C4144EB10
:102E70001C444FEA124722EA074C05FB07F206FB07
:102E800007F70CFB06F616EB074642EB174205FB6D
:102E90000CFC16EB0C4642EB1C456A1854F1000181
:102EA00048BF7047B619524141EB0101A3F101033C
:102EB000704795F0000F37D04FEA114221EA0246E1
:102EC0004FEA144724EA074C02FB07F106FB07F719
:102ED0000CFB06F414EB074441EB174102FB0CFC1E
:102EE00014EB0C4441EB1C414FEA154725EA074C13
:102EF00002FB07F506FB07F70CFB06F616EB074689
:102F000045EB174502FB0CFC16EB0C4645EB1C424F
:102F1000121951F1000148BF7047B619524141EBF7
:102F20000101A3F1010370474FEA144524EA054665
:102F30004FEA114721EA074C05FB07F106FB07F7AB
:102F40000CFB06F212EB074241EB174105FB0CFCB0
:102F500012EB0C4251EB1C414FF0000648BF70478A
:102F6000921841EB0101A3F101037047490050EAB7
:102F7000C12018BF04204A0D18BF40F0010040F2E4
:102F8000FF72B2EB515F08BF40F00200012808BF9A
:102F90000520704730380A2801D2012070470020F0
:102FA0007047000010B500290AD00878002807D023
:102FB00005487844FDF72CFE002801D0002010BD04
:102FC0000248784410BD0000A20500009A050000E8
:102FD0000808A0F500114FEA3101704743004FEA9D
:102FE000D30C4FEA3C0C43401FBF40070CF160512B
:102FF00013F0FE4F70471CF0006F03D10CF000413E
:10300000002070470CF0004343EA507040EACC00C7
:1030100010B500F096F900BF000000924FEA0001E1
:10302000FFF7D6BF4FF00041A1F500214FF000009F
:10303000704700004FF47F0C1CEAD0121EBF1CEA40
:10304000D11392EA0C0F93EA0C0F00F0858090EAFE
:10305000010F48BF42F4807240F4000C41F40000BC
:103060002CF07F4120F07F4000B5A2EB03028142AB
:103070000FF2081CACEB504E9EF800E0C0F10000CF
:103080004FEA4E0E00FB0EFC38BF49004FEA2C1CE5
:103090000CFB0EF34FEACE1E0EEB635E4FEA112CD3
:1030A0000EFB0CFC4FEAC1214FEA1C5300FB03113D
:1030B00002F5FA024FEA112C0EFB0CFC4FEA01312B
:1030C0004FEADC4C00FB0C1142EB2242C14228BF0C
:1030D00009184CEB03335DF804EB10EB410143EBB3
:1030E000C250B2F57C0F38BF704729D512F0F00FEF
:1030F0001CBF00F1C04000F0004070470081828397
:103100008485868788898B8C8D8E8F9192939596F6
:1031100097999A9C9D9FA0A2A3A5A7A8AAACAEB080
:10312000B2B3B5B7B9BCBEC0C2C5C7C9CCCED1D485
:10313000D7D9DCDFE2E6E9ECF0F3F7FAFE000000B5
:103140004FEA400C0CF1807CBCF17E4F28BF7047E9
:10315000B0F1C04000F03BB90CEAD11390EA010F86
:1031600048BF42F48072624538BF634507D213F40A
:103170007F0F16D080EA010000F00040704710B5C4
:1031800000F0DFF8097EFC3E00F005B880EA01009F
:1031900000F00040704780EA010000F0004000F0BD
:1031A00016B912F47F0F04BF0248704780EA01008D
:1031B00000F00DB90000C07F4FF07E5209E011F021
:1031C000004204D54042C1F1000138BF491E42F01F
:1031D0007E5202F170620B0012BF20235FEA0001F1
:1031E0007047B1FA81FC01FA0CF1A3EB0C0320FA51
:1031F00003FC41EA0C0102EBC352C3F1200310FAB5
:1032000003FC5CEA416C42EB112018BF5FF0806C5C
:1032100028BF20F001007047B0FA80F310FA03F2E3
:10322000C3F19D030AD0D90501EB1220530638BF24
:10323000704700F1010008BF20F001007047000056
:103240004FF47F0C1CEAD0121EBF1CEAD11392EA85
:103250000C0F93EA0C0F00F0478090EA010F48BF73
:1032600042F480724FF0004C4CEA00204CEA0121FD
:1032700002EB0302A0FB0113A2F50002002918BF14
:1032800043F001035B0028BF4FEA330342EB2242C5
:103290005FEA132C4CEBC2502EBFBCEB436FB2F570
:1032A0007C0F70474FEA036CBCF1004F08BF20F061
:1032B0000100B2F57C0F38BF70470BD582F0FF02DA
:1032C00012F5803FC8BF704700F1C040D8BF00F082
:1032D0000040704700F5000C5FEA4C0C48BF704797
:1032E000B0F1C04000F073B80CEAD11390EA010FBE
:1032F00048BF42F48072624538BF634504D280EA19
:10330000010000F00040704710B500F01AF800BF4F
:103310008900013E00F007B800F009B85FEA410CEF
:103320005FEA1C6C08D080EA010000F050B85FEA48
:10333000400C5FEA1C6CF6D14FF00040A0F5800015
:1033400070470EF1020E2EF0030E5EF8044B24427D
:1033500004D44FEA4102B2F17F4F11D84FEA400343
:10336000B3F17F4F0CD80ED14FEAD07C0CEB4C0C54
:103370000CF1020CB2F17F4F08BF4CEBD17C04E0A2
:103380004FF0080C01E04FEAD17C0CEB4C0324FA1F
:1033900003F404F00704B4F1040C06D20EEB840C21
:1033A000BDE810404CF0010C6047DFE80CF0070866
:1033B00002024FF00040A0F5800010BD0846420018
:1033C00018BFD2F1807288BF00F0004010BDFF210D
:1033D00041EAD050C0057047C2154FEA002318BF1C
:1033E00043F0004300F11080D2F1BE0240F2288089
:1033F00023FA02F1B2F1200C2EBF23FA0CF0C2F135
:10340000200C03FA0CF07047B0F15F4F00F2188007
:1034100012F0FF0208BF23F00043C2F1BE0223FAFC
:1034200002F1B2F1200C2EBF23FA0CF0C2F1200CF5
:1034300003FA0CF04042C1F1000138BF491E704749
:1034400010B5FFF77EFF00BF922449804FF00001C6
:10345000002070476FEAE07080F000417047FDF790
:103460009AB9000002400000000000A00000000027
:1034700005400000000000C8000000000C400000F3
:103480000000409C00000000194000000020BCBE6D
:103490000000000034400000BFC91B8E0000000483
:1034A000B5400000504BCFD06607E2CF01000000CE
:1034B0006C4100003E8251AADFEEA73401000000FB
:1034C000D9420000DCB5A0E23A301F97FFFFFFFFB2
:1034D000B4450000FD25A0C8E9A3C14FFFFFFFFFD1
:1034E000FF3F00000000008000000000FF3F0000E0
:1034F000000000800000000000000000000000004C
:103500000102030406070809000000000102030489
:10351000010202030405060708090A0B0C0D0E0F31
:103520001010256C752C256C6C642C252E32660DC4
:103530000A000000703500080000002010000000A4
:10354000500100088035000810000020B00700007E
:10355000700100081C00000043000000F8FFFFFF9E
:103560000C0000000E0000000F0000002E00000004
:10357000010000001000000000127A0000000000AE
:04000005080000ED02
:00000001FF
