:020000040800F2
:1000000000090020F1010008AD300008A53000080B
:10001000A9300008990E0008CD3400080000000047
:100020000000000000000000000000008533000810
:100030009D0E00080000000081330008893300088D
:100040000B0200080B0200080B0200080B0200085C
:100050000B0200080B020008A10E0008010F0008A7
:100060000B0200080B020008610F00080B020008D9
:100070000B0200080B0200080B0200080B0200082C
:100080000B0200080B0200080B0200080B0200081C
:100090000B0200080B0200080B020008C10F000849
:1000A0000B0200080B0200080B0200080B020008FC
:1000B000913300080B0200089D3300080B02000872
:1000C0000B0200080B0200080B0200080B020008DC
:1000D0000B0200080B020008B5340008C134000808
:1000E0000B0200080B0200080B02000800F002F8E7
:1000F00000F06EF814A696E8000CB244B344DA455A
:1001000001D100F065F8BAE80F000FA696E83000BC
:10011000A5EB040504EB0607AAEB0704A7F101070A
:100120004FEA15154FEA3414A4F10104AC4201D38F
:1001300000F04EF813F0010F18BFFB1A43F0010353
:1001400000F001F8DBE71847684E0000884E000019
:10015000103A24BF78C878C1FAD8520724BF30C8F3
:1001600030C144BF04680C60704700007047000055
:100170000023002400250026103A28BF78C1FBD8B0
:10018000520728BF30C148BF0B607047662904F092
:10019000A48603681B0A28BF41F08001752900F07E
:1001A0005D80E42900F09680002070471FB500F0C4
:1001B000CBFC04000020002104F03CF8401C6060EF
:1001C0000020002104F020F8E0601FBD10B510BD34
:1001D00000F0DEFD1146FFF7E9FF03F079F900F0CA
:1001E0000AFE03B4FFF7F2FF03BC00F04DFE00006F
:1001F0000948804709480047FEE7FEE7FEE7FEE7BB
:10020000FEE7FEE7FEE7FEE7FEE7FEE704480549F6
:10021000054A064B704700008D330008ED000008CA
:100220000003002000090020000500200005002038
:100230000FB41CB5084B06AA7B446946009005988C
:1002400000F003FC04460020694600F011FC204643
:100250001CBC5DF814FB0000350800002DE9F041DE
:100260000646002410687529314616A510D0AFF354
:100270000080002802DA404213A507E031688A07AF
:1002800001D512A502E0490704D511A5012401E01A
:10029000AFF3008000210A2206F1240709E0B0FB39
:1002A000F2FCB0FBF2F302FB1C003030785418462D
:1002B000491C0028F3D123462A463046BDE8F041C8
:1002C00000F057B9000000002D0000002B000000D6
:1002D000200000002DE9F0418046D21D22F00702E7
:1002E0000025D2E90002F52915A614D0011E72F1ED
:1002F000000106DA0023D0EB030063EB020211A633
:1003000008E0D8F800108B0701D50FA602E04907D6
:1003100001D50EA601251146002408F1240704E0AA
:1003200000F0E2F830323A55641C50EA0102F7D18D
:100330002B46324621464046BDE8F04100F019B94F
:10034000000000002D0000002B0000002000000035
:100350002DE9F0474FF0000A89460446C0F820A076
:100360002046E1688847002876D0252806D0D4E9C1
:1003700001219047206A401C2062F1E7E168204695
:1003800000268847C4F81CA005460027C4F818A01A
:100390002A2D09D0284603F02FFF38B304EB870835
:1003A000303DC8F8185019E059F8041B204604EBFA
:1003B00087029161E1688847012F054618D1E069FD
:1003C000002820DA26F020061DE0D8F8180000EBFF
:1003D000800005EB40003038C8F818002046E1687E
:1003E0008847054603F008FF0028EED1012F0AD008
:1003F0002E2D08D12046E16888477F1C0546022F34
:1004000046F02006C4DBA069002803DA404246F02B
:100410000106A061F00701D026F010066C2D0AD06D
:10042000682D08D04C2D39D06A2D35D0742D35D09B
:100430007A2D33D016E0E1682F4620468847B8422F
:1004400005460AD16C2F27D04FF48060E16806433F
:1004500020468847054605E027E06C2F1AD04FF468
:10046000807006430DB3A5F14100192802D820354C
:1004700046F400664A462946204626604E46FFF767
:1004800085FE80B101280BD0F61D26F0070000F193
:10049000080965E74020E4E78020D7E70020D5E79A
:1004A00006F104095CE7284661E7206ABDE8F087A9
:1004B00070B5064600F014F80468054630460A2276
:1004C000002100F0DAFA2C6070BD0000014A00F053
:1004D0000DBB00000000002070477047704700000F
:1004E000004870473000002030B5B0F10A0271F1C9
:1004F00000034FEA900E4EEA817EB0EB0E0061EBF6
:1005000091014FEA101E4EEA017E10EB0E0041EB06
:1005100011114FEA102E4EEA016E10EB0E0041EB66
:1005200011214FEA104E4EEA014E10EB0E0041EB46
:100530001141401841F100014FEAD00040EA4170FA
:100540004FEAD1014FEA810444EA907410EB800530
:1005500044EB01046D1944EB0404521BA3414FF01A
:10056000000348BF0A3200D530BD401C41F10001F4
:1005700030BD2DE9F0470D4699469246044600F1FC
:1005800024080168880604D5E06921F01001216083
:1005900000E00120A84201DD471B00E00027A1691F
:1005A0007A1902EB0900081AA0612078C00602D46B
:1005B0002046AFF30080002608E0D4E901211AF8B4
:1005C00006009047206A401C761C20624E45F4DBF2
:1005D0002078C0060AD52046AFF3008006E0D4E9B3
:1005E000012130209047206A401C2062381EA7F16C
:1005F0000107F4DC07E0D4E9012118F80500904771
:10060000206A401C2062281EA5F10105F3DC20466B
:10061000AFF300802078000602D50220BDE8F08705
:100620000120FBE72DE9FF4F0C461E464FF0FF3738
:100630008BB0D2E90001DDF860800A908A46C1F3F0
:100640000A5505B93D46002108464FF00000BAF1B1
:10065000000F00F4400005DA00EB80004FF4400189
:1006600001EA50004FEA9059B9F1010F00DDB94697
:100670000A9850EA4A000ED044F61050A5F2FF3511
:1006800045432F14B8F1000F1ED07542291E1EDD00
:10069000C9F100021CE0B8F1010F4FF0000001D0D9
:1006A000302103E0F24305E02154401CB042FBDB63
:1006B00030460022002121540B99C1F80880C1E97D
:1006C00000200FB0BDE8F08FBD1B6D1CDEE74A4671
:1006D00000DA694206A800F0CBFA06AB93E80700FF
:1006E00003AB83E8070050460A9903F0A8F98DE8A8
:1006F0000700A0F500501F3800900398002D0ADD78
:1007000042F21F014A460844002303A903906846A9
:1007100003F012FC09E0A0F500504A461F38002300
:1007200003A90390684603F01CFC8DE80700000451
:10073000000C03D04FF0FF30410800E01046B8F144
:10074000000F03D00022009215461EE0751E05D44E
:10075000FFF7CAFE303262556D1EF9D5B34601224D
:10076000084302D000227F1C04E02078302801D109
:1007700000227F1E002A099784D01DE0112D07DA80
:10078000FFF7B2FE303262556D1C50EA0102F5D11E
:10079000084302D00098C8B10EE00021681E05E0B1
:1007A000235C625C63542254401E491C8142F7DB87
:1007B000AB46A81B401E0990002004F80B000B98C4
:1007C000099AC0F80880C0E9002B7AE711264FF09B
:1007D000000857E72DE9F04F88460446D21D22F065
:1007E000070191B0D1E90001CDE90A0103F0F0FC65
:1007F00002460B98C00F01D02D2007E0206881072A
:1008000001D52B2002E0202101EAC000032A099033
:1008100001D0072A05DB03464146204600F098F93F
:100820000BE12078800601D5E06900E00620B8F1F0
:10083000650F814606D0B8F1660F18D0B8F1670F82
:1008400070D131E00020B9F1110F009001DB1123CC
:1008500001E009F101030AAA01A90CA8FFF7E2FED1
:10086000DDE90C70002609F10105834647E001200F
:100870004B4600904FF000470AAA01A90CA8FFF7C9
:10088000D1FEDDE90DB00C995D46002610B909F1E5
:1008900001000D18B9EB050003D4C0F1FF3609F1D2
:1008A0000105A5EB09002BE0B9F1010F01DA4FF0CA
:1008B00001090020B9F1110F0090484601DD112314
:1008C00000E003460AAA01A90CA8FFF7ABFEDDE988
:1008D0000C704D4600268346207800070AD4AB45AD
:1008E00000DA5D4601A8012D04DD411911F8011C53
:1008F000302907D04F4502DA17F1040F04DA01203E
:1009000082460FE06D1EEEE7002F02DCED1B3E4439
:1009100003E0781CA84200DD7D1CB81B00F1010A31
:100920004FF000472078000703D4AA4501DB4FF0C1
:10093000FF3A0021B7F1004F0DF143088DF8431045
:1009400024D002202B23002F01DA7F422D230A21FD
:10095000021EA0F1010000DC5FB197FBF1FC97FBE8
:10096000F1F201FB1C7C17460CF1300C08F801CDAC
:10097000EEE7A8F1010003702188090501D54521A2
:1009800000E06521A0F1010800F8011C09980FA9F9
:10099000A1EB0807FF1D00B10120411901EBEA702E
:1009A000A1693844081A401EA0612078C00602D40C
:1009B0002046AFF30080099828B1D4E9012190477F
:1009C000206A401C20622078C00622D52046AFF362
:1009D00000801EE0002E04DBB34502DD01A8805D2F
:1009E00000E03020D4E901219047206A401C2062B9
:1009F000761CAAF101005FEA000A0AD100F0A4F80F
:100A0000C0680168405CD4E901219047206A401C1D
:100A10002062281EA5F10105DCDC07E0D4E90121F4
:100A200018F8010B9047206A401C2062381EA7F17D
:100A30000107F3DC2046AFF30080032011B041E64C
:100A400001694A1C02610878704700B58FB0CDE992
:100A500001310021059105497944CDE90310114682
:100A60006846FFF775FC0FB000BD0000E5FFFFFF13
:100A70000A6802F8010B0A6070472DE9F0479146B9
:100A80000F4680460446002614F8015B2DB100F0A5
:100A900053F80068405DC007F6D12B2D02D02D2DF4
:100AA00018D0641E4A463946204600F091F827B116
:100AB0003968A14201D1C7F800804FF002047105E6
:100AC0000BD54042002803DDFFF70AFD0460A007B4
:100AD000BDE8F08746F48066E4E70028F8DAFFF71F
:100AE000FFFC04606FF00040F2E700002DE9F041E8
:100AF00015460E46040002D12C6804B90BA420460A
:100B000000F038F90444207870B127463146384661
:100B100000F020F90444207810B1002004F8010B03
:100B200038462C60BDE8F0810027F9E7000000009E
:100B3000004870473000002010B500F005F8001D97
:100B400010BD00BFF1360000004870475000002083
:100B50002DE9F0411F46044603260168072A01F4E7
:100B6000006004DB08B116A505E016A503E008B196
:100B700015A500E015A521F010002060A069C01E99
:100B8000A0610FB1401EA0612046AFF300804FB1BD
:100B9000D4E9012138469047206A401C2062C01CDD
:100BA000206206E0206AFAE7D4E9012115F8010B7A
:100BB0009047761EF8D22046AFF30080BDE8F08162
:100BC0004E414E006E616E00494E4600696E6600F1
:100BD0002DE9F05F824615468B4600270AF1010495
:100BE000B9460078302801D09DB113E014F8010B0C
:100BF0000127782803D0582801D045B10AE00DB16B
:100C0000102D07D1002714F8010B102502E008254C
:100C100000E00A250026B0460EE005FB080005FBB3
:100C200006F101271FFA80F801EB1046B6F5803F68
:100C300000D3B94614F8010B294600F0CEF800287D
:100C4000EBDABBF1000F05D00FB1641E00E0544693
:100C5000CBF80040B9F1000F06D0FFF741FC0221AC
:100C60000160C81EBDE8F09F48EA0640FAE70000B0
:100C70002DE9F047814616468AB0354878440DC8BC
:100C80008DE80D0032487844801C03AC0DC884E820
:100C90000D0041F69B300844372190FBF1F290FBA8
:100CA000F1F5A5F1800501FB12041B3C02D564425D
:100CB000012000E00020DFF898A080460027FA44D9
:100CC000AAF1BE0A0EE0E0070AD03246684607EBFA
:100CD000470101230AEB810103F043F98DE8070086
:100CE00064107F1C002CEED1194F7F44AE3F19E0F9
:100CF000E80715D007EB04100DF1180A90E80E0074
:100D00008AE80E00C068F04201D198190890324676
:100D1000012306A903A803F024F903AB83E8070025
:100D20006D10641C002DE3D14FF00103324669467B
:100D3000B8F1000F03A802D003F0FEF801E003F0C1
:100D400010F9C9E90001C9F808200AB0BDE8F08728
:100D5000DC42000030B503461D781DB10A4603E0B1
:100D6000AC4201D1181A30BD12F8014B002CF7D15A
:100D70005B1CF1E730B503461D783DB10A4612F819
:100D8000014B1CB1AC42FAD15B1CF5E7181A30BD1F
:100D90007546FFF7CDFEAE4605006946534620F086
:100DA0000700854618B020B5FFF730FABDE82040AF
:100DB0004FF000064FF000074FF000084FF0000B17
:100DC000AC46ACE8C009ACE8C009ACE8C009ACE886
:100DD000C00921F007018D4670473A2800D230380B
:100DE00020F02002412A01D3A2F13700884201D32A
:100DF0004FF0FF30704710B50446AFF30080204637
:100E0000BDE81040FFF7EDB94FF0013C50F8042B5E
:100E100051F8043B9A4221D1A2EB0C03934313EA0D
:100E2000CC1317D150F8042B51F8043B9A4215D13A
:100E3000A2EB0C03934313EACC130BD150F8042B11
:100E400051F8043B9A4209D1A2EB0C03934313EAF5
:100E5000CC13DBD04FF00000704700BFD01A01BAAE
:100E6000B1FA81F101F0180122FA01F0CB40DBB2B6
:100E7000C0B2C01AC1F120012CFA01F3D11A91437A
:100E800011EAC311E6D1704701491820ABBEFEE755
:100E90002600020070470000FEE7000070470000D7
:100EA000B0B540F60044C4F201042046012100F030
:100EB00061FA05462046022100F05CFA40EA45004E
:100EC00000F0030140F2900240F20134C2F200024D
:100ED000CD00C0F20024D078938924FA05F5EDB254
:100EE0004FF0FF34A84208BF01241819908190697F
:100EF000204490610120D170BDE8B04000F026B9D7
:100F0000B0B540F60044C4F201042046012100F0CF
:100F100031FA05462046022100F02CFA40EA45004D
:100F200000F0030140F2900240F20134C2F20002EC
:100F3000CD00C0F20024D078938924FA05F5EDB2F3
:100F40004FF0FF34A84208BF01241819908190691E
:100F5000204490610220D170BDE8B04000F0F6B8A6
:100F6000B0B540F60004C4F201042046102100F0A0
:100F700001FA05462046202100F0FCF940EA450030
:100F800000F0030140F2900240F20134C2F200028C
:100F9000CD00C0F200249078538924FA05F5EDB213
:100FA0004FF0FF34A84208BF01241819508150693E
:100FB0002044506110209170BDE8B04000F0C6B8E8
:100FC000B0B540F60004C4F201042046102100F040
:100FD000D1F905462046202100F0CCF940EA450031
:100FE00000F0030140F2900240F20134C2F200022C
:100FF000CD00C0F200249078538924FA05F5EDB2B3
:101000004FF0FF34A84208BF0124181950815069DD
:101010002044506120209170BDE8B04000F096B8A7
:10102000014690F82100022816D10868D1E90FC3C3
:10103000026822F00E020260026822F001020260E1
:10104000012000FA03F2CCF8042081F821000020EE
:10105000002281F8202070470420886301200022AC
:1010600081F820207047000090F82110022923D138
:10107000026840F2040C1168C4F2020C21F00E0167
:10108000116013682F21C4F202018A4223F0010388
:10109000136015DD3023C4F202039A421CD04423AE
:1010A000C4F202039A421BD05823C4F202039A42AC
:1010B0001CD14FF4803321E004218163012070476B
:1010C0000823C4F202039A420ED01C23C4F2020386
:1010D0009A420BD1102311E04FF480730EE000BF51
:1010E0004FF480530AE000BF012307E00CF16801D0
:1010F0004FF080738A4208BF4FF480130121CCF86F
:10110000003080F82110416B0022002980F8202057
:1011100004BF0020704780B58847002080BD0000D4
:10112000B0B5044600F032F9054640F22000C2F2A4
:1011300000000078611C18BF044400BF00F026F9CD
:10114000401BA042FAD3B0BD7047000040F21441EA
:10115000C4F201010A68024214BF08607047FFF739
:10116000F3BF00002DE9F04F82B00E68002E00F0B2
:10117000FD8041F20042C4F20102042340F2004E1D
:10118000904208BF03234FF6FF7CC4F2010E009388
:1011900000240123C1F2100C4FF0000A4FF00009A7
:1011A0004BE000BF41F20002C4F20102009F9042F6
:1011B00008BF022704F00C030F229A402BEA020218
:1011C00007FA03F34FEA9A051A4346F825204E68BA
:1011D00040F20C45F202DEF8082054BF22EA080271
:1011E00042EA0802C4F20105CEF808202A68B302D8
:1011F00054BF22EA080242EA08022A60B303DEF87A
:10120000042054BF22EA080242EA0802F303CEF89F
:101210000420DEF800204FF0010354BF22EA080248
:1012200042EA0802CEF800200E680AF1010A36FAF6
:101230000AF204F1040400F0998003FA0AFB16EAAA
:101240000B08F1D04E68664512DC122E56D8DFE846
:1012500006F0350B4D495555555555555555555570
:1012600055555545510000BFD1F80C9046E000BFE0
:101270004FF6FF72C1F2210296420FDC0022C1F24A
:10128000110296421AD00022C1F21202964215D0E3
:101290000022C1F22102964210D02FE00022C1F2BA
:1012A000220296420AD00022C1F23102964205D0B3
:1012B0000022C1F23202964220D100BF8A684AB1B0
:1012C000012A14BFC0F814B0C0F810B04FF00809DC
:1012D00014E000BF4FF0040910E000BFCA6802F13B
:1012E00004090BE04FF0000908E000BFCA6802F1F2
:1012F000080903E0CA6802F10C0900BF024626464D
:10130000B8F5807F24BF0432203E17680F25B54012
:1013100027EA050509FA06F635431560CA79D206AB
:101320007FF582AF41F21803C4F202031A68AEF5EA
:101330007E7642F001021A601A6802F00102019200
:10134000019A2AF0030256F802B040F60002C4F2F5
:101350000102904208D040F60042C4F201029042DD
:101360007FF420AF012725E7002723E702B0BDE87F
:10137000F08F00008068084018BF0120704700000F
:10138000002A08BF090401617047000040F2FC20F8
:10139000C2F200000068704740F2200040F2FC21D9
:1013A000C2F20000C2F2000100780A68104408602E
:1013B0007047000080B542F20000C4F202000168EC
:1013C00041F010010160032000F08CF80F2000F0C4
:1013D00005F800F027F8002080BD000070B540F24D
:1013E0002006C2F2000640F228013278C2F2000163
:1013F0004FF47A730968B3FBF2F20446B1FBF2F1E1
:10140000084600F085FB0F2C4FF0010508D838B9CD
:101410004FF0FF3021460022002500F037F87460BD
:10142000284670BD82B041F21800C4F20200016883
:10143000022241F001010160016801F00101019106
:101440000199416841F080514160406800F080504E
:10145000009000980420C4F20100016862F31A6150
:10146000016002B070470000002848BF704700F0DC
:101470001F01012202FA01F11C2202EAD0004EF201
:101480000012CEF2000281507047000010B54EF6F7
:101490000C5CCEF2000CDCF80030C3F3022E8EF0B0
:1014A0000704042C28BF0424BEF103034FF0FF3EC1
:1014B0000EFA04F438BF0023A14399400EFA03F357
:1014C0009A43114300F00F0200F160430901043A0E
:1014D00003F564436244002848BF02F10C0319700D
:1014E00010BD00004EF60C51CEF200010A684FF616
:1014F000FF031A4060F30A2242F0806040F0FD7062
:1015000008607047002804BF012070472DE9F043B0
:1015100081B042F20008C4F202080446D8F8000084
:101520000D4600F0070081420CD9D8F8000020F0E9
:1015300007002843C8F80000D8F8000000F00700B2
:10154000A8426CD1206841F204098107C4F2020963
:1015500017D5410705D5D9F8001041F4E061C9F865
:101560000010010705D5D9F8001041F46051C9F801
:101570000010D9F80010A26821F0F0011143C9F859
:101580000010C00742D1D8F8000000F007008542E3
:101590000CD2D8F8000020F007002843C8F800005B
:1015A000D8F8000000F00700A84238D120684107B1
:1015B00007D5D9F80010E26821F4E0611143C9F8B9
:1015C0000010000708D5D9F80000216920F4605008
:1015D00040EAC100C9F80000D9F8002002F00C0070
:1015E000082841F20020C0F27A004DD144F68E73F3
:1015F000C2F38341C0F60003595CD20338D440F6ED
:101600000010C0F23D0048433EE000BF606859F85A
:10161000041C022808D0012826D1890306D4012001
:1016200001B0BDE8F08300BF8901F8D5D9F80010FA
:1016300021F003010843C9F80000FFF7A7FE0646A2
:1016400041F28837D9F80000616800F00C00B0EB77
:10165000810F98D0FFF79AFE801BB842F2D9032081
:1016600001B0BDE8F08300BF8907D8D5DEE700BF31
:10167000D9F8002044F68C73C2F34042C0F6000350
:101680009A5C4843B0FBF2F0D9F8001044F674724B
:10169000C1F30311C0F60002515C40F2280220FAA7
:1016A00001F140F22400C2F200000068C2F2000220
:1016B0001160FFF793FE002001B0BDE8F083000049
:1016C00040F2280041F20401C2F20000C4F202011B
:1016D0000068096844F68472C1F30221C0F6000272
:1016E000515CC8407047000040F2280041F20401FC
:1016F000C2F20000C4F202010068096844F6847274
:10170000C1F3C221C0F60002515CC840704700001E
:10171000002804BF012070472DE9F04182B0044643
:10172000007841F20006C007C4F202060CD07068CF
:1017300000F00C00042840F081803068800303D55D
:101740006068002800F04681207880071BD570680B
:1017500010F00C0F09D0706800F00C00082840F061
:1017600087807068C00300F183803068800703D5EC
:101770002069012840F02E813068616920F0F8006E
:1017800040EAC10030602078000713D42078400779
:101790002CD4E569002D00F01881706800F00C0071
:1017A000082840F0A780012D40F00481012002B0FC
:1017B000BDE8F081A069002800F084800020C4F218
:1017C00042200121C0F88014FFF7E0FD054600BF6C
:1017D000706A800700F1B280FFF7D8FD401B022835
:1017E000F6D9032002B0BDE8F08100BFF0695FEADE
:1017F000C00808D4F06940F08050F061F06900F052
:1018000080500090009847F20007C4F20007386843
:10181000C00549D4386840F480703860FFF7B6FDE1
:10182000054600BF3868C0053ED4FFF7AFFD401B3A
:101830006428F7D9032002B0BDE8F081706800F099
:101840000C00082803D17068C0033FF576AF6168CB
:101850003068002900F00C81B1F5A02F00F0008164
:10186000B1F5803F40F01A8140F480301CE100BFA8
:101870002069002840F20000C4F2422000F0888075
:1018800001210160FFF782FD054600BF3068800737
:101890003FF572AFFFF77AFD401B0228F6D903200F
:1018A00002B0BDE8F08100BFE168306A002900F0B5
:1018B0009D80052900F09280012940F0AF8040F022
:1018C0000100B1E00020C4F242200021C0F88014E1
:1018D000FFF75CFD054600BF706A80077FF556AFD5
:1018E000FFF754FD401B0228F6D9032002B0BDE8E3
:1018F000F08100BF0027C4F2422700203866FFF7BE
:1019000045FD022D05460DD13068800140F1DE8095
:10191000FFF73CFD401B02284FF00300F4D902B052
:10192000BDE8F081306880014FD5FFF72FFD401BE7
:1019300002284FF00300F5D9F1E700BF40F228007C
:10194000C2F20000006844F6D351C1F26201A0FB6C
:101950000101480A019000BF00BF0198411E002804
:1019600001913FF413AF00BF0198411E002801917F
:101970003FF40CAF00BF0198411E002801913FF4D5
:1019800005AF00BF0198411E00280191E4D1FDE69A
:1019900000210160FFF7FAFC054600BF30688007B0
:1019A0007FF5F1AEFFF7F2FC401B02284FF0030079
:1019B000F4D9B4E77068216A00F480328A4209D110
:1019C000616A00F47010884204D1002002B0BDE8C2
:1019D000F08100BF012002B0BDE8F08140F00400BA
:1019E0003062306A40F001001EE000BF20F00100CC
:1019F0003062306A20F004003062FFF7C7FC054611
:101A000041F28837306A800720D5FFF7BFFC401BC2
:101A1000B8424FF00300F5D981E700BF20F0010084
:101A20003062306A20F004003062FFF7AFFC0546F8
:101A300041F28837306A800708D4FFF7A7FC401BC3
:101A4000B842F7D9032002B0BDE8F081B8F1000F29
:101A50003FF59FAEF06920F08050F06199E600BF3D
:101A600040F480203060306840F480301CE000BFDB
:101A700020F480303060306820F480203060FFF740
:101A800085FC0546306880037FF55EAEFFF77EFC7F
:101A9000401B64284FF00300F4D940E720F4803065
:101AA0003060306820F480203060FFF76FFC05461E
:101AB000306880033FF548AEFFF768FC401B6428A0
:101AC000F6D9032002B0BDE8F08100BF206AB0F56E
:101AD000803F05D17168A26821F400311143716023
:101AE0007168626A21F47411114308437060012027
:101AF0003866FFF74BFC0446306880013FF565AF60
:101B0000FFF744FC001B02284FF00300F4D906E75E
:101B1000411E0020B0EB116F1CBF012070474EF238
:101B20001002CEF2000251604EF62351CEF20001B7
:101B3000F0230B7007219060116070477047000020
:101B40007047000090F83C20012A04BF0220704733
:101B5000B0B501F108053CCDD1E900CE23F47C53AA
:101B600022F470521A432EF4F0431A432CF4E0434B
:101B70001A4324F4C0431A432A43C96922F4804219
:101B8000036811435964002180F83C100020B0BD67
:101B900090F83C20012A4FF0020236D010B580F8B0
:101BA0003D200268D2F804E0D2F808C00C682EF09C
:101BB0007003234340F2FF74C4F20004A242536056
:101BC0000ADCB2F1804F13D040F20043C4F20003AC
:101BD0009A420DD011E000BF42F60043C4F2010367
:101BE0009A4205D040F60003C4F200039A4204D1A1
:101BF00049682CF08003194391600121002280F88C
:101C00003D1080F83C20BDE81040104670470000B1
:101C1000002804BF0120704710B590F83D1031B97D
:101C2000002180F83C10044600F070F820460221A4
:101C300080F83D10016840F2FF740B68C4F20004A4
:101C400042F6004CA142C4F2010C15DCB1F1804F08
:101C50001AD040F20042C4F20002914214D0A142D4
:101C600018DCB1F1804F1DD040F20042C4F20002F6
:101C7000914217D01AE000BF614505D040F600023E
:101C8000C4F200029142EAD1826823F07003134348
:101C9000A142E6DD614505D040F60002C4F2000233
:101CA000914203D1026923F440731343846923F002
:101CB0008002D0F804E0C368224361450A60CB6229
:101CC000C1F828E002D14269CCF8302001224A61F3
:101CD0000B69DB0703D00B6923F001030B6180F86C
:101CE000462080F83E2080F83F2080F8402080F891
:101CF000412080F8422080F8432080F8442080F87A
:101D0000452080F83D20002010BD000080B582B045
:101D1000006840F2FF71C4F20001884214DCB0F1A7
:101D2000804F2FD040F20041C4F20001884227D1F9
:101D300041F21C00C4F20200016841F0020101609E
:101D4000006800F0020019E040F60001C4F2000152
:101D500088422FD042F60041C4F2010188420FD1DF
:101D600041F21C00C4F2020050F8041C41F400616E
:101D700040F8041C50F8040C00F400600190019835
:101D800002B080BD41F21C00C4F2020001680022D2
:101D900041F0010101600068002100F001000190A4
:101DA00001981C20FFF772FB1C2002B0BDE88040A8
:101DB000FFF75ABB41F21C00C4F202000168002286
:101DC00041F0040101600068002100F0040001906E
:101DD00001981E20FFF75AFB1E2002B0BDE880408C
:101DE000FFF742BB90F83D1001291CBF012070474E
:101DF000022180F83D10006840F2FF72C168C4F211
:101E00000002904241F00101C16009DCB0F1804F55
:101E100012D040F20041C4F2000188420CD012E01E
:101E200042F60041C4F20101884205D040F60001AB
:101E3000C4F20001884206D1816801F00701062939
:101E400004BF00207047016841F0010101600020DB
:101E50007047000090F83C20012A4FF002026CD03D
:101E600080B580F83D20D0F800C04FF67772DCF8DE
:101E7000083023EA0202CCF808200B684F2B29DC3B
:101E80001F2B45DD202B46D0302B44D0402B40F07B
:101E9000AF80D1F804E0C968DCF82030DCF82020FD
:101EA00022F00102CCF82020DCF8182022F0F00209
:101EB00042EA011123F00A0242EA0E02CCF818109D
:101EC000CCF82020DCF8081041F0470121F0300167
:101ED00028E000BF6F2B33DDB3F5005F74D0B3F59E
:101EE000805F21D0702B40F08380D1E901E3C96885
:101EF000DCF8082043EA0E0322F47F4243EA012182
:101F00001143CCF80810DCF8081041F0770109E023
:101F10000BB1102B6CD1DCF8081021F070011943C3
:101F200041F00701CCF808100022012180F83D1093
:101F3000002180F83C10BDE880401046704700BF8B
:101F4000502B21D0602B53D1D1F804E0C968DCF8C4
:101F50002030DCF8202022F01002CCF82020DCF821
:101F6000182022F4704242EA013123F0A00242EA32
:101F70000E12CCF81810CCF82020DCF8081041F034
:101F8000670121F01001CDE7D1F804E0C968DCF861
:101F90002030DCF8202022F00102CCF82020DCF8F0
:101FA000182022F0F00242EA011123F00A0242EA6C
:101FB0000E02CCF81810CCF82020DCF8081041F004
:101FC000570121F02001ADE7D1E901E3C968DCF850
:101FD000082043EA0E0322F47F4243EA0121114321
:101FE000CCF80810DCF8081041F480419AE700BFF3
:101FF00001229AE77047000070B504460068C56882
:102000000669B10716D515F0020113D06FF0020171
:102010000161012121778069800703D02046FFF705
:10202000E9FF05E0204600F0D1F8204600F052FA22
:1020300000202077700719D515F0040016D020680D
:102040006FF00401016102212177806910F4407F63
:1020500004D02046FFF7CEFF06E000BF204600F088
:10206000B5F8204600F036FA00202077300717D563
:1020700015F0080014D020686FF0080101610421F8
:102080002177C069800703D02046FFF7B3FF05E042
:10209000204600F09BF8204600F01CFA0020207734
:1020A000F00619D515F0100016D020686FF0100159
:1020B000016108212177C06910F4407F04D02046D7
:1020C000FFF798FF06E000BF204600F07FF82046AB
:1020D00000F000FA00202077F00718BF15F001008B
:1020E00002D1300609D412E020686FF001010161CD
:1020F000204600F05FFA300609D515F0800006D0C2
:1021000020686FF0800101612046FFF717FD70061F
:1021100009D515F0400006D020686FF0400101613C
:10212000204600F0E3FAB00658BF70BD15F020005D
:1021300008D021686FF0200220460A61BDE8704097
:10214000FFF7FEBC70BD000080B586B0006840F2AD
:102150000041C4F2000188424FF00001CDE90411B2
:10216000CDE9021116D042F60041C4F201018842C5
:1021700029D141F21800C4F20200016841F00401C3
:102180000160006800F00400019001984FF4407075
:102190000EE000BF41F21800C4F20200016841F0F5
:1021A00004010160006800F0040001900198C02063
:1021B000029002200390059040F60000C4F2010056
:1021C00002A9FEF7CFFF06B080BD000070470000F7
:1021D00090F83C30012B04BF022070474FEAB20256
:1021E000032A00F2F1802DE9F043DFE802F003A5B5
:1021F0003B7500BF036842F600461D6A1A6AC4F2C6
:10220000010622F001021A621A465C6852F818CFE1
:10221000B3428E68D1F800E025F0020545EA0605D4
:102220000CD1CE68D1E9057824F4407425F00C0572
:1022300026F004063C43354344EA08042CF07307B7
:1022400047EA0E075C609F614F6809695F631D6222
:102250009F6947F008079F619F6927F004079F6106
:10226000A6E000BF036842F600461D6A1A6AC4F27F
:10227000010622F480721A621A46D3F804C052F89A
:102280001CEFB3428E680C6825F4007545EA0625FC
:102290000FD1CE68D1E90598360240F2FF4725F408
:1022A0004065BE4335432CF4405748EA090647EAE7
:1022B000061C2EF073072743C3F804C0DF614F6884
:1022C0000969DF631D62DF6947F00807DF61DF69C5
:1022D00027F00407DF616BE0036842F60047D3F89C
:1022E00020C01A6AC4F2010722F480521A621A4608
:1022F0005C6852F81C5FD1F800E08E68BB4204D1E4
:102300004F6924F4804444EA87142CF4005747EAC8
:10231000063725F4E64646EA0E265C60DE614E6826
:1023200009691E641F62DF6947F40067DF61DF69C6
:1023300027F48067DF613AE0036842F600461D6AD1
:102340001A6AC4F2010622F010021A621A46D3F881
:1023500004C052F8184FB3428E68D1F800E025F05F
:10236000200545EA06150FD1CE68D1E905986FF032
:10237000400725F0C00507EA061635432CF44067F0
:1023800048EA090647EA860C24F4E64444EA0E27A4
:10239000C3F804C09F614F6809699F631D629F690C
:1023A00047F400679F619F6927F480679F61090276
:1023B0001368194311600021BDE8F043002280F842
:1023C0003C200846704700BF0121002280F83C20D5
:1023D00008467047002804BF0120704710B590F8E8
:1023E0003D1031B9002180F83C10044600F070F82F
:1023F0002046022180F83D10016840F2FF740B680E
:10240000C4F2000442F6004CA142C4F2010C15DCF7
:10241000B1F1804F1AD040F20042C4F20002914262
:1024200014D0A14218DCB1F1804F1DD040F200421F
:10243000C4F20002914217D01AE000BF614505D0F6
:1024400040F60002C4F200029142EAD1826823F011
:1024500070031343A142E6DD614505D040F600025A
:10246000C4F20002914203D1026923F44073134382
:10247000846923F08002D0F804E0C36822436145F8
:102480000A60CB62C1F828E002D14269CCF8302062
:1024900001224A610B69DB0703D00B6923F00103BA
:1024A0000B6180F8462080F83E2080F83F2080F8BD
:1024B000402080F8412080F8422080F8432080F8B6
:1024C000442080F8452080F83D20002010BD000009
:1024D0007047000070470000C1B1042908D00829E6
:1024E00014BF41224022825C012A05D016E000BFC1
:1024F0003F22825C012A11D10222082910D004292E
:1025000014BF80F8412080F83F200BE090F83E2077
:10251000012A03D1022280F83E2003E00120704707
:1025200080F84020006801F01F010122036A8A4000
:1025300023EA02010162036A42F64441C4F2010146
:102540001A43A1F14403984202620FD040F2FF7196
:10255000C4F20001884213DCB0F1804F1CD040F27D
:102560000041C4F20001884216D01CE00A6842F41F
:1025700000420A6040F2FF71C4F200018842EBDDC4
:1025800042F60041C4F20101884205D040F6000144
:10259000C4F20001884206D1816801F007010629D2
:1025A00004BF00207047016841F001010160002074
:1025B000704700000068B0F1804F18BF7047F0B559
:1025C00081B040F29006C2F20006B6F90640B6F9B4
:1025D0000A0000277064778102F078F84CF25922E3
:1025E00041F63B13C1F6DA02C4F2230302F086F887
:1025F00041F26F2242F2CA13CCF28302C4F2090301
:1026000002F07CF800224FF07F5302F077F801F0DF
:1026100027FE0546B064204602F006FB294600F07E
:10262000FBFD0128F08109DB40F24C11C2F20001F0
:10263000096801274863002009E000BF40F24C11FF
:10264000C2F2000140420968F08100B24F63886322
:102650003771B6F90C000025F064B58102F036F848
:102660004CF2592241F63B13C1F6DA02C4F22303BD
:1026700002F044F841F26F2242F2CA13CCF2830214
:10268000C4F2090302F03AF800224FF07F5302F03F
:1026900035F801F0E5FD0446B6F90800346502F0AE
:1026A000C3FA214600F004FD012830820EDB40F21F
:1026B000DC11C2F200010968012272714863002036
:1026C000886301B0BDE8F040704700BF40F2DC1104
:1026D000C2F2000140420968308200B275714D6358
:1026E000886301B0BDE8F04070470000704700000B
:1026F0007047000070470000B0B582B001680A68FA
:10270000CC684B6902F02F05202D04F0200505D17F
:1027100025B102B0BDE8B04000F04CBE5FEA027CDB
:102720001EBF03F0010E04F4907313EB0E0341D1AE
:10273000036BD50618D5012B16D114F0100313D056
:10274000002201920A6801924A680192019A49693D
:1027500049064BD4818DC28DC38D002B18BF914289
:1027600040F0F48102B0B0BD13062DD514F0800303
:102770002AD090F84120212AF4D18268B2F5805FF6
:1027800003D10269002A00F06782026A531C0362C7
:1027900012784A60C28C013A1304C284E2D1C8683C
:1027A00020F08000C860C86840F04000C86002B0F7
:1027B000B0BD00BFD30718BF14F4807340F0D080C1
:1027C000530700F1D380D8E05206CBD514F0400275
:1027D000C8D0CA6822F04002CA60202180F84110A7
:1027E00002B0BDE8B04000F05BBC00BFC16B0A683E
:1027F000526893B2002BB5D0858DAB42B2D2C28560
:102800008969202900F0A180016851E8031F02684E
:1028100021F4807142E80313DBB1016851E8031F22
:10282000026821F4807142E8031393B1016851E812
:10283000031F026821F4807142E803134BB1016861
:1028400051E8031F026821F4807142E80313002B52
:10285000DAD1016851E8051F026821F0010142E860
:102860000513C3B3016851E8051F026821F0010197
:1028700042E805137BB3016851E8051F026821F0A7
:10288000010142E8051333B3016851E8051F0268EE
:1028900021F0010142E80513002BDAD11BE000BF53
:1028A000016851E8051F026821F0400142E8051364
:1028B000DBB1016851E8051F026821F0400142E8E0
:1028C000051393B1016851E8051F026821F040012A
:1028D00042E805134BB1016851E8051F026821F079
:1028E000400142E80513002BDAD1202180F8421084
:1028F00000210163016851E8031F026821F0100103
:1029000042E80313DBB1016851E8031F026821F0BC
:10291000100142E8031393B1016851E8031F0268F4
:1029200021F0100142E803134BB1016851E8031F85
:10293000026821F0100142E80313002BDAD1C16BC9
:1029400004460846FEF76CFB204602214163818D58
:10295000C28D891A89B202B0BDE8B040FFF7C8BE87
:10296000436C43F001034364530706D5BEF1000FE7
:1029700003D0436C43F002034364930706D5BEF1D2
:10298000000F03D0436C43F004034364BCF1000F19
:1029900006D55EEA050303D0436C43F008034364A5
:1029A000436C002B3FF4DEAE920605D525B10446FC
:1029B00000F000FD216820464969426C01F04001A9
:1029C00002F00802891800F0B98000BF016851E8E0
:1029D000031F026821F4907142E80313BBB301683E
:1029E00051E8031F026821F4907142E8031373B3A6
:1029F000016851E8031F026821F4907142E8031353
:102A00002BB3016851E8031F026821F4907142E87A
:102A10000313002BDAD11AE0016851E8051F0268A0
:102A200021F0010142E80513DBB1016851E8051FFF
:102A3000026821F0010142E8051393B1016851E8F1
:102A4000051F026821F0010142E805134BB101683E
:102A500051E8051F026821F0010142E80513002B2F
:102A6000DAD1016B012924D1016851E8031F026802
:102A700021F0100142E80313DBB1016851E8031FA4
:102A8000026821F0100142E8031393B1016851E894
:102A9000031F026821F0100142E803134BB10168E3
:102AA00051E8031F026821F0100142E80313002BD4
:102AB000DAD1202180F842100021016301684969C0
:102AC000490640F1C380016851E8051F026821F002
:102AD000400142E80513DBB1016851E8051F0268B7
:102AE00021F0400142E8051393B1016851E8051F48
:102AF000026821F0400142E805134BB1016851E83A
:102B0000051F026821F0400142E80513002BDAD1CD
:102B1000C16B002900F09A8043F2A932C0F600028E
:102B2000044608464A63FEF79FFA00283FF41AAEAF
:102B3000E06B416B02B0BDE8B04008470446FFF7C8
:102B4000D9FD0020606402B0B0BD00BF891A00BF8B
:102B5000026852E8032F036822F4907243E80325C9
:102B6000BDB3026852E8032F036822F4907243E871
:102B7000032575B3026852E8032F036822F49072AC
:102B800043E803252DB3026852E8032F036822F4BB
:102B9000907243E80325002DDAD11AE0026852E86A
:102BA000052F036822F0010243E80525DDB1026824
:102BB00052E8052F036822F0010243E8052595B18C
:102BC000026852E8052F036822F0010243E8052558
:102BD0004DB1026852E8052F036822F0010243E874
:102BE0000525002DDAD1202280F842200022026340
:102BF000026852E8032F036822F0100243E803251D
:102C0000DDB1026852E8032F036822F0100243E8A6
:102C1000032595B1026852E8032F036822F01002E1
:102C200043E803254DB1026852E8032F036822F000
:102C3000100243E80325002DDAD1022289B2426353
:102C400002B0BDE8B040FFF753BD00BF02B0BDE821
:102C5000B040FFF74FBD00BF026A32F8023B6FF38E
:102C60005F234B60026295E5002804BF0120704796
:102C700010B5044690F8410028B9002084F84000BF
:102C8000204600F063F8242084F841002068D4E94D
:102C90000212C36823F40053C360036923F4405352
:102CA0001A430261D4E904231143C268194341F273
:102CB0000C639A431143C1604169A26921F44071D8
:102CC000114343F60002C4F201029042416103D075
:102CD000FEF7F6FC02E000BFFEF706FDD4E9002394
:102CE000192148439900B0FBF1F048F21F5CC5F28E
:102CF000EB1CA0FB0C314FF69C734909C0F6FF7327
:102D000001FB0300322303EB0010A0FB0C03F020B7
:102D100000EA531000EB0110C3F343110844906024
:102D20001069202120F490401061506920F02A00A1
:102D30005061D06840F40050D0600020606484F896
:102D4000411084F84210606310BD0000F0B585B0FA
:102D5000006844F60001C4F2000188424FF000010F
:102D6000CDE90311CDE9011124D044F20041C4F2B0
:102D70000001884259D141F21800C4F202004168B2
:102D800040F6000541F4003141604168262401F419
:102D90000031009100990168082741F004010160A9
:102DA0000068C4F2010500F00400009000980420BF
:102DB00021E000BF41F21800C4F20200416827245C
:102DC00041F48021416041684FF4006701F48021A3
:102DD00000910099016841F008010160006800F06D
:102DE00008000090009840F60000C4F2010000F5D1
:102DF00080654FF48060019002200290032001AEB4
:102E0000049028463146FEF7ADF90020CDE90200D6
:102E1000284631460197FEF7A5F9204600210022F9
:102E2000FEF734FB2046FEF71FFB05B0F0BD0000A7
:102E300090F84230202B07D100294FF0010318BF32
:102E4000002A05D11846704702231846704700BF74
:102E500000230363816222218285C285436480F856
:102E600042100169006819B1C16841F48071C16004
:102E7000416941F001014161C16841F02001C16037
:102E800018467047006844F60001C4F20001884209
:102E900018BF704710B540F29004C2F200042178C8
:102EA000622927D862784B1C40F2E800C2F2000089
:102EB000092B237042541FD10178002256294272F7
:102EC00018D141782C2915D144F6AE710230C0F6E4
:102ED0000001FDF7FBFA10B1FDF7EAFAE08044F6D5
:102EE000AE71C0F600010020FDF7F0FA10B1FDF759
:102EF000DFFA20810020207040F2B420611CC2F271
:102F000000000122BDE81040FFF792BF2DE9F04319
:102F100081B0044690F84100202809D100294FF0E3
:102F2000010018BF002A07D101B0BDE8F08300BF3F
:102F3000022001B0BDE8F0830020606421201D461E
:102F40000E4684F841001746FEF720FAA784E7846E
:102F5000A1688146B1F5805F02D1206900285DD06B
:102F600037460020E28C2168002A5DD06A1C24D0FC
:102F7000002D4AD0804600BF0868000608D4FEF73E
:102F800005FAA0EB0900A8427AD82168C868F3E7DF
:102F900017B117F8010B04E038F8020B00276FF3A4
:102FA0005F204860E08C0138E084E08C0028E3D1A9
:102FB0003AE000BF0A68120609D40A68120606D46D
:102FC0000A6812065CBF0A685FEA0262F2D51FB1A6
:102FD00017F8012B05E000BF30F8022B00276FF334
:102FE0005F224A60E28C013AE284E28C002AE4D15A
:102FF0001AE000BF30F8022B00276FF35F224A600F
:10300000E28C013AE284E28C72B10A68120635D58C
:10301000002FEFD017F8012BF1E700BF0027304653
:10302000E28C2168002AA1D1086840061ED42DB385
:10303000681C14D1086840062AD40868400627D4C2
:103040000868400624D4086840064FF00000F1D517
:103050000DE000BF2068C1680068400618D4FEF784
:1030600095F9A0EB0900A842F4D909E0002020213D
:1030700084F8411001B0BDE8F08300BFFEF786F987
:103080000320202184F8411001B0BDE8F08300BF87
:103090000020202184F8411001B0BDE8F083000039
:1030A00070470000FEE70000FEE70000FEE70000BA
:1030B0002DE9F04F83B001F09BFE40F20401C2F213
:1030C00000010969824601F0C7FD40F2900BC2F28F
:1030D000000B0290DBE90D10DBF820600190DBF8BB
:1030E0003C50504601F084FE0146304601F0B4FDEC
:1030F00001F0F0FC47F6E12441F27B42C3F6847410
:10310000C4F2AE72234601F085F901F0A9F8DBF8AC
:1031100040100646084601F0DDFC0746304688466A
:1031200001F0D8FC46F26663C3F6EE734FF06632E8
:1031300001F0E4FA49F6A01249F6991306468946C9
:10314000C9F69912C3F6A9733846414601F0D6FA7A
:1031500032464B4601F0B6F801F082F88046284628
:1031600001F0B8FC40F20409C2F20009D9F81420B9
:1031700005460F465046114601F06EFD01F0AAFCCF
:1031800041F27B46C4F2AE763246234601F0B6FAEF
:103190002A463B4601F096F80546D9F818000F4636
:1031A00001F098FC3246234601F0A8FA0446019843
:1031B0000E4601F08FFC02460B462046314601F0D8
:1031C0009DFA2A463B4601F07DF801F049F8044695
:1031D00002984146CBF834A0CBE90F4801F0A6FC99
:1031E000214601F0A3FC01F003FDB9F90210B9F981
:1031F000002004468842B8BF6FF063049042C8BF05
:103200006424201A01F010FD01462046CBF8381046
:1032100003B0BDE8F08F00002DE9F04F83B001F05E
:10322000E7FD40F20401C2F200014968824601F064
:1032300013FD40F2900BC2F2000B0290DBE9091083
:10324000DBF81C600190DBF82C50504601F0D0FDFB
:103250000146304601F000FD01F03CFC47F6E12458
:1032600041F27B42C3F68474C4F2AE72234601F08D
:10327000D1F800F0F5FFDBF830100646084601F003
:1032800029FC07463046884601F024FC46F2666376
:10329000C3F6EE734FF0663201F030FA49F6A01231
:1032A00049F6991306468946C9F69912C3F6A973D9
:1032B0003846414601F022FA32464B4601F002F808
:1032C00000F0CEFF8046284601F004FC40F20409DD
:1032D000C2F20009D9F8082005460F4650461146AB
:1032E00001F0BAFC01F0F6FB41F27B46C4F2AE7687
:1032F0003246234601F002FA2A463B4600F0E2FF3E
:103300000546D9F80C000F4601F0E4FB324623468F
:1033100001F0F4F9044601980E4601F0DBFB024689
:103320000B462046314601F0E9F92A463B4600F0BB
:10333000C9FF00F095FF044602984146CBF824A04F
:10334000CBE90B4801F0F2FB214601F0EFFB01F065
:103350004FFCB9F90210B9F9002004468842B8BF01
:103360006FF063049042C8BF6424201A01F05CFC33
:1033700001462046CBF8281003B0BDE8F08F0000CE
:103380007047000070470000FEF706B87047000065
:1033900040F29410C2F20000FEF72EBE40F224204C
:1033A000C2F20000FEF728BE406A0021C185C18438
:1033B000FFF7A0B981B090F84210222921D183688B
:1033C0000246B3F5805F09D152F8281F52F8183C25
:1033D000002B63D003685B680AE000BF52F8281F27
:1033E00013B90369002BF5D003685B6803F07F0312
:1033F0000B70116801311160C18D01390A04C1855A
:1034000002D001B0704700BF0168CA6822F02002F4
:10341000CA60CA6822F48072CA604A6922F0010256
:103420004A61202180F8421000214163026B012A89
:103430003CD10163016851E8031F026821F01001CB
:1034400042E80313DBB1016851E8031F026821F071
:10345000100142E8031393B1016851E8031F0268A9
:1034600021F0100142E803134BB1016851E8031F3A
:10347000026821F0100142E80313002BDAD1016841
:103480000A68D20606D5002200920A6800924968AE
:1034900000910099818D01B0FFF72AB90268526846
:1034A0006FF35F2221F8022B8162A5E701B0FFF7DD
:1034B000E9BC000040F26C20C2F20000FFF71CB92A
:1034C00040F2B420C2F20000FFF716B9FEE7000098
:1034D000ACB0FDF76FFF00240120CDE91844CDE921
:1034E00016441790102018904FF4201002251C90BD
:1034F00013A8CDE914441395CDE91A54FEF708F941
:1035000020B1EFF3108072B6FEE700BF0F20CDE9C7
:1035100004054FF4A060CDE9070004A8012106943A
:103520000125FDF7EFFF28B1EFF3108072B600BF61
:10353000FEE700BF002741F21800CDE91577CDE97D
:103540001377C4F20200016840F6000941F020013F
:1035500001600168C4F2010901F02001049104999D
:103560000168002241F00401016001684FF0030B83
:1035700001F0040104910499016841F0080101601F
:103580000068032100F00800049004984846FDF705
:10359000F7FE09F58064204618210022FDF7F0FEB1
:1035A00013AE4FF0020A48463146CDE913B51597E0
:1035B000CDF858A0FDF7D6FD302040F2000813905A
:1035C000C1F2310848463146CDE91485FDF7CAFD00
:1035D00020463146CDE913B81595FDF7C3FD1820F7
:1035E00013A981E8A10420463146FDF7BBFD062062
:1035F00000210022FDF74AFF0620FDF735FF0720D6
:1036000000210022FDF742FF0720FDF72DFF0A20D1
:1036100000210022FDF73AFF0A20FDF725FF1720C1
:1036200000210022FDF732FF1720FDF71DFF40F2B9
:103630004C1009F51051C2F2000064231197CDE936
:103640000F77CDE90C77CDE91977CDE91777CDE97B
:103650001577CDE913770B2280E88600C0E90337A0
:10366000C0E90577FEF7D4FA20B1EFF3108072B607
:10367000FEE700BF4FF480500E9040F24C10C2F2B3
:1036800000000EA9FEF7E6FB20B1EFF3108072B642
:10369000FEE700BF40F24C10C2F20000FEF79AFEB7
:1036A00020B1EFF3108072B6FEE700BF40F24C107D
:1036B000C2F200000CA9FEF76BFA28B1EFF31080FC
:1036C00072B600BFFEE700BF602004900020CDE985
:1036D0000500CDE90700CDE9090040F24C10C2F227
:1036E000000004A90022FEF773FD28B1EFF310805B
:1036F00072B600BFFEE700BF40F24C10C2F20000FD
:1037000004A90422FEF764FD20B1EFF3108072B625
:10371000FEE700BF4FF40050189040F24C10002517
:10372000C2F2000013A91795CDE91555CDE913553F
:103730001A95FEF707FA28B1EFF3108072B600BFB2
:10374000FEE700BF40F24C10C2F20000FEF7FCFCA6
:1037500040F29410C2F200004FF080410923169508
:10376000CDE91455CDE9045545F6BF5280E8260051
:10377000C0E903358561FEF74BFA28B1EFF31080FD
:1037800072B600BFFEE700BF4FF48050139040F2C6
:103790009410C2F2000013A9FEF75CFB20B1EFF316
:1037A000108072B6FEE700BF40F29410C2F2000033
:1037B00004A9FEF7EDF918B1EFF3108072B6FEE739
:1037C00040F2DC100021A9F58232C2F200000B2386
:1037D00064270791CDE90511CDE90E11CDE9181146
:1037E000CDE91611C0E90023C0E90217016181612A
:1037F000FEF70EFA20B1EFF3108072B6FEE700BFBD
:103800004FF48050049040F2DC10C2F2000004A992
:10381000FEF720FB20B1EFF3108072B6FEE700BF89
:1038200040F2DC10C2F20000FEF7D4FD20B1EFF34D
:10383000108072B6FEE700BF40F2DC10C2F200005A
:103840000EA9FEF7A5F918B1EFF3108072B6FEE7E6
:10385000602013900020CDE91400179040F2DC1096
:10386000C2F2000013A90022FEF7B2FC20B1EFF370
:10387000108072B6FEE700BF40F2DC10C2F200001A
:1038800013A90422FEF7A4FC20B1EFF3108072B656
:10389000FEE700BF40F2DC10C2F20000FEF754FC6D
:1038A00040F224200021A9F58032C2F2000045F642
:1038B000BF5309271691CDE91411CDE90411C0E9D0
:1038C0000023C0E9021701618161FEF7A1F918B177
:1038D000EFF3108072B6FEE74FF48050139040F281
:1038E0002420C2F2000013A9FEF7B4FA20B1EFF3CE
:1038F000108072B6FEE700BF40F22420C2F2000042
:1039000004A9FEF745F918B1EFF3108072B6FEE78F
:1039100040F2B420A9F54041C2F200000027042281
:103920004FF4E13580E8A200C0E90377C0E905273C
:10393000C761FFF799F918B1EFF3108072B6FEE78F
:1039400040F26C20A9F54441C2F20000082280E850
:10395000A200C0E90377C0E90527C761FFF784F932
:1039600020B1EFF3108072B6FEE700BF40F2900A7C
:10397000C2F2000A40F2B4200AF10101C2F20000D2
:103980000122FFF755FA40F24C17C2F20007384601
:103990000021FEF7A1FD38460421FEF79DFD40F20F
:1039A0009410C2F20000FEF71DFA484602210122DF
:1039B000FDF7E6FC484601210122FDF7E1FC40F25B
:1039C000DC15C2F2000528460021FEF785FD2846D9
:1039D0000421FEF781FD204610210122FDF7D0FCD5
:1039E000204608210122FDF7CBFC44F69E7840F2E8
:1039F0006C29C0F6000813ADC2F200096420FDF77F
:103A00008FFBBAF90840DAE91407E61701F062F80B
:103A10000B460290284641463A46CDE900460393BC
:103A2000FCF706FC82B2484629464FF0FF33FFF709
:103A30006DFADAF854006430CAF85400DEE75FEA41
:103A4000400C08BF91F0000F4FEA8C234FEAC122CF
:103A500043EA51514FEA1C5018BF00F5F0404FEABD
:103A6000300018BF41F000415FEA6C5C00F0298033
:103A7000BCF1FF3F08BF40F080407047130C06BF09
:103A800012044FF0100C4FF0000C130E04BF120282
:103A90000CF1080C130F04BF12010CF1040C930F6E
:103AA00004BF92000CF1020CD30F04BF52000CF1C2
:103AB000010C11464FF00002A0F11F00A0EB0C001A
:103AC000704711F0004F08BF704731F000413FF4DC
:103AD000D5AF0B0C06BF09044FF0100C4FF0000CD3
:103AE0000B0E04BF09020CF1080C0B0F04BF0901F7
:103AF0000CF1040C8B0F04BF89000CF1020CCB0FEE
:103B000004BF49000CF1010CCCF1200322FA03F3AD
:103B100041EA030102FA0CF2A0EB0C0000F10100F3
:103B20007047000023F07F4720F07F4C80EA0300BD
:103B300000F00040ACEB070303F57C5303F1FF03F7
:103B40002DE9804909B44FEA144324EA03484FEAB7
:103B5000154B25EA0B4E0FF2042606EB13273E7891
:103B600003FB0667C7F5000707FB06F64FEAD646D4
:103B700006F102064FEA543707FB066CCCF1005CF5
:103B80004FEA1C472CEA074C0CFB06F507FB06F432
:103B900004EB15464FEA961649085FEA320234BF35
:103BA00000204FF000404FEAD13706FB07FC4FEAF8
:103BB0001C4C0CFB0BF7D21B03FB0CF761EB070152
:103BC0000CFB0EF7B0EB074072EB17420CFB08F74B
:103BD00034BFA2EB0742B2EB074261EB17414FEA59
:103BE0000C444FEA910706FB07FC4FEA1C4C0CFB08
:103BF0000BF7B0EBC74072EB573203FB0CF734BF47
:103C0000A2EBC742B2EBC74261EB57310CFB0EF798
:103C1000B0EBC70072EB57720CFB08F734BFA2EB96
:103C2000C702B2EBC70261EB57714FEA816141EA0B
:103C300092114FEA826242EA90124FEA806004EBEE
:103C4000CC04039F4FEAD13706FB07FC4FEA1C4C1C
:103C50000CFB0BF7D21B03FB0CF761EB07010CFB12
:103C60000EF7B0EB074072EB17420CFB08F734BFBE
:103C7000A2EB0742B2EB074261EB17414FEA8C55CA
:103C800004EB9C244FEA910706FB07FC4FEA1C4C0F
:103C90000CFB0BF7B0EBC74072EB573203FB0CF792
:103CA00034BFA2EBC742B2EBC74261EB57310CFB0A
:103CB0000EF7B0EBC70072EB57720CFB08F734BF7E
:103CC000A2EBC702B2EBC70261EB57714FEA816109
:103CD00041EA92114FEA826242EA90124FEA806012
:103CE00015EB4C2544F100044FEAD13706FB07FCE5
:103CF0004FEA1C4C0CFB0BF7D21B03FB0CF761EBE0
:103D000007010CFB0EF7B0EB074072EB17420CFB00
:103D100008F734BFA2EB0742B2EB074261EB174151
:103D20004FEA813141EA92414FEA823242EA9042BF
:103D30004FEA80304FEA0C7615EB1C1544F1000475
:103D400048EA03434EEA0B484FF0000EB2EB080C72
:103D500071EB030724BF624639464EEB0E0E4FF05F
:103D6000000B0018524149414BEB0B0BB2EB080C16
:103D700071EB03077BF1000B24BF624639464EEB23
:103D80000E0E4FF0000B0018524149414BEB0B0B4C
:103D9000B2EB080C71EB03077BF1000B24BF62460A
:103DA00039464EEB0E0E51EA020718BF46F00106E7
:103DB00016EB0E7655F1000254F1000103D5BDE873
:103DC0008901BDE80088BDE88901BDE80048B61951
:103DD000524141EB0101A3F10103704780807F7ED6
:103DE0007D7C7B7A79787776767574737271717071
:103DF0006F6E6E6D6C6C6B6A6A6968686766666523
:103E00006464636362616160605F5F5E5E5D5D5CB0
:103E10005C5B5B5A5A595958585757565655555521
:103E20005454535352525251515050504F4F4F4E81
:103E30004E4D4D4D4C4C4C4B4B4B4A4A4A494949CF
:103E40004848484747474746464645454544444411
:103E50004443434343424242424141419C46002B3A
:103E600030D477002BD04FEA37071CB503B44FF09E
:103E700010004FF01001BAF1000F06D0BCF1000F96
:103E8000DCBF40F0080040F008014FF000000FBC1C
:103E9000BDE810400BF1010BBBF1010F08BF5FEA59
:103EA000170722BF12F1010211F101014FF0004189
:103EB00043F1000300F0004043EA00007047F9D3EB
:103EC0005708D0E746EA06464FEA164613F1400F78
:103ED0001FDD13F1200FDFBF16430A4600212033F8
:103EE0005B42BED0C3F1200746EA06464FEA1646BB
:103EF00002FA07F746EA070622FA03F2C3F120079F
:103F000001FA07F742EA070221FA03F14FF0000332
:103F1000A7E746EA020646EA06464FEA164646EA9A
:103F20000106BCBF46EA0646360C4FF000034FF0D0
:103F300000024FF0000194E72DE9804C70B49A46DE
:103F4000934691E8380007C831EA400C48BF34EA8C
:103F5000430C03D5FFF7E6FDFFF780FFF0BCBDE89B
:103F6000008C2DE9804C70B49A46934691E8380055
:103F700007C810F0804F08BF13F0804F03D100F046
:103F800005F8FFF76BFFF0BCBDE8008C20F07F4721
:103F900023F07F4C80EA030000F0004007EB0C03A5
:103FA000A3F57C53A3F1FE0392F0000F00F0B38061
:103FB00095F0000F00F077802DE901494FEA11409C
:103FC00021EA00484FEA144624EA064700FB06FCB3
:103FD00008FB06F607FB08F818EB06484CEB164CF6
:103FE00000FB07F718EB07484CEB17404FEA124B62
:103FF00022EA0B4E4FEA154625EA06470BFB06FC64
:104000000EFB06F607FB0EFE1EEB064E4CEB164CA7
:104010000BFB07F71EEB074E4CEB174B18EB0B088F
:1040200040F1000018EB0E0B58EB000840F10000C7
:104030008F1A4FF000014FF000063CBFC943661BCA
:1040400014BFB5EB040C00213CBFC943F61B4FEA7B
:10405000174427EA04454FEA1C472CEA074C04FBA7
:10406000076205FB07F70CFB05F616EB074642EB6C
:10407000174204FB0CFC16EB0C4642EB1C421BEBFC
:10408000060658EB020241414EEA8E0E46EA9E06B3
:1040900001D5BDE80189B619524141EB0101A3F1F7
:1040A0000103BDE801894FEA144524EA05464FEAB9
:1040B000114721EA074C05FB07F406FB07F70CFB49
:1040C00006F111EB074144EB174405FB0CFC11EB27
:1040D0000C4144EB1C444FEA124722EA074C05FB13
:1040E00007F206FB07F70CFB06F616EB074642EB5A
:1040F000174205FB0CFC16EB0C4642EB1C456A18FC
:1041000054F1000148BF7047B619524141EB01011B
:10411000A3F10103704795F0000F37D04FEA114229
:1041200021EA02464FEA144724EA074C02FB07F152
:1041300006FB07F70CFB06F414EB074441EB1741B1
:1041400002FB0CFC14EB0C4441EB1C414FEA1547FD
:1041500025EA074C02FB07F506FB07F70CFB06F602
:1041600016EB074645EB174502FB0CFC16EB0C461D
:1041700045EB1C42121951F1000148BF7047B619B6
:10418000524141EB0101A3F1010370474FEA14458D
:1041900024EA05464FEA114721EA074C05FB07F1DF
:1041A00006FB07F70CFB06F212EB074241EB174147
:1041B00005FB0CFC12EB0C4251EB1C414FF00006CE
:1041C00048BF7047921841EB0101A3F1010370470A
:1041D000490050EAC12018BF04204A0D18BF40F022
:1041E000010040F2FF72B2EB515F08BF40F00200E5
:1041F000012808BF0520704730380A2801D2012065
:10420000704700207047000010B500290AD00878D8
:10421000002807D005487844FCF7F6FD002801D0B7
:10422000002010BD0248784410BD0000BA0D000007
:10423000B20D000010B500290AD00878002807D078
:1042400005487844FCF7E0FD002801D0002010BDAF
:104250000248784410BD0000AA0D0000A20D000025
:1042600021F0004201F00043A2F16052B2F5801F3C
:1042700028BFD2F17F6C0BD95FEA001C43EAC2026F
:1042800042EB507018BF704728BF20F00100704704
:10429000B2F5801FBCBF184670474FEA410C1CF5B1
:1042A000001F02D2084600F09EBD70B500F0D0FAA3
:1042B00000000089FFF7F6BF4FF00040A0F5800036
:1042C0007047000010B591EA030F48BF83F0004328
:1042D00000F11A83841A71EB030C05D2121943EB17
:1042E0000C03001B61EB0C014FEA1154A4EB135CAF
:1042F000DFF81CE11EEA430F18BF9EEA445F00F09E
:10430000748021EA045123EA0E0343F48013DCF1A4
:10431000200E32D322FA0CFE10EB0E0023FA0CFE14
:1043200041EB0E01CCF1200E03FA0EFE10EB0E0055
:10433000CCF1200E51F10001B1F5801F32D201EB1A
:10434000045112FA0EF2BDE8104058BF7047401CED
:1043500038BF5FEA420218BF7047002814BF20F040
:10436000010041F100014FEA410313F5001F38BF7E
:104370007047A1F1C04100F0B9BA012A43EB030232
:10438000ACF1200CDCF11F0E32BF4FF0000E23FA0F
:104390000CF310EB030041EB0451B4EB115FD0D0F0
:1043A000A1EB045101F58011490801EB04515FEACA
:1043B00030000ED350F1000038BF12FA0EFE08D1C3
:1043C000BDE81040C9E7401C38BF5FEA4202CAD1CD
:1043D000C3E7BDE810404FEA410313F5001F38BFA3
:1043E0007047A1F1C04100F081BA9EEA445F08D055
:1043F00011EA5E0FBDE8104004BF01F0004100204B
:104400007047BDE8104070B500F022FA64FBBE3E74
:104410000000E0FF2DE9C04130B4DFF8A8C23CEA5B
:10442000111418BF3CEA131400F0F0801CEA1114B8
:1044300081EA030544EAD57418BF1CEA131500F09D
:10444000CB80A4EB050404F17F7404F500344FF035
:10445000004545EAC12145EAC32341EA505143EAF8
:1044600052534FEAC0204FEAC222994208BF9042FD
:1044700000F0A0804FEA13650FF24816765D4FEA10
:10448000134506FB05F7C7F1807706FB07F74FEAF0
:10449000D737A7FB03687642A7FB06CEC8F580385E
:1044A00038BFA8F1010807FB08E6A6FB028C4FF015
:1044B000000EE6FB03CED8F100086FEA0C0C5CF1AD
:1044C000000C6FEA0E0E4EF1004EA6FB0C584FF09A
:1044D0000007E6FB0E87A1FB08C6A0FB07CE16EB84
:1044E0000E064FF0000545F10005E1FB076515F1EB
:1044F000E04E7EBFA4F580345FEA46066D4116F1BA
:10450000800745F100054FEA172747EA05674FEA9C
:1045100015254FEA0666A6F1DE46B6F1805F20D982
:10452000384605EBC47124F0010C01EB0C11BCF111
:10453000FE6F02D8F0BCBDE8008124425CBF01F5EB
:10454000801E9EEAC47F02D4F0BCBDE800812442F4
:1045500000F13980A1F1C041F0BCBDE8004100F09C
:10456000C5B94FEAD02040EA41504FEAD1214FEA85
:10457000D22242EA43524FEAD323A7FB028607FB2B
:10458000036605FB02661EEA0E0F58BFA6EB005637
:10459000B6EB00564FEA520E4EEAC37E18EB0E0EF3
:1045A00056EB530EBCD518EB02085E417F1C55F14B
:1045B0000005B5E74FF480154FF000074FF00006F7
:1045C0004FF00008ACE701F1C04101F000414FF0AD
:1045D0000000F0BCBDE800810CEA131511EA0C1FC5
:1045E00000D00CE013EA0C1F00F025804FF0000013
:1045F00081EA030101F00041F0BCBDE80081F0BC9C
:10460000BDE8004181EA030100F070B9F0BCBDE8EB
:10461000004170B500F01CF9097EFC3E00F007B8BF
:104620004FF0000081EA030101F00041704781EA88
:10463000030100F05BB9F0BCBDE8004122494FF036
:1046400000007047FFFDFBF9F7F5F4F2F0EEEDEB3B
:10465000E9E8E6E4E3E1E0DEDDDBDAD8D7D5D4D380
:10466000D1D0CFCDCCCBCAC8C7C6C5C4C2C1C0BFCC
:10467000BEBDBCBBBAB9B8B7B6B5B4B3B2B1B0AFD2
:10468000AEADACABAAA9A8A8A7A6A5A4A3A3A2A1B6
:10469000A09F9F9E9D9C9C9B9A9999989797969571
:1046A00095949393929191908F8F8E8E8D8C8C8B0D
:1046B0008B8A898988888787868585848483838295
:1046C000828181800000FF070000F87F10F0004227
:1046D00048BF4042B0FA80F310FA03F10AD0C3F1A8
:1046E0001D0303F5806302EB03524FEA415002EBD6
:1046F000D12170474FF000007047000070B5DFF81F
:1047000048C11CEA111E1EBF1CEA13159EEA0C0FBD
:1047100095EA0C0F00F06F8081EA03044EEAD47E24
:10472000AE4421EA4C1123EA4C1341F4801143F4C6
:104730008013AEF17F7EA1FB024CA0FB036536190E
:1047400055EB0C05A1FB034C4CF10003A0FB021C34
:1047500016EB0C06654153F10003094218BF46F001
:10476000010613F4007F0BD14FEA03314FEA053005
:1047700041EA155140EA165034036FF003020AE093
:104780004FEAC3214FEAC52041EA555140EA56504D
:10479000F4026FF0020202EB2E4201EB025585EAB1
:1047A000CE710AD05FEA440C18BF24F0004450F1E7
:1047B000000041F1000120EAD47040F2FE7C624525
:1047C00000D270BDA84214BF4FF080444FF0404467
:1047D000002E08BF0024BEF1806FA8BFA1F1C04128
:1047E000BDE8704080F2828001F1C04101F00041DB
:1047F0004FF0000070470CEA13159EEA0C0F18BF2B
:1048000095EA0C0F06D081EA030E4FF000000EF07F
:10481000004170BD00F01CF88900013E00F007B8AF
:1048200000F009B84FEA430C5FEA5C5C08D081EA0B
:10483000030100F05BB84FEA410C5FEA5C5CF6D123
:1048400002494FF0000070470000FF070000F87FAA
:104850000EF1020E2EF0030E5EF8046B364205D404
:10486000012A43EB030515F5001F12D8012841EB7F
:10487000010C1CF5001F0CD80ED14FEAD17C0CEBBB
:104880004C0C0CF1020C15F5001F08BF4CEBD37C4F
:1048900004E04FF0080C01E04FEAD37C0CEB4C0530
:1048A00026FA05F606F00706B6F1040C06D20EEB62
:1048B000860CBDE870404CF0010C6047DFE80CF05E
:1048C000090B02024FF00041A1F500214FF000005A
:1048D00070BD19461046012851EB010418BFD4F5EC
:1048E000001484BF002001F0004170BD0808A0F54D
:1048F00000114FEA3101704710B591EA030F48BF2C
:1049000083F000433FF5E6AC841A71EB030C07D249
:104910008CF0004C121943EB0C03001B61EB0C01F3
:104920004FEA1154A4EB135CDFF8A4E11EEA430F35
:1049300018BF9EEA445F00F0B48021EA045123EAE4
:104940006E035242C3EB6E0338BF5B1EDCF1200ED8
:1049500025D322FA0CFE10EB0E0043FA0CFE41EBBD
:104960000E01CCF1200E03FA0EFE10EB0E00CCF17E
:10497000200E51F1000129D401EB045112FA0EF27C
:10498000BDE8104058BF7047401C1CBFB2F1004F3B
:10499000704700280CBF491C20F00100704712EB43
:1049A000020E43EB030218BF4FF0010E4EEA420223
:1049B000ACF1200CDCF11E0E56D943FA0CFE10EBC4
:1049C0000E00CCF11E0E51F1FF31D5D50EF1010EC6
:1049D00012FA0EFE404141EB010101EB445C5FEA3B
:1049E0005C5C10D901EB045110EBDE7038BFBEF1F6
:1049F000004FBDE8104018BF704700280CBF491C8D
:104A000020F00100704734D24FEAD42C24F4006423
:104A100011F500111BD0B1FA81F20B3AA41AA41EB1
:104A2000D2F12003914030FA03F31943904001EB97
:104A3000CC7101EB0451002CBDE81040A8BF7047B9
:104A400001F1C04101F000414FF000007047B0FAA1
:104A500080F310FA03F102D1BDE810407047E41A68
:104A6000173C4805C90AE2E701EB0451BDE81040D4
:104A7000704749104FEA300001EB0451BDE8104087
:104A800002E04FF0000170474A0008BF0042F8D032
:104A9000B2F5001F28BF704701F000414FF0000041
:104AA00070479EEA445F07D011EA5E0FBDE81040F0
:104AB00004BF002100207047BDE8104070B5FFF72B
:104AC000C7FE00BF40DFF63E104683F0004170474E
:104AD0000000E0FF43004FEAD30C4FEA3C0C434098
:104AE0001FBF40070CF1605113F0FE4F70471CF0E0
:104AF000006F03D10CF00041002070470CF0004320
:104B000043EA507040EACC0010B500F026F900BF2F
:104B1000000000924FEA0001FFF7E8BE4FF00041AD
:104B2000A1F500214FF000007047000090EA010F4E
:104B300048BF81F0004100F16281421A3CBF801AF7
:104B400089184FEAD052A2EBD1534FF07F4C1CEAA8
:104B5000410F18BF9CEA026F00F03B804FF0004C01
:104B60004CEA00204CEA012121FA03FC10EB0C0C6A
:104B70001ED202F1FF325FEA1C2040EBC25038BF68
:104B800070471CF07F0F4FEA400C18BFBCF17F4FFD
:104B900038BF7047C3F12003994008BF20F00100DF
:104BA000BCF17F4F38BF7047A0F1C04000F01BB987
:104BB0004FEA3C00000A40EBC25028BF1CF0FF0F38
:104BC0004FEA400CE6D018BFBCF17F4F38BF7047AA
:104BD000EAE79CEA026F05D010EA5C0F08BF00F01C
:104BE0000040704710B500F0B8F800BF64FBBE3E4F
:104BF00041000B0ED3F19E0208D950F400034FEA96
:104C0000032323FA02F048BF4042704710B500F07A
:104C1000A4F800BF49922480002070476FF0004242
:104C200082EA20007047000010F0004148BF404277
:104C3000B0FA80F310FA03F2C3F19D030BD051EAEE
:104C4000C35101EB1220530638BF704700F1010039
:104C500008BF20F0010070474FF47F0C1CEAD0120F
:104C60001EBF1CEAD11392EA0C0F93EA0C0F00F05E
:104C7000478090EA010F48BF42F480724FF0004C29
:104C80004CEA00204CEA012102EB0302A0FB0113D5
:104C9000A2F50002002918BF43F001035B0028BF02
:104CA0004FEA330342EB22425FEA132C4CEBC25033
:104CB0002EBFBCEB436FB2F57C0F70474FEA036C1D
:104CC000BCF1004F08BF20F00100B2F57C0F38BFE7
:104CD00070470BD582F0FF0212F5803FC8BF7047C6
:104CE00000F1C040D8BF00F00040704700F5000C54
:104CF0005FEA4C0C48BF7047B0F1C04000F073B899
:104D00000CEAD11390EA010F48BF42F48072624569
:104D100038BF634504D280EA010000F000407047CC
:104D200010B500F01AF800BF8900013E00F007B886
:104D300000F009B85FEA410C5FEA1C6C08D080EA19
:104D4000010000F050B85FEA400C5FEA1C6CF6D13D
:104D50004FF00040A0F5800070470EF1020E2EF0DB
:104D6000030E5EF8044B244204D44FEA4102B2F130
:104D70007F4F11D84FEA4003B3F17F4F0CD80ED1CB
:104D80004FEAD07C0CEB4C0C0CF1020CB2F17F4FD3
:104D900008BF4CEBD17C04E04FF0080C01E04FEA77
:104DA000D17C0CEB4C0324FA03F404F00704B4F1B7
:104DB000040C06D20EEB840CBDE810404CF0010C44
:104DC0006047DFE80CF0070802024FF00040A0F552
:104DD000800010BD0846420018BFD2F1807288BF23
:104DE00000F0004010BDFF2141EAD050C0057047DF
:104DF00090EA010F48BF81F000413FF59EAE421A94
:104E000004D882F00042A0EB020011444FEAD052D5
:104E1000A2EBD1534FF07F4C1CEA410F18BF9CEA24
:104E2000026F4AD04FF0004C4CEA00204CEA0121BE
:104E300021FA03FCB0EB0C0C0FD412F0FE0F36D0AD
:104E40005FEA4C001DD5001240EBC25038BF7047DE
:104E50001CF03F0F18BF70470BE05FEA1C20A2F167
:104E6000010240EBC25038BF70471CF07F0F18BFE3
:104E70007047C3F12003994014BF401E20F0010089
:104E800070474FEA1223800808BF7047B0FA80FCD1
:104E9000A2EB0C02CCF1280C60FA0CF093EA122F72
:104EA00004BF00EBC25070474FEAC3707047130A4B
:104EB0005FEADC1008BF7047F6E79CEA026F04D097
:104EC00010EA5C0F08BF0020704710B5FFF745FFE0
:104ED00040DFF63E81F000407047FBF77BBC0000EE
:104EE00002400000000000A000000000054000009B
:104EF000000000C8000000000C4000000000409CC2
:104F000000000000194000000020BCBE00000000AE
:104F100034400000BFC91B8E00000004B5400000F3
:104F2000504BCFD06607E2CF010000006C4100007B
:104F30003E8251AADFEEA73401000000D9420000F2
:104F4000DCB5A0E23A301F97FFFFFFFFB445000039
:104F5000FD25A0C8E9A3C14FFFFFFFFFFF3F0000F1
:104F60000000008000000000FF3F00000000008003
:104F70000000000000000000000000000102030427
:104F800006070809000000000102030401020203F1
:104F90000405060708090A0B0C0D0E0F1010256CEE
:104FA000752C256C6C642C252E32660D0A002C00A5
:104FB00000510008000000203000000050010008EF
:104FC0003051000830000020D008000070010008B7
:104FD0001C00000043000000F8FFFFFF0C00000071
:104FE0000E0000000F0000002E0000001001000065
:104FF00043000000F8FFFFFF0040404040404040B9
:10500000404041414141414040404040404040409B
:10501000404040404040404040050202020202023F
:10502000020202020202020202202020202020208E
:1050300020202002020202020202909090909090A2
:105040001010101010101010101010101010101060
:1050500010101010020202020202888888888888D4
:1050600008080808080808080808080808080808C0
:1050700008080808020202024000000000000000C8
:105080000000000000000000000000000000000020
:105090000000000000000000000000000000000010
:1050A0000000000000000000000000000000000000
:1050B00000000000000000000000000000000000F0
:1050C00000000000000000000000000000000000E0
:1050D00000000000000000000000000000000000D0
:1050E00000000000000000000000000000000000C0
:1050F00000000000000000000000000000000000B0
:105100000000000064009CFFCDCC4C3E0000A0409D
:105110000000C842CDCC4C3E0000A0400000C84278
:10512000010000001000000000127A0000000000E2
:04000005080000ED02
:00000001FF
