:020000040800F2
:1000000070080020D9010008952C00088D2C0008EC
:10001000912C0008910B0008312F0008000000000F
:10002000000000000000000000000000012E000899
:10003000950B000800000000FD2D0008052E0008AB
:10004000F3010008F3010008F3010008F3010008C0
:10005000F3010008F3010008F3010008F3010008B0
:10006000F3010008F3010008990B0008F3010008F0
:10007000F3010008F3010008F3010008F301000890
:10008000F3010008F3010008F3010008F301000880
:10009000F3010008F3010008F30100081D0C00083B
:1000A000F3010008F3010008F3010008F301000860
:1000B0000D2E0008F3010008F3010008F301000809
:1000C000F3010008F3010008F3010008F301000840
:1000D000F3010008252F0008F3010008F3010008D0
:1000E000F3010008F3010008F301000800F002F832
:1000F00000F063F814A696E8000CB244B344DA4565
:1001000001D100F05AF8BAE80F000FA696E83000C7
:10011000A5EB040504EB0607AAEB0704A7F101070A
:100120004FEA15154FEA3414A4F10104AC4201D38F
:1001300000F043F813F0010F18BFFB1A43F001035E
:1001400000F001F8DBE71847EC4600000C47000020
:10015000103A24BF78C878C1FAD8520724BF30C8F3
:1001600030C144BF04680C60704700007047000055
:100170000023002400250026103A28BF78C1FBD8B0
:10018000520728BF30C148BF0B607047662904F092
:10019000EE82002070471FB500F02AFB040000200B
:1001A000002103F07FFC401C60600020002103F070
:1001B00063FCE0601FBD10B510BD00F065FC11468A
:1001C000FFF7E9FF02F0B6FE00F091FC03B4FFF781
:1001D000F2FF03BC00F0D4FC0948804709480047FF
:1001E000FEE7FEE7FEE7FEE7FEE7FEE7FEE7FEE7E7
:1001F000FEE7FEE704480549054A064B7047000044
:10020000092E0008ED000008700200207008002090
:1002100070040020700400200FB41CB5074B06AA20
:100220007B4469460090059800F085FA00206946F5
:1002300000F094FA1CBC5DF814FB000039050000C6
:100240002DE9F0410E460446002020622046E16878
:10025000884730B3252805D0D4E901219047206A8A
:10026000401CF2E7E168204600278847050018D0C7
:10027000A5F14100192802D820354FF40067324615
:10028000294620462760FFF781FF40B1012804D0AE
:10029000F61D26F007060836D8E7361DD6E72846AD
:1002A000DAE7206ABDE8F08170B5064600F02CF868
:1002B0000468054630460A22002100F054FA2C60FA
:1002C00070BD10B5431C02E010F8011B71B181072D
:1002D000FAD14FF0013202C88C1A8C4314EAC211D1
:1002E000F9D0C01A0A0603D0C01E10BDC01A10BD36
:1002F0000A0401D0801E10BD0902FCD0401E10BDB2
:100300007047704770470000004870472000002089
:100310002DE9FF4F0C461E464FF0FF378BB0D2E958
:100320000001DDF860800A908A46C1F30A5505B9DC
:100330003D46002108464FF00000BAF1000F00F4DE
:10034000400005DA00EB80004FF4400101EA500064
:100350004FEA9059B9F1010F00DDB9460A9850EA09
:100360004A000ED044F61050A5F2FF3545432F1435
:10037000B8F1000F1ED07542291E1EDDC9F1000222
:100380001CE0B8F1010F4FF0000001D0302103E074
:10039000F24305E02154401CB042FBDB3046002212
:1003A000002121540B99C1F80880C1E900200FB049
:1003B000BDE8F08FBD1B6D1CDEE74A4600DA6942DE
:1003C00006A800F0EFFA06AB93E8070003AB83E85A
:1003D000070050460A9902F073FF8DE80700A0F568
:1003E00000501F3800900398002D0ADD42F21F01D3
:1003F0004A460844002303A90390684603F0DCF949
:1004000009E0A0F500504A461F38002303A90390D5
:10041000684603F0E6F98DE807000004000C03D0FD
:100420004FF0FF30410800E01046B8F1000F03D054
:100430000022009215461EE0751E05D400F0DCF97E
:10044000303262556D1EF9D5B3460122084302D001
:1004500000227F1C04E02078302801D100227F1E7A
:10046000002A099784D01DE0112D07DA00F0C4F9A5
:10047000303262556D1C50EA0102F5D1084302D0BA
:100480000098C8B10EE00021681E05E0235C625CA4
:1004900063542254401E491C8142F7DBAB46A81B23
:1004A000401E0990002004F80B000B98099AC0F830
:1004B0000880C0E9002B7AE711264FF0000857E7C3
:1004C0002DE9F04F88460446D21D22F0070191B075
:1004D000D1E90001CDE90A0103F0BAFA02460B980E
:1004E000C00F01D02D2007E02068810701D52B2007
:1004F00002E0202101EAC000032A099001D0072A66
:1005000005DB03464146204600F0BCF90BE12078AC
:10051000800601D5E06900E00620B8F1650F81464C
:1005200006D0B8F1660F18D0B8F1670F70D131E07E
:100530000020B9F1110F009001DB112301E009F156
:1005400001030AAA01A90CA8FFF7E2FEDDE90C707D
:10055000002609F10105834647E001204B46009043
:100560004FF000470AAA01A90CA8FFF7D1FEDDE968
:100570000DB00C995D46002610B909F101000D1867
:10058000B9EB050003D4C0F1FF3609F10105A5EB75
:1005900009002BE0B9F1010F01DA4FF00109002049
:1005A000B9F1110F0090484601DD112300E0034628
:1005B0000AAA01A90CA8FFF7ABFEDDE90C704D46B5
:1005C00000268346207800070AD4AB4500DA5D4652
:1005D00001A8012D04DD411911F8011C302907D0B3
:1005E0004F4502DA17F1040F04DA012082460FE0CA
:1005F0006D1EEEE7002F02DCED1B3E4403E0781C8D
:10060000A84200DD7D1CB81B00F1010A4FF0004735
:100610002078000703D4AA4501DB4FF0FF3A002100
:10062000B7F1004F0DF143088DF8431024D002209C
:100630002B23002F01DA7F422D230A21021EA0F175
:10064000010000DC5FB197FBF1FC97FBF1F201FBCD
:100650001C7C17460CF1300C08F801CDEEE7A8F130
:10066000010003702188090501D5452100E06521BD
:10067000A0F1010800F8011C09980FA9A1EB0807D7
:10068000FF1D00B10120411901EBEA70A169384456
:10069000081A401EA0612078C00602D42046AFF39D
:1006A0000080099828B1D4E901219047206A401CB4
:1006B00020622078C00622D52046AFF300801EE0DD
:1006C000002E04DBB34502DD01A8805D00E0302090
:1006D000D4E901219047206A401C2062761CAAF1CF
:1006E00001005FEA000A0AD100F082F8C0680168E0
:1006F000405CD4E901219047206A401C2062281EFA
:10070000A5F10105DCDC07E0D4E9012118F8010BB3
:100710009047206A401C2062381EA7F10107F3DCD5
:100720002046AFF30080032011B041E601694A1C66
:1007300002610878704700B58FB0CDE90131002122
:10074000059105497944CDE9031011466846FFF744
:1007500077FD0FB000BD0000E5FFFFFF0A6802F85B
:10076000010B0A6070472DE9F04791460F4680461D
:100770000446002614F8015B2DB100F031F8006842
:10078000405DC007F6D12B2D02D02D2D18D0641E50
:100790004A463946204600F0B5F827B13968A142EB
:1007A00001D1C7F800804FF0020471050BD540421B
:1007B000002803DDFFF7A8FD0460A007BDE8F0876F
:1007C00046F48066E4E70028F8DAFFF79DFD046050
:1007D0006FF00040F2E70000004870472000002062
:1007E00010B500F005F8001D10BD00BFB9320000C3
:1007F000004870474000002030B5B0F10A0271F1A6
:1008000000034FEA900E4EEA817EB0EB0E0061EBE2
:1008100091014FEA101E4EEA017E10EB0E0041EBF3
:1008200011114FEA102E4EEA016E10EB0E0041EB53
:1008300011214FEA104E4EEA014E10EB0E0041EB33
:100840001141401841F100014FEAD00040EA4170E7
:100850004FEAD1014FEA810444EA907410EB80051D
:1008600044EB01046D1944EB0404521BA3414FF007
:10087000000348BF0A3200D530BD401C41F10001E1
:1008800030BD00002DE9F0411F46044603260168F3
:10089000072A01F4006004DB08B116A505E016A5DF
:1008A00003E008B115A500E015A521F010002060B7
:1008B000A069C01EA0610FB1401EA0612046AFF329
:1008C00000804FB1D4E9012138469047206A401C8E
:1008D0002062C01C206206E0206AFAE7D4E9012108
:1008E00015F8010B9047761EF8D22046AFF3008032
:1008F000BDE8F0814E414E006E616E00494E4600EB
:10090000696E66002DE9F05F824615468B4600272A
:100910000AF10104B9460078302801D09DB113E0F6
:1009200014F8010B0127782803D0582801D045B1CD
:100930000AE00DB1102D07D1002714F8010B102586
:1009400002E0082500E00A250026B0460EE005FB7F
:10095000080005FB06F101271FFA80F801EB10469D
:10096000B6F5803F00D3B94614F8010B294600F0D4
:10097000B0F80028EBDABBF1000F05D00FB1641E10
:1009800000E05446CBF80040B9F1000F06D0FFF765
:10099000BBFC02210160C81EBDE8F09F48EA06408A
:1009A000FAE700002DE9F047814616468AB035483F
:1009B00078440DC88DE80D0032487844801C03ACA3
:1009C0000DC884E80D0041F69B300844372190FBA8
:1009D000F1F290FBF1F5A5F1800501FB12041B3C3F
:1009E00002D56442012000E00020DFF898A0804694
:1009F0000027FA44AAF1BE0A0EE0E0070AD0324608
:100A0000684607EB470101230AEB810102F0E9FE8A
:100A10008DE8070064107F1C002CEED1194F7F4435
:100A2000AE3F19E0E80715D007EB04100DF1180AE6
:100A300090E80E008AE80E00C068F04201D19819D3
:100A400008903246012306A903A802F0CAFE03ABB0
:100A500083E807006D10641C002DE3D14FF0010303
:100A600032466946B8F1000F03A802D002F0A4FE96
:100A700001E002F0B6FEC9E90001C9F808200AB099
:100A8000BDE8F0873C3E00007546FFF7A5FEAE4688
:100A900005006946534620F00700854618B020B58A
:100AA000FFF7A8FBBDE820404FF000064FF000071D
:100AB0004FF000084FF0000BAC46ACE8C009ACE8C2
:100AC000C009ACE8C009ACE8C00921F007018D46B7
:100AD00070473A2800D2303820F02002412A01D352
:100AE000A2F13700884201D34FF0FF30704710B5B4
:100AF0000446AFF300802046BDE81040FFF766BB18
:100B00004FF0013C50F8042B51F8043B9A4221D19C
:100B1000A2EB0C03934313EACC1317D150F8042B28
:100B200051F8043B9A4215D1A2EB0C03934313EA0C
:100B3000CC130BD150F8042B51F8043B9A4209D145
:100B4000A2EB0C03934313EACC13DBD04FF000006D
:100B5000704700BFD01A01BAB1FA81F101F0180153
:100B600022FA01F0CB40DBB2C0B2C01AC1F12001C1
:100B70002CFA01F3D11A914311EAC311E6D170475F
:100B800001491820ABBEFEE72600020070470000B6
:100B9000FEE7000070470000B0B540F60004C4F264
:100BA00001042046102100F025FA054620462021A8
:100BB00000F020FA40EA450000F0030240F2800015
:100BC00040F20134C2F20000D500C0F200244178A6
:100BD000838824FA05F5EDB24FF0FF34A94208BF2F
:100BE0000124234419B28380038942705A1CB1F551
:100BF000C86F028102DB012105E000BF11F5C86F5B
:100C000006DC4FF0FF31C369002219448280C161C4
:100C10001020BDE8B04000F0D9B80000B0B540F6F3
:100C20000004C4F201042046102100F0E3F9054657
:100C30002046202100F0DEF940EA450000F00302E2
:100C400040F2800040F20134C2F20000D500C0F250
:100C500000244178838824FA05F5EDB24FF0FF3483
:100C6000A94208BF0124234419B28380038942703A
:100C70005A1CB1F5C86F028102DB012105E000BFFB
:100C800011F5C86F06DC4FF0FF31C369002219442B
:100C90008280C1612020BDE8B04000F097B800001C
:100CA000014690F82100022816D10868D1E90FC347
:100CB000026822F00E020260026822F00102026065
:100CC000012000FA03F2CCF8042081F82100002072
:100CD000002281F820207047042088630120002230
:100CE00081F820207047000090F82110022923D1BC
:100CF000026840F2040C1168C4F2020C21F00E01EB
:100D0000116013682F21C4F202018A4223F001030B
:100D1000136015DD3023C4F202039A421CD0442331
:100D2000C4F202039A421BD05823C4F202039A422F
:100D30001CD14FF4803321E00421816301207047EE
:100D40000823C4F202039A420ED01C23C4F2020309
:100D50009A420BD1102311E04FF480730EE000BFD4
:100D60004FF480530AE000BF012307E00CF1680153
:100D70004FF080738A4208BF4FF480130121CCF8F2
:100D8000003080F82110416B0022002980F82020DB
:100D900004BF0020704780B58847002080BD000058
:100DA000B0B5044600F032F9054640F21000C2F238
:100DB00000000078611C18BF044400BF00F026F951
:100DC000401BA042FAD3B0BD7047000040F214416E
:100DD000C4F201010A68024214BF08607047FFF7BD
:100DE000F3BF00002DE9F04F82B00E68002E00F036
:100DF000FD8041F20042C4F20102042340F2004EA1
:100E0000904208BF03234FF6FF7CC4F2010E00930B
:100E100000240123C1F2100C4FF0000A4FF000092A
:100E20004BE000BF41F20002C4F20102009F904279
:100E300008BF022704F00C030F229A402BEA02029B
:100E400007FA03F34FEA9A051A4346F825204E683D
:100E500040F20C45F202DEF8082054BF22EA0802F4
:100E600042EA0802C4F20105CEF808202A68B3025B
:100E700054BF22EA080242EA08022A60B303DEF8FD
:100E8000042054BF22EA080242EA0802F303CEF823
:100E90000420DEF800204FF0010354BF22EA0802CC
:100EA00042EA0802CEF800200E680AF1010A36FA7A
:100EB0000AF204F1040400F0998003FA0AFB16EA2E
:100EC0000B08F1D04E68664512DC122E56D8DFE8CA
:100ED00006F0350B4D4955555555555555555555F4
:100EE00055555545510000BFD1F80C9046E000BF64
:100EF0004FF6FF72C1F2210296420FDC0022C1F2CE
:100F0000110296421AD00022C1F21202964215D066
:100F10000022C1F22102964210D02FE00022C1F23D
:100F2000220296420AD00022C1F23102964205D036
:100F30000022C1F23202964220D100BF8A684AB133
:100F4000012A14BFC0F814B0C0F810B04FF008095F
:100F500014E000BF4FF0040910E000BFCA6802F1BE
:100F600004090BE04FF0000908E000BFCA6802F175
:100F7000080903E0CA6802F10C0900BF02462646D0
:100F8000B8F5807F24BF0432203E17680F25B54096
:100F900027EA050509FA06F635431560CA79D2062F
:100FA0007FF582AF41F21803C4F202031A68AEF56E
:100FB0007E7642F001021A601A6802F00102019284
:100FC000019A2AF0030256F802B040F60002C4F279
:100FD0000102904208D040F60042C4F20102904261
:100FE0007FF420AF012725E7002723E702B0BDE803
:100FF000F08F00008068084018BF01207047000093
:10100000002A08BF090401617047000040F26C200B
:10101000C2F200000068704740F2100040F26C21FC
:10102000C2F20000C2F2000100780A6810440860B1
:101030007047000080B542F20000C4F2020001686F
:1010400041F010010160032000F08CF80F2000F047
:1010500005F800F027F8002080BD000070B540F2D0
:101060001006C2F2000640F218013278C2F2000106
:101070004FF47A730968B3FBF2F20446B1FBF2F164
:10108000084600F085FB0F2C4FF0010508D838B951
:101090004FF0FF3021460022002500F037F8746041
:1010A000284670BD82B041F21800C4F20200016807
:1010B000022241F001010160016801F0010101918A
:1010C0000199416841F080514160406800F08050D2
:1010D000009000980420C4F20100016862F31A61D4
:1010E000016002B070470000002848BF704700F060
:1010F0001F01012202FA01F11C2202EAD0004EF285
:101100000012CEF2000281507047000010B54EF67A
:101110000C5CCEF2000CDCF80030C3F3022E8EF033
:101120000704042C28BF0424BEF103034FF0FF3E44
:101130000EFA04F438BF0023A14399400EFA03F3DA
:101140009A43114300F00F0200F160430901043A91
:1011500003F564436244002848BF02F10C03197090
:1011600010BD00004EF60C51CEF200010A684FF699
:10117000FF031A4060F30A2242F0806040F0FD70E5
:1011800008607047002804BF012070472DE9F04334
:1011900081B042F20008C4F202080446D8F8000008
:1011A0000D4600F0070081420CD9D8F8000020F06D
:1011B00007002843C8F80000D8F8000000F0070036
:1011C000A8426CD1206841F204098107C4F20209E7
:1011D00017D5410705D5D9F8001041F4E061C9F8E9
:1011E0000010010705D5D9F8001041F46051C9F885
:1011F0000010D9F80010A26821F0F0011143C9F8DD
:101200000010C00742D1D8F8000000F00700854266
:101210000CD2D8F8000020F007002843C8F80000DE
:10122000D8F8000000F00700A84238D12068410734
:1012300007D5D9F80010E26821F4E0611143C9F83C
:101240000010000708D5D9F80000216920F460508B
:1012500040EAC100C9F80000D9F8002002F00C00F3
:10126000082841F20020C0F27A004DD144F6220352
:10127000C2F38341C0F60003595CD20338D440F670
:101280000010C0F23D0048433EE000BF606859F8DE
:10129000041C022808D0012826D1890306D4012085
:1012A00001B0BDE8F08300BF8901F8D5D9F800107E
:1012B00021F003010843C9F80000FFF7A7FE064626
:1012C00041F28837D9F80000616800F00C00B0EBFB
:1012D000810F98D0FFF79AFE801BB842F2D9032005
:1012E00001B0BDE8F08300BF8907D8D5DEE700BFB5
:1012F000D9F8002044F62003C2F34042C0F60003B0
:101300009A5C4843B0FBF2F0D9F8001044F60802AA
:10131000C1F30311C0F60002515C40F2180220FA3A
:1013200001F140F21400C2F200000068C2F20002B3
:101330001160FFF793FE002001B0BDE8F0830000CC
:1013400040F2180041F20401C2F20000C4F20201AE
:101350000068096844F61802C1F30221C0F60002D1
:10136000515CC8407047000040F2180041F204018F
:10137000C2F20000C4F202010068096844F61802D3
:10138000C1F3C221C0F60002515CC84070470000A2
:10139000002804BF012070472DE9F04182B00446C7
:1013A000007841F20006C007C4F202060CD0706853
:1013B00000F00C00042840F081803068800303D5E1
:1013C0006068002800F04681207880071BD570688F
:1013D00010F00C0F09D0706800F00C00082840F0E5
:1013E00087807068C00300F183803068800703D570
:1013F0002069012840F02E813068616920F0F800F2
:1014000040EAC10030602078000713D420784007FC
:101410002CD4E569002D00F01881706800F00C00F4
:10142000082840F0A780012D40F00481012002B07F
:10143000BDE8F081A069002800F084800020C4F29B
:1014400042200121C0F88014FFF7E0FD054600BFEF
:10145000706A800700F1B280FFF7D8FD401B0228B8
:10146000F6D9032002B0BDE8F08100BFF0695FEA61
:10147000C00808D4F06940F08050F061F06900F0D5
:1014800080500090009847F20007C4F200073868C7
:10149000C00549D4386840F480703860FFF7B6FD65
:1014A000054600BF3868C0053ED4FFF7AFFD401BBE
:1014B0006428F7D9032002B0BDE8F081706800F01D
:1014C0000C00082803D17068C0033FF576AF61684F
:1014D0003068002900F00C81B1F5A02F00F00081E8
:1014E000B1F5803F40F01A8140F480301CE100BF2C
:1014F0002069002840F20000C4F2422000F08880F9
:1015000001210160FFF782FD054600BF30688007BA
:101510003FF572AFFFF77AFD401B0228F6D9032092
:1015200002B0BDE8F08100BFE168306A002900F038
:101530009D80052900F09280012940F0AF8040F0A5
:101540000100B1E00020C4F242200021C0F8801464
:10155000FFF75CFD054600BF706A80077FF556AF58
:10156000FFF754FD401B0228F6D9032002B0BDE866
:10157000F08100BF0027C4F2422700203866FFF741
:1015800045FD022D05460DD13068800140F1DE8019
:10159000FFF73CFD401B02284FF00300F4D902B0D6
:1015A000BDE8F081306880014FD5FFF72FFD401B6B
:1015B00002284FF00300F5D9F1E700BF40F2180010
:1015C000C2F20000006844F6D351C1F26201A0FBF0
:1015D0000101480A019000BF00BF0198411E002888
:1015E00001913FF413AF00BF0198411E0028019103
:1015F0003FF40CAF00BF0198411E002801913FF459
:1016000005AF00BF0198411E00280191E4D1FDE61D
:1016100000210160FFF7FAFC054600BF3068800733
:101620007FF5F1AEFFF7F2FC401B02284FF00300FC
:10163000F4D9B4E77068216A00F480328A4209D193
:10164000616A00F47010884204D1002002B0BDE845
:10165000F08100BF012002B0BDE8F08140F004003D
:101660003062306A40F001001EE000BF20F001004F
:101670003062306A20F004003062FFF7C7FC054694
:1016800041F28837306A800720D5FFF7BFFC401B46
:10169000B8424FF00300F5D981E700BF20F0010008
:1016A0003062306A20F004003062FFF7AFFC05467C
:1016B00041F28837306A800708D4FFF7A7FC401B47
:1016C000B842F7D9032002B0BDE8F081B8F1000FAD
:1016D0003FF59FAEF06920F08050F06199E600BFC1
:1016E00040F480203060306840F480301CE000BF5F
:1016F00020F480303060306820F480203060FFF7C4
:1017000085FC0546306880037FF55EAEFFF77EFC02
:10171000401B64284FF00300F4D940E720F48030E8
:101720003060306820F480203060FFF76FFC0546A1
:10173000306880033FF548AEFFF768FC401B642823
:10174000F6D9032002B0BDE8F08100BF206AB0F5F1
:10175000803F05D17168A26821F4003111437160A6
:101760007168626A21F474111143084370600120AA
:101770003866FFF74BFC0446306880013FF565AFE3
:10178000FFF744FC001B02284FF00300F4D906E7E2
:10179000411E0020B0EB116F1CBF012070474EF2BC
:1017A0001002CEF2000251604EF62351CEF200013B
:1017B000F0230B70072190601160704770470000A4
:1017C0007047000090F83C20012A04BF02207047B7
:1017D000B0B501F108053CCDD1E900CE23F47C532E
:1017E00022F470521A432EF4F0431A432CF4E043CF
:1017F0001A4324F4C0431A432A43C96922F480429D
:10180000036811435964002180F83C100020B0BDEA
:1018100090F83C20012A4FF0020236D010B580F833
:101820003D200268D2F804E0D2F808C00C682EF01F
:101830007003234340F2FF74C4F20004A2425360D9
:101840000ADCB2F1804F13D040F20043C4F200032F
:101850009A420DD011E000BF42F60043C4F20103EA
:101860009A4205D040F60003C4F200039A4204D124
:1018700049682CF08003194391600121002280F80F
:101880003D1080F83C20BDE8104010467047000035
:10189000002804BF0120704710B590F83D1031B901
:1018A000002180F83C10044600F070F82046022128
:1018B00080F83D10016840F2FF740B68C4F2000428
:1018C00042F6004CA142C4F2010C15DCB1F1804F8C
:1018D0001AD040F20042C4F20002914214D0A14258
:1018E00018DCB1F1804F1DD040F20042C4F200027A
:1018F000914217D01AE000BF614505D040F60002C2
:10190000C4F200029142EAD1826823F070031343CB
:10191000A142E6DD614505D040F60002C4F20002B6
:10192000914203D1026923F440731343846923F085
:101930008002D0F804E0C368224361450A60CB62AC
:10194000C1F828E002D14269CCF8302001224A6176
:101950000B69DB0703D00B6923F001030B6180F8EF
:10196000462080F83E2080F83F2080F8402080F814
:10197000412080F8422080F8432080F8442080F8FD
:10198000452080F83D20002010BD000080B582B0C9
:101990000068B0F1804F15D042F60041C4F2010159
:1019A00088420CD141F21800C4F20200016841F4EF
:1019B00000610160006800F400600190019802B0CD
:1019C00080BD00BF41F21800C4F20200416800224D
:1019D00041F0010141604068002100F001000090E9
:1019E00000981C20FFF792FB1C2002B0BDE880404D
:1019F000FFF77ABB90F83D1001291CBF012070470A
:101A0000022180F83D10006840F2FF72C168C4F204
:101A10000002904241F00101C16009DCB0F1804F49
:101A200012D040F20041C4F2000188420CD012E012
:101A300042F60041C4F20101884205D040F600019F
:101A4000C4F20001884206D1816801F0070106292D
:101A500004BF00207047016841F0010101600020CF
:101A60007047000090F83C20012A4FF002026CD031
:101A700080B580F83D20D0F800C04FF67772DCF8D2
:101A8000083023EA0202CCF808200B684F2B29DC2F
:101A90001F2B45DD202B46D0302B44D0402B40F06F
:101AA000AF80D1F804E0C968DCF82030DCF82020F1
:101AB00022F00102CCF82020DCF8182022F0F002FD
:101AC00042EA011123F00A0242EA0E02CCF8181091
:101AD000CCF82020DCF8081041F0470121F030015B
:101AE00028E000BF6F2B33DDB3F5005F74D0B3F592
:101AF000805F21D0702B40F08380D1E901E3C96879
:101B0000DCF8082043EA0E0322F47F4243EA012175
:101B10001143CCF80810DCF8081041F0770109E017
:101B20000BB1102B6CD1DCF8081021F070011943B7
:101B300041F00701CCF808100022012180F83D1087
:101B4000002180F83C10BDE880401046704700BF7F
:101B5000502B21D0602B53D1D1F804E0C968DCF8B8
:101B60002030DCF8202022F01002CCF82020DCF815
:101B7000182022F4704242EA013123F0A00242EA26
:101B80000E12CCF81810CCF82020DCF8081041F028
:101B9000670121F01001CDE7D1F804E0C968DCF855
:101BA0002030DCF8202022F00102CCF82020DCF8E4
:101BB000182022F0F00242EA011123F00A0242EA60
:101BC0000E02CCF81810CCF82020DCF8081041F0F8
:101BD000570121F02001ADE7D1E901E3C968DCF844
:101BE000082043EA0E0322F47F4243EA0121114315
:101BF000CCF80810DCF8081041F480419AE700BFE7
:101C000001229AE77047000070B504460068C56875
:101C10000669B10716D515F0020113D06FF0020165
:101C20000161012121778069800703D02046FFF7F9
:101C3000E9FF05E0204600F0BBF8204600F03CFA42
:101C400000202077700719D515F0040016D0206801
:101C50006FF00401016102212177806910F4407F57
:101C600004D02046FFF7CEFF06E000BF204600F07C
:101C70009FF8204600F020FA00202077300717D583
:101C800015F0080014D020686FF0080101610421EC
:101C90002177C069800703D02046FFF7B3FF05E036
:101CA000204600F085F8204600F006FA0020207754
:101CB000F00619D515F0100016D020686FF010014D
:101CC000016108212177C06910F4407F04D02046CB
:101CD000FFF798FF06E000BF204600F069F82046B5
:101CE00000F0EAF900202077F00718BF15F0010096
:101CF00002D1300609D412E020686FF001010161C1
:101D0000204600F049FA300609D515F0800006D0CB
:101D100020686FF0800101612046FFF74FFD7006DB
:101D200009D515F0400006D020686FF04001016130
:101D3000204600F0BBFAB00658BF70BD15F0200079
:101D400008D021686FF0200220460A61BDE870408B
:101D5000FFF736BD70BD000080B586B0014640F685
:101D60000000C4F20100096800F5105291424FF0E2
:101D70000001CDE90411CDE9021101D006B080BD0A
:101D800041F21801C4F202010A6842F004020A603A
:101D9000096801F00401019101994FF44071029129
:101DA00002210391059102A9FFF71CF806B080BD3E
:101DB0007047000090F83C30012B04BF02207047B0
:101DC0004FEAB202032A00F2F1802DE9F043DFE886
:101DD00002F003A53B7500BF036842F600461D6A8A
:101DE0001A6AC4F2010622F001021A621A465C68FD
:101DF00052F818CFB3428E68D1F800E025F0020502
:101E000045EA06050CD1CE68D1E9057824F4407482
:101E100025F00C0526F004063C43354344EA08044B
:101E20002CF0730747EA0E075C609F614F680969F1
:101E30005F631D629F6947F008079F619F6927F0F4
:101E400004079F61A6E000BF036842F600461D6AD2
:101E50001A6AC4F2010622F480721A621A46D3F892
:101E600004C052F81CEFB3428E680C6825F400756C
:101E700045EA06250FD1CE68D1E90598360240F231
:101E8000FF4725F44065BE4335432CF4405748EAEC
:101E9000090647EA061C2EF073072743C3F804C05F
:101EA000DF614F680969DF631D62DF6947F008077A
:101EB000DF61DF6927F00407DF616BE0036842F64A
:101EC0000047D3F820C01A6AC4F2010722F48052F6
:101ED0001A621A465C6852F81C5FD1F800E08E68FE
:101EE000BB4204D14F6924F4804444EA87142CF4A3
:101EF000005747EA063725F4E64646EA0E265C60B8
:101F0000DE614E6809691E641F62DF6947F400677D
:101F1000DF61DF6927F48067DF613AE0036842F63A
:101F200000461D6A1A6AC4F2010622F010021A6203
:101F30001A46D3F804C052F8184FB3428E68D1F84D
:101F400000E025F0200545EA06150FD1CE68D1E95D
:101F500005986FF0400725F0C00507EA06163543DF
:101F60002CF4406748EA090647EA860C24F4E64464
:101F700044EA0E27C3F804C09F614F6809699F6354
:101F80001D629F6947F400679F619F6927F480671E
:101F90009F6109021368194311600021BDE8F043F5
:101FA000002280F83C200846704700BF0121002233
:101FB00080F83C2008467047002804BF0120704785
:101FC00010B590F83D1031B9002180F83C1004465E
:101FD00000F070F82046022180F83D10016840F2C0
:101FE000FF740B68C4F2000442F6004CA142C4F234
:101FF000010C15DCB1F1804F1AD040F20042C4F25E
:102000000002914214D0A14218DCB1F1804F1DD0E2
:1020100040F20042C4F20002914217D01AE000BF21
:10202000614505D040F60002C4F200029142EAD1B7
:10203000826823F070031343A142E6DD614505D0B9
:1020400040F60002C4F20002914203D1026923F477
:1020500040731343846923F08002D0F804E0C3681E
:10206000224361450A60CB62C1F828E002D142698F
:10207000CCF8302001224A610B69DB0703D00B69E1
:1020800023F001030B6180F8462080F83E2080F8A1
:102090003F2080F8402080F8412080F8422080F8DE
:1020A000432080F8442080F8452080F83D2000201F
:1020B00010BD00007047000070470000C1B1042946
:1020C00008D0082914BF41224022825C012A05D091
:1020D00016E000BF3F22825C012A11D102220829AA
:1020E00010D0042914BF80F8412080F83F200BE075
:1020F00090F83E20012A03D1022280F83E2003E01E
:102100000120704780F84020006801F01F01012283
:10211000036A8A4023EA02010162036A42F64441EB
:10212000C4F201011A43A1F14403984202620FD0A4
:1021300040F2FF71C4F20001884213DCB0F1804F1D
:102140001CD040F20041C4F20001884216D01CE0CD
:102150000A6842F400420A6040F2FF71C4F20001D2
:102160008842EBDD42F60041C4F20101884205D00D
:1021700040F60001C4F20001884206D1816801F0F6
:102180000701062904BF00207047016841F00101E2
:1021900001600020704700000068B0F1804F18BF58
:1021A00070472DE9F04F81B040F2800AC2F2000A78
:1021B000DAF81C00400001F0C1FE0646BAF904003E
:1021C0000F4601F0BBFE41F26F2842F2CA19CCF271
:1021D0008308C4F2090942464B4601F0D9FE0023A8
:1021E000C4F2790300224FF0000B01F04BFD0446CE
:1021F0000D463046394642464B4601F0C9FE22465E
:102200002B4601F097FC49F69A1249F69913C9F644
:102210009912C4F2150301F0BBFE42464B4601F091
:1022200031FD01F055FCBAF80810CAF80C00084658
:10223000CAF83010AAF808B001F097FE4CF2592203
:1022400041F63B13C1F6DA02C4F2230301F0A0FE0B
:1022500042464B4601F09CFE0023C4F214030022C8
:1022600001F010FD01F034FC0146DAF81800CAF85C
:10227000341000F011FD0128AAF80A0004DB012146
:102280008AF80210002106E04042AAF80A0001B2D2
:1022900000208AF802B040F29412C2F200021268E2
:1022A0005163906301B0BDE8F04F70477047000084
:1022B0007047000070470000B0B582B001680A683E
:1022C000CC684B6902F02F05202D04F0200505D1C4
:1022D00025B102B0BDE8B04000F0A4BD5FEA027CC9
:1022E0001EBF03F0010E04F4907313EB0E0341D1F3
:1022F000036BD50618D5012B16D114F0100313D09B
:10230000002201920A6801924A680192019A496981
:1023100049064BD4818DC28DC38D002B18BF9142CD
:1023200040F0F48102B0B0BD13062DD514F0800347
:102330002AD090F84120212AF4D18268B2F5805F3A
:1023400003D10269002A00F06782026A531C03620B
:1023500012784A60C28C013A1304C284E2D1C86880
:1023600020F08000C860C86840F04000C86002B03B
:10237000B0BD00BFD30718BF14F4807340F0D08005
:10238000530700F1D380D8E05206CBD514F04002B9
:10239000C8D0CA6822F04002CA60202180F84110EB
:1023A00002B0BDE8B04000F06FBC00BFC16B0A686E
:1023B000526893B2002BB5D0858DAB42B2D2C285A4
:1023C0008969202900F0A180016851E8031F026893
:1023D00021F4807142E80313DBB1016851E8031F67
:1023E000026821F4807142E8031393B1016851E857
:1023F000031F026821F4807142E803134BB10168A6
:1024000051E8031F026821F4807142E80313002B96
:10241000DAD1016851E8051F026821F0010142E8A4
:102420000513C3B3016851E8051F026821F00101DB
:1024300042E805137BB3016851E8051F026821F0EB
:10244000010142E8051333B3016851E8051F026832
:1024500021F0010142E80513002BDAD11BE000BF97
:10246000016851E8051F026821F0400142E80513A8
:10247000DBB1016851E8051F026821F0400142E824
:10248000051393B1016851E8051F026821F040016E
:1024900042E805134BB1016851E8051F026821F0BD
:1024A000400142E80513002BDAD1202180F84210C8
:1024B00000210163016851E8031F026821F0100147
:1024C00042E80313DBB1016851E8031F026821F001
:1024D000100142E8031393B1016851E8031F026839
:1024E00021F0100142E803134BB1016851E8031FCA
:1024F000026821F0100142E80313002BDAD1C16B0E
:1025000004460846FEF7CCFB204602214163818D3C
:10251000C28D891A89B202B0BDE8B040FFF7C8BECB
:10252000436C43F001034364530706D5BEF1000F2B
:1025300003D0436C43F002034364930706D5BEF116
:10254000000F03D0436C43F004034364BCF1000F5D
:1025500006D55EEA050303D0436C43F008034364E9
:10256000436C002B3FF4DEAE920605D525B1044640
:1025700000F058FC216820464969426C01F0400196
:1025800002F00802891800F0B98000BF016851E824
:10259000031F026821F4907142E80313BBB3016882
:1025A00051E8031F026821F4907142E8031373B3EA
:1025B000016851E8031F026821F4907142E8031397
:1025C0002BB3016851E8031F026821F4907142E8BF
:1025D0000313002BDAD11AE0016851E8051F0268E5
:1025E00021F0010142E80513DBB1016851E8051F44
:1025F000026821F0010142E8051393B1016851E836
:10260000051F026821F0010142E805134BB1016882
:1026100051E8051F026821F0010142E80513002B73
:10262000DAD1016B012924D1016851E8031F026846
:1026300021F0100142E80313DBB1016851E8031FE8
:10264000026821F0100142E8031393B1016851E8D8
:10265000031F026821F0100142E803134BB1016827
:1026600051E8031F026821F0100142E80313002B18
:10267000DAD1202180F84210002101630168496904
:10268000490640F1C380016851E8051F026821F046
:10269000400142E80513DBB1016851E8051F0268FB
:1026A00021F0400142E8051393B1016851E8051F8C
:1026B000026821F0400142E805134BB1016851E87E
:1026C000051F026821F0400142E80513002BDAD112
:1026D000C16B002900F09A8042F61962C0F6000230
:1026E000044608464A63FEF7FFFA00283FF41AAE94
:1026F000E06B416B02B0BDE8B04008470446FFF70D
:10270000D9FD0020606402B0B0BD00BF891A00BFCF
:10271000026852E8032F036822F4907243E803250D
:10272000BDB3026852E8032F036822F4907243E8B5
:10273000032575B3026852E8032F036822F49072F0
:1027400043E803252DB3026852E8032F036822F4FF
:10275000907243E80325002DDAD11AE0026852E8AE
:10276000052F036822F0010243E80525DDB1026868
:1027700052E8052F036822F0010243E8052595B1D0
:10278000026852E8052F036822F0010243E805259C
:102790004DB1026852E8052F036822F0010243E8B8
:1027A0000525002DDAD1202280F842200022026384
:1027B000026852E8032F036822F0100243E8032561
:1027C000DDB1026852E8032F036822F0100243E8EB
:1027D000032595B1026852E8032F036822F0100226
:1027E00043E803254DB1026852E8032F036822F045
:1027F000100243E80325002DDAD1022289B2426398
:1028000002B0BDE8B040FFF753BD00BF02B0BDE865
:10281000B040FFF74FBD00BF026A32F8023B6FF3D2
:102820005F234B60026295E5002804BF01207047DA
:1028300010B5044690F8410028B9002084F8400003
:10284000204600F063F8242084F841002068D4E991
:102850000212C36823F40053C360036923F4405396
:102860001A430261D4E904231143C268194341F2B7
:102870000C639A431143C1604169A26921F440711C
:10288000114343F60002C4F201029042416103D0B9
:10289000FEF756FD02E000BFFEF766FDD4E9002317
:1028A000192148439900B0FBF1F048F21F5CC5F2D2
:1028B000EB1CA0FB0C314FF69C734909C0F6FF736B
:1028C00001FB0300322303EB0010A0FB0C03F020FC
:1028D00000EA531000EB0110C3F343110844906069
:1028E0001069202120F490401061506920F02A00E6
:1028F0005061D06840F40050D0600020606484F8DB
:10290000411084F84210606310BD000070B586B0BD
:1029100040F60044C4F20104006804F5305100267A
:1029200088420596CDE90366029601D006B070BDD7
:1029300041F21800C4F20200016802AD41F4804186
:102940000160016801F4804101910199016841F041
:10295000080101600068294600F008000190019814
:102960004020029002200390032005902046FEF7AD
:1029700039FA8020CDE90206204629460496FEF762
:1029800031FA0420C4F201000168002241F0E06144
:1029900041F00401016025200021FEF7B7FB25204E
:1029A000FEF7A2FB06B070BD90F84230202B07D195
:1029B00000294FF0010318BF002A05D118467047BF
:1029C00002231846704700BF00230363816222215F
:1029D0008285C285436480F842100169006819B19C
:1029E000C16841F48071C160416941F001014161F8
:1029F000C16841F02001C16018467047006843F685
:102A00000001C4F20101884218BF704710B540F2BE
:102A10008004C2F20004207828B90021C4E90E1114
:102A2000C4E91011A164A179A1F12D02492A00F293
:102A30002F80DFE802F025252D25252525252525B4
:102A40002525252D2D2D2D2D2D2D2D2D2D2D2D2DCE
:102A50002D2D2D2D2D2D2D2D2D2D2D2D2D2D2D2DA6
:102A60002D2D2D2D2D2D2D2D2D2D2D2D2D2D3F2D84
:102A70002D2D2D2D2D2D2D2D2D2D2D37472D2D4F40
:102A8000421C204490F838302270194380F83810E6
:102A900040F22420A11DC2F200000122BDE8104036
:102AA000FFF782BF40F21C00C2F20000012101705A
:102AB000EEE700BF40F21C00C2F2000000210170EE
:102AC000E6E700BF04F13800FDF7EEFB01F0F6FC8D
:102AD000606106E004F13800FDF7E6FB01F0EEFC72
:102AE000A0610020C4E90E00C4E91000A0642070B9
:102AF000CEE700002DE9F04381B0044690F8410094
:102B0000202809D100294FF0010018BF002A07D161
:102B100001B0BDE8F08300BF022001B0BDE8F08342
:102B20000020606421201D460E4684F841001746AF
:102B3000FEF76CFAA784E784A1688146B1F5805F4F
:102B400002D1206900285DD037460020E28C216840
:102B5000002A5DD06A1C24D0002D4AD0804600BFD8
:102B60000868000608D4FEF751FAA0EB0900A84255
:102B70007AD82168C868F3E717B117F8010B04E0A9
:102B800038F8020B00276FF35F204860E08C0138B3
:102B9000E084E08C0028E3D13AE000BF0A68120626
:102BA00009D40A68120606D40A6812065CBF0A68CD
:102BB0005FEA0262F2D51FB117F8012B05E000BFF2
:102BC00030F8022B00276FF35F224A60E28C013A53
:102BD000E284E28C002AE4D11AE000BF30F8022B34
:102BE00000276FF35F224A60E28C013AE284E28CB4
:102BF00072B10A68120635D5002FEFD017F8012BF5
:102C0000F1E700BF00273046E28C2168002AA1D1FD
:102C1000086840061ED42DB3681C14D1086840060D
:102C20002AD40868400627D40868400624D40868D7
:102C300040064FF00000F1D50DE000BF2068C168EC
:102C40000068400618D4FEF7E1F9A0EB0900A8429D
:102C5000F4D909E00020202184F8411001B0BDE83A
:102C6000F08300BFFEF7D2F90320202184F8411041
:102C700001B0BDE8F08300BF0020202184F841109E
:102C800001B0BDE8F083000070470000FEE70000DF
:102C9000FEE70000FEE700002DE9F04F83B001F0F1
:102CA000F1FC40F20001C2F200014968824601F0E5
:102CB0001DFC40F2800BC2F2000B0290DBE9081011
:102CC000DBF810600190DBF82850504601F0DAFC88
:102CD0000146304601F00AFC01F046FB47F6E124CC
:102CE00041F27B42C3F67474C4F2AE72234600F024
:102CF000C9FF00F0EDFEDBF82C100646084601F097
:102D000033FB07463046884601F02EFB46F26663E9
:102D1000C3F6EE734FF0663201F03AF949F6A012AD
:102D200049F6991306468946C9F69912C3F6A9735E
:102D30003846414601F02CF932464B4600F0FAFE87
:102D400000F0C6FE8046284601F00EFB40F2000966
:102D5000C2F20009D9F8082005460F465046114630
:102D600001F0C4FB01F000FB41F27B46C4F2AE76F9
:102D70003246234601F00CF92A463B4600F0DAFEC3
:102D80000546D9F80C000F4601F0EEFA324623460C
:102D900001F0FEF8044601980E4601F0E5FA0246FD
:102DA0000B462046314601F0F3F82A463B4600F038
:102DB000C1FE00F08DFE044602984146CBF820A0EB
:102DC000CBE90A4801F0FCFA214601F0F9FA01F0DA
:102DD00059FBB9F90210B9F9002004468842B8BF7E
:102DE00000249042C8BF6424201A01F067FB01460A
:102DF0002046CBF8241003B0BDE8F08F70470000E8
:102E000070470000FEF708B97047000040F2DC1080
:102E1000C2F20000FEF7F8BE406A0021C185C184FD
:102E2000FFF748BA81B090F84210222921D1836877
:102E30000246B3F5805F09D152F8281F52F8183CBA
:102E4000002B63D003685B680AE000BF52F8281FBC
:102E500013B90369002BF5D003685B6803F07F03A7
:102E60000B70116801311160C18D01390A04C185EF
:102E700002D001B0704700BF0168CA6822F020028A
:102E8000CA60CA6822F48072CA604A6922F00102EC
:102E90004A61202180F8421000214163026B012A1F
:102EA0003CD10163016851E8031F026821F0100161
:102EB00042E80313DBB1016851E8031F026821F007
:102EC000100142E8031393B1016851E8031F02683F
:102ED00021F0100142E803134BB1016851E8031FD0
:102EE000026821F0100142E80313002BDAD10168D7
:102EF0000A68D20606D5002200920A680092496844
:102F000000910099818D01B0FFF7D2B90268526833
:102F10006FF35F2221F8022B8162A5E701B0FFF772
:102F20006DBD000040F22420C2F20000FFF7C4B9DA
:102F3000FEE7000098B0FEF77DF800240120CDE9FF
:102F40000544CDE903440490102005904FF420106F
:102F5000022509906846CDE901440095CDE9075462
:102F6000FEF716FA20B1EFF3108072B6FEE700BF4D
:102F70000F20CDE90A054FF4A060CDE90D000AA8A5
:102F800001210C940127FEF7FDF828B1EFF3108022
:102F900072B600BFFEE700BF002641F21800CDE97F
:102FA0000266CDE90066C4F20200016840F6000442
:102FB00041F0200101600168C4F2010401F0200128
:102FC0000A910A990168002241F004010160016838
:102FD000062501F004010A910A99016841F00801EF
:102FE00001600068062100F008000A900A98204657
:102FF000FEF706F8CDE9005702206D460390204603
:1030000029460296FDF7EEFE302000900020C1F226
:103010003100CDE9010720462946FDF7E3FE0A20ED
:1030200000210022FEF772F80A20FEF75DF8172053
:1030300000210022FEF76AF81720FEF755F840F24B
:10304000941004F51051C2F2000064231796CDE9E4
:103050001566CDE9126606960B2280E84600C0E9A7
:103060000336C0E90566FEF713FC28B1EFF31080C4
:1030700072B600BFFEE700BF4FF48050149040F2DC
:103080009410C2F2000014A9FEF7ECFC20B1EFF39B
:10309000108072B6FEE700BF40F29410C2F200004A
:1030A000FEF78AFF20B1EFF3108072B6FEE700BF93
:1030B00040F29410C2F2000012A9FEF7A9FB28B159
:1030C000EFF3108072B600BFFEE700BF60200A90E9
:1030D0000020CDE90B00CDE90D00CDE90F0040F255
:1030E0009410C2F200000AA90022FEF763FE28B184
:1030F000EFF3108072B600BFFEE700BF40F29410FD
:10310000C2F200000AA90422FEF754FE20B1EFF338
:10311000108072B6FEE700BF4FF40050059040F2F9
:1031200094100025C2F2000069460495CDE90255CD
:10313000CDE900550795FEF745FB28B1EFF3108068
:1031400072B600BFFEE700BF40F29410C2F200006A
:10315000FEF702FE40F2DC10C2F200004FF08041A8
:1031600004230395CDE90155CDE90A5545F6BF5233
:1031700080E82600C0E903358561FEF789FB28B1A8
:10318000EFF3108072B600BFFEE700BF4FF480502F
:10319000009040F2DC10C2F200006946FEF762FCCB
:1031A00020B1EFF3108072B6FEE700BF40F2DC10F2
:1031B000C2F200000AA9FEF72BFB18B1EFF3108052
:1031C00072B6FEE740F2242004F54051C2F200003E
:1031D00000230C274FF4E13280E80E00C0E90333EE
:1031E000C0E90573C361FFF71FFB18B1EFF310804F
:1031F00072B6FEE740F29415C2F20005284600219F
:10320000FEF75CFF28460421FEF758FF40F2DC1071
:10321000C2F20000FEF7EEFB40F2800640F22425E9
:10322000C2F20006C2F20005B11D28460122FFF7D6
:10323000BBFB204602210122FDF7E2FE20460421CD
:103240000122FDF7DDFE40F2301440F2CC07C2F25D
:1032500000040FF25C08C2F200070FF25C09706B09
:1032600001F082F802460B4620464146FCF7D4FFA7
:103270002046FDF726F882B2284621466423FFF750
:1032800039FCF06801F070F802460B4638464946B2
:10329000FCF7C2FF3846FDF714F882B228463946DB
:1032A0006423FFF727FC3220FDF77AFDD7E700BF44
:1032B0005625660D0A0000005025660D0A00000024
:1032C0005FEA400C08BF91F0000F4FEA8C234FEAF1
:1032D000C12243EA51514FEA1C5018BF00F5F0409B
:1032E0004FEA300018BF41F000415FEA6C5C00F02B
:1032F0002980BCF1FF3F08BF40F080407047130CAD
:1033000006BF12044FF0100C4FF0000C130E04BF58
:1033100012020CF1080C130F04BF12010CF1040C83
:10332000930F04BF92000CF1020CD30F04BF5200A4
:103330000CF1010C11464FF00002A0F11F00A0EBB0
:103340000C00704711F0004F08BF704731F000418A
:103350003FF4D5AF0B0C06BF09044FF0100C4FF033
:10336000000C0B0E04BF09020CF1080C0B0F04BF7C
:1033700009010CF1040C8B0F04BF89000CF1020C45
:10338000CB0F04BF49000CF1010CCCF1200322FA51
:1033900003F341EA030102FA0CF2A0EB0C0000F186
:1033A0000100704723F07F4720F07F4C80EA030044
:1033B00000F00040ACEB070303F57C5303F1FF037F
:1033C0002DE9804909B44FEA144324EA03484FEA3F
:1033D000154B25EA0B4E0FF2042606EB13273E7819
:1033E00003FB0667C7F5000707FB06F64FEAD6465C
:1033F00006F102064FEA543707FB066CCCF1005C7D
:103400004FEA1C472CEA074C0CFB06F507FB06F4B9
:1034100004EB15464FEA961649085FEA320234BFBC
:1034200000204FF000404FEAD13706FB07FC4FEA7F
:103430001C4C0CFB0BF7D21B03FB0CF761EB0701D9
:103440000CFB0EF7B0EB074072EB17420CFB08F7D2
:1034500034BFA2EB0742B2EB074261EB17414FEAE0
:103460000C444FEA910706FB07FC4FEA1C4C0CFB8F
:103470000BF7B0EBC74072EB573203FB0CF734BFCE
:10348000A2EBC742B2EBC74261EB57310CFB0EF720
:10349000B0EBC70072EB57720CFB08F734BFA2EB1E
:1034A000C702B2EBC70261EB57714FEA816141EA93
:1034B00092114FEA826242EA90124FEA806004EB76
:1034C000CC04039F4FEAD13706FB07FC4FEA1C4CA4
:1034D0000CFB0BF7D21B03FB0CF761EB07010CFB9A
:1034E0000EF7B0EB074072EB17420CFB08F734BF46
:1034F000A2EB0742B2EB074261EB17414FEA8C5552
:1035000004EB9C244FEA910706FB07FC4FEA1C4C96
:103510000CFB0BF7B0EBC74072EB573203FB0CF719
:1035200034BFA2EBC742B2EBC74261EB57310CFB91
:103530000EF7B0EBC70072EB57720CFB08F734BF05
:10354000A2EBC702B2EBC70261EB57714FEA816190
:1035500041EA92114FEA826242EA90124FEA806099
:1035600015EB4C2544F100044FEAD13706FB07FC6C
:103570004FEA1C4C0CFB0BF7D21B03FB0CF761EB67
:1035800007010CFB0EF7B0EB074072EB17420CFB88
:1035900008F734BFA2EB0742B2EB074261EB1741D9
:1035A0004FEA813141EA92414FEA823242EA904247
:1035B0004FEA80304FEA0C7615EB1C1544F10004FD
:1035C00048EA03434EEA0B484FF0000EB2EB080CFA
:1035D00071EB030724BF624639464EEB0E0E4FF0E7
:1035E000000B0018524149414BEB0B0BB2EB080C9E
:1035F00071EB03077BF1000B24BF624639464EEBAB
:103600000E0E4FF0000B0018524149414BEB0B0BD3
:10361000B2EB080C71EB03077BF1000B24BF624691
:1036200039464EEB0E0E51EA020718BF46F001066E
:1036300016EB0E7655F1000254F1000103D5BDE8FA
:103640008901BDE80088BDE88901BDE80048B619D8
:10365000524141EB0101A3F10103704780807F7E5D
:103660007D7C7B7A797877767675747372717170F8
:103670006F6E6E6D6C6C6B6A6A69686867666665AA
:103680006464636362616160605F5F5E5E5D5D5C38
:103690005C5B5B5A5A5959585857575656555555A9
:1036A0005454535352525251515050504F4F4F4E09
:1036B0004E4D4D4D4C4C4C4B4B4B4A4A4A49494957
:1036C0004848484747474746464645454544444499
:1036D0004443434343424242424141419C46002BC2
:1036E00030D477002BD04FEA37071CB503B44FF026
:1036F00010004FF01001BAF1000F06D0BCF1000F1E
:10370000DCBF40F0080040F008014FF000000FBCA3
:10371000BDE810400BF1010BBBF1010F08BF5FEAE0
:10372000170722BF12F1010211F101014FF0004110
:1037300043F1000300F0004043EA00007047F9D372
:103740005708D0E746EA06464FEA164613F1400FFF
:103750001FDD13F1200FDFBF16430A46002120337F
:103760005B42BED0C3F1200746EA06464FEA164642
:1037700002FA07F746EA070622FA03F2C3F1200726
:1037800001FA07F742EA070221FA03F14FF00003BA
:10379000A7E746EA020646EA06464FEA164646EA22
:1037A0000106BCBF46EA0646360C4FF000034FF058
:1037B00000024FF0000194E72DE9804C70B49A4666
:1037C000934691E8380007C831EA400C48BF34EA14
:1037D000430C03D5FFF7E6FDFFF780FFF0BCBDE823
:1037E000008C2DE9804C70B49A46934691E83800DD
:1037F00007C810F0804F08BF13F0804F03D100F0CE
:1038000005F8FFF76BFFF0BCBDE8008C20F07F47A8
:1038100023F07F4C80EA030000F0004007EB0C032C
:10382000A3F57C53A3F1FE0392F0000F00F0B380E8
:1038300095F0000F00F077802DE901494FEA114023
:1038400021EA00484FEA144624EA064700FB06FC3A
:1038500008FB06F607FB08F818EB06484CEB164C7D
:1038600000FB07F718EB07484CEB17404FEA124BE9
:1038700022EA0B4E4FEA154625EA06470BFB06FCEB
:103880000EFB06F607FB0EFE1EEB064E4CEB164C2F
:103890000BFB07F71EEB074E4CEB174B18EB0B0817
:1038A00040F1000018EB0E0B58EB000840F100004F
:1038B0008F1A4FF000014FF000063CBFC943661B52
:1038C00014BFB5EB040C00213CBFC943F61B4FEA03
:1038D000174427EA04454FEA1C472CEA074C04FB2F
:1038E000076205FB07F70CFB05F616EB074642EBF4
:1038F000174204FB0CFC16EB0C4642EB1C421BEB84
:10390000060658EB020241414EEA8E0E46EA9E063A
:1039100001D5BDE80189B619524141EB0101A3F17E
:103920000103BDE801894FEA144524EA05464FEA40
:10393000114721EA074C05FB07F406FB07F70CFBD0
:1039400006F111EB074144EB174405FB0CFC11EBAE
:103950000C4144EB1C444FEA124722EA074C05FB9A
:1039600007F206FB07F70CFB06F616EB074642EBE1
:10397000174205FB0CFC16EB0C4642EB1C456A1883
:1039800054F1000148BF7047B619524141EB0101A3
:10399000A3F10103704795F0000F37D04FEA1142B1
:1039A00021EA02464FEA144724EA074C02FB07F1DA
:1039B00006FB07F70CFB06F414EB074441EB174139
:1039C00002FB0CFC14EB0C4441EB1C414FEA154785
:1039D00025EA074C02FB07F506FB07F70CFB06F68A
:1039E00016EB074645EB174502FB0CFC16EB0C46A5
:1039F00045EB1C42121951F1000148BF7047B6193E
:103A0000524141EB0101A3F1010370474FEA144514
:103A100024EA05464FEA114721EA074C05FB07F166
:103A200006FB07F70CFB06F212EB074241EB1741CE
:103A300005FB0CFC12EB0C4251EB1C414FF0000655
:103A400048BF7047921841EB0101A3F10103704791
:103A5000490050EAC12018BF04204A0D18BF40F0A9
:103A6000010040F2FF72B2EB515F08BF40F002006C
:103A7000012808BF0520704710B500290AD0087832
:103A8000002807D005487844FDF73AF8002801D00F
:103A9000002010BD0248784410BD0000CE0D00008B
:103AA000C60D000010B500290AD00878002807D0FC
:103AB00005487844FDF724F8002801D0002010BD07
:103AC0000248784410BD0000BE0D0000B60D000095
:103AD00021F0004201F00043A2F16052B2F5801FD4
:103AE00028BFD2F17F6C0BD95FEA001C43EAC20207
:103AF00042EB507018BF704728BF20F0010070479C
:103B0000B2F5801FBCBF184670474FEA410C1CF548
:103B1000001F02D2084600F0B0BD70B500F0E2FA16
:103B200000000089FFF7F6BF4FF00040A0F58000CD
:103B30007047000010B591EA030F48BF83F00043BF
:103B400000F12C83841A71EB030C05D2121943EB9C
:103B50000C03001B61EB0C014FEA1154A4EB135C46
:103B6000DFF81CE11EEA430F18BF9EEA445F00F035
:103B7000748021EA045123EA0E0343F48013DCF13C
:103B8000200E32D322FA0CFE10EB0E0023FA0CFEAC
:103B900041EB0E01CCF1200E03FA0EFE10EB0E00ED
:103BA000CCF1200E51F10001B1F5801F32D201EBB2
:103BB000045112FA0EF2BDE8104058BF7047401C85
:103BC00038BF5FEA420218BF7047002814BF20F0D8
:103BD000010041F100014FEA410313F5001F38BF16
:103BE0007047A1F1C04100F0CBBA012A43EB0302B8
:103BF000ACF1200CDCF11F0E32BF4FF0000E23FAA7
:103C00000CF310EB030041EB0451B4EB115FD0D087
:103C1000A1EB045101F58011490801EB04515FEA61
:103C200030000ED350F1000038BF12FA0EFE08D15A
:103C3000BDE81040C9E7401C38BF5FEA4202CAD164
:103C4000C3E7BDE810404FEA410313F5001F38BF3A
:103C50007047A1F1C04100F093BA9EEA445F08D0DA
:103C600011EA5E0FBDE8104004BF01F000410020E2
:103C70007047BDE8104070B500F034FA64FBBE3EFA
:103C80000000E0FF2DE9C04130B4DFF8A8C23CEAF3
:103C9000111418BF3CEA131400F0F0801CEA111450
:103CA00081EA030544EAD57418BF1CEA131500F035
:103CB000CB80A4EB050404F17F7404F500344FF0CD
:103CC000004545EAC12145EAC32341EA505143EA90
:103CD00052534FEAC0204FEAC222994208BF904295
:103CE00000F0A0804FEA13650FF24816765D4FEAA8
:103CF000134506FB05F7C7F1807706FB07F74FEA88
:103D0000D737A7FB03687642A7FB06CEC8F58038F5
:103D100038BFA8F1010807FB08E6A6FB028C4FF0AC
:103D2000000EE6FB03CED8F100086FEA0C0C5CF144
:103D3000000C6FEA0E0E4EF1004EA6FB0C584FF031
:103D40000007E6FB0E87A1FB08C6A0FB07CE16EB1B
:103D50000E064FF0000545F10005E1FB076515F182
:103D6000E04E7EBFA4F580345FEA46066D4116F151
:103D7000800745F100054FEA172747EA05674FEA34
:103D800015254FEA0666A6F1DE46B6F1805F20D91A
:103D9000384605EBC47124F0010C01EB0C11BCF1A9
:103DA000FE6F02D8F0BCBDE8008124425CBF01F583
:103DB000801E9EEAC47F02D4F0BCBDE8008124428C
:103DC00000F13980A1F1C041F0BCBDE8004100F034
:103DD000D7B94FEAD02040EA41504FEAD1214FEA0B
:103DE000D22242EA43524FEAD323A7FB028607FBC3
:103DF000036605FB02661EEA0E0F58BFA6EB0056CF
:103E0000B6EB00564FEA520E4EEAC37E18EB0E0E8A
:103E100056EB530EBCD518EB02085E417F1C55F1E2
:103E20000005B5E74FF480154FF000074FF000068E
:103E30004FF00008ACE701F1C04101F000414FF044
:103E40000000F0BCBDE800810CEA131511EA0C1F5C
:103E500000D00CE013EA0C1F00F025804FF00000AA
:103E600081EA030101F00041F0BCBDE80081F0BC33
:103E7000BDE8004181EA030100F082B9F0BCBDE871
:103E8000004170B500F02EF9097EFC3E00F007B845
:103E90004FF0000081EA030101F00041704781EA20
:103EA000030100F06DB9F0BCBDE8004122494FF0BC
:103EB00000007047FFFDFBF9F7F5F4F2F0EEEDEBD3
:103EC000E9E8E6E4E3E1E0DEDDDBDAD8D7D5D4D318
:103ED000D1D0CFCDCCCBCAC8C7C6C5C4C2C1C0BF64
:103EE000BEBDBCBBBAB9B8B7B6B5B4B3B2B1B0AF6A
:103EF000AEADACABAAA9A8A8A7A6A5A4A3A3A2A14E
:103F0000A09F9F9E9D9C9C9B9A9999989797969508
:103F100095949393929191908F8F8E8E8D8C8C8BA4
:103F20008B8A89898888878786858584848383822C
:103F3000828181800000FF070000F87F10F00042BE
:103F400048BF4042B0FA80F310FA03F10AD0C3F13F
:103F50001D0303F5806302EB03524FEA415002EB6D
:103F6000D12170474FF000007047B0FA80F310FA8B
:103F700003F10AD0C3F11D0303F580634FEA035236
:103F80004FEA415002EBD12170474FF000007047DB
:103F900070B5DFF848C11CEA111E1EBF1CEA1315DC
:103FA0009EEA0C0F95EA0C0F00F06F8081EA030483
:103FB0004EEAD47EAE4421EA4C1123EA4C1341F47C
:103FC000801143F48013AEF17F7EA1FB024CA0FB75
:103FD0000365361955EB0C05A1FB034C4CF10003AE
:103FE000A0FB021C16EB0C06654153F100030942CD
:103FF00018BF46F0010613F4007F0BD14FEA0331DE
:104000004FEA053041EA155140EA165034036FF08B
:1040100003020AE04FEAC3214FEAC52041EA5551A5
:1040200040EA5650F4026FF0020202EB2E4201EB1E
:10403000025585EACE710AD05FEA440C18BF24F01D
:10404000004450F1000041F1000120EAD47040F238
:10405000FE7C624500D270BDA84214BF4FF0804480
:104060004FF04044002E08BF0024BEF1806FA8BF6F
:10407000A1F1C041BDE8704080F2828001F1C041F1
:1040800001F000414FF0000070470CEA13159EEA62
:104090000C0F18BF95EA0C0F06D081EA030E4FF003
:1040A00000000EF0004170BD00F01CF88900013ED8
:1040B00000F007B800F009B84FEA430C5FEA5C5C17
:1040C00008D081EA030100F05BB84FEA410C5FEAD7
:1040D0005C5CF6D102494FF0000070470000FF071A
:1040E0000000F87F0EF1020E2EF0030E5EF8046B56
:1040F000364205D4012A43EB030515F5001F12D8FB
:10410000012841EB010C1CF5001F0CD80ED14FEA21
:10411000D17C0CEB4C0C0CF1020C15F5001F08BF08
:104120004CEBD37C04E04FF0080C01E04FEAD37C69
:104130000CEB4C0526FA05F606F00706B6F1040C62
:1041400006D20EEB860CBDE870404CF0010C6047C7
:10415000DFE80CF0090B02024FF00041A1F500214D
:104160004FF0000070BD19461046012851EB0104C4
:1041700018BFD4F5001484BF002001F0004170BDC9
:104180000808A0F500114FEA3101704710B591EA17
:10419000030F48BF83F000433FF5D4AC841A71EBA2
:1041A000030C07D28CF0004C121943EB0C03001BDC
:1041B00061EB0C014FEA1154A4EB135CDFF8A4E1AE
:1041C0001EEA430F18BF9EEA445F00F0B48021EA64
:1041D000045123EA6E035242C3EB6E0338BF5B1EE9
:1041E000DCF1200E25D322FA0CFE10EB0E0043FA70
:1041F0000CFE41EB0E01CCF1200E03FA0EFE10EB8B
:104200000E00CCF1200E51F1000129D401EB045134
:1042100012FA0EF2BDE8104058BF7047401C1CBF98
:10422000B2F1004F704700280CBF491C20F001007C
:10423000704712EB020E43EB030218BF4FF0010E62
:104240004EEA4202ACF1200CDCF11E0E56D943FAC4
:104250000CFE10EB0E00CCF11E0E51F1FF31D5D546
:104260000EF1010E12FA0EFE404141EB010101EB8D
:10427000445C5FEA5C5C10D901EB045110EBDE702A
:1042800038BFBEF1004FBDE8104018BF704700288E
:104290000CBF491C20F00100704734D24FEAD42CE7
:1042A00024F4006411F500111BD0B1FA81F20B3A2D
:1042B000A41AA41ED2F12003914030FA03F319434B
:1042C000904001EBCC7101EB0451002CBDE8104093
:1042D000A8BF704701F1C04101F000414FF000005C
:1042E0007047B0FA80F310FA03F102D1BDE8104034
:1042F0007047E41A173C4805C90AE2E701EB04518C
:10430000BDE81040704749104FEA300001EB0451FE
:10431000BDE8104002E04FF0000170474A0008BFBE
:104320000042F8D0B2F5001F28BF704701F00041ED
:104330004FF0000070479EEA445F07D011EA5E0F1D
:10434000BDE8104004BF002100207047BDE81040C8
:1043500070B5FFF7C7FE00BF40DFF63E104683F0A2
:10436000004170470000E0FF43004FEAD30C4FEAE2
:104370003C0C43401FBF40070CF1605113F0FE4F4F
:1043800070471CF0006F03D10CF000410020704713
:104390000CF0004343EA507040EACC0010B500F046
:1043A00026F900BF000000924FEA0001FFF7E8BEC7
:1043B0004FF00041A1F500214FF0000070470000D0
:1043C00090EA010F48BF81F0004100F16281421A7A
:1043D0003CBF801A89184FEAD052A2EBD1534FF05C
:1043E0007F4C1CEA410F18BF9CEA026F00F03B8033
:1043F0004FF0004C4CEA00204CEA012121FA03FC6A
:1044000010EB0C0C1ED202F1FF325FEA1C2040EBD5
:10441000C25038BF70471CF07F0F4FEA400C18BFE6
:10442000BCF17F4F38BF7047C3F12003994008BFEC
:1044300020F00100BCF17F4F38BF7047A0F1C040B1
:1044400000F01BB94FEA3C00000A40EBC25028BF05
:104450001CF0FF0F4FEA400CE6D018BFBCF17F4FB5
:1044600038BF7047EAE79CEA026F05D010EA5C0F9C
:1044700008BF00F00040704710B500F0B8F800BF6A
:1044800064FBBE3E41000B0ED3F19E0208D950F4EE
:1044900000034FEA032323FA02F048BF404270476B
:1044A00010B500F0A4F800BF4992248000207047A6
:1044B0006FF0004282EA20007047000010F00041D7
:1044C00048BF4042B0FA80F310FA03F2C3F19D03F3
:1044D0000BD051EAC35101EB1220530638BF70478D
:1044E00000F1010008BF20F0010070474FF47F0C7D
:1044F0001CEAD0121EBF1CEAD11392EA0C0F93EAF9
:104500000C0F00F0478090EA010F48BF42F4807220
:104510004FF0004C4CEA00204CEA012102EB030270
:10452000A0FB0113A2F50002002918BF43F001030C
:104530005B0028BF4FEA330342EB22425FEA132CB1
:104540004CEBC2502EBFBCEB436FB2F57C0F7047F3
:104550004FEA036CBCF1004F08BF20F00100B2F538
:104560007C0F38BF70470BD582F0FF0212F5803FF9
:10457000C8BF704700F1C040D8BF00F0004070478E
:1045800000F5000C5FEA4C0C48BF7047B0F1C0402A
:1045900000F073B80CEAD11390EA010F48BF42F45F
:1045A0008072624538BF634504D280EA010000F0A2
:1045B0000040704710B500F01AF800BF8900013EB6
:1045C00000F007B800F009B85FEA410C5FEA1C6C24
:1045D00008D080EA010000F050B85FEA400C5FEAC2
:1045E0001C6CF6D14FF00040A0F5800070470EF132
:1045F000020E2EF0030E5EF8044B244204D44FEA60
:104600004102B2F17F4F11D84FEA4003B3F17F4F1F
:104610000CD80ED14FEAD07C0CEB4C0C0CF1020CF8
:10462000B2F17F4F08BF4CEBD17C04E04FF0080C97
:1046300001E04FEAD17C0CEB4C0324FA03F404F0C4
:104640000704B4F1040C06D20EEB840CBDE8104054
:104650004CF0010C6047DFE80CF0070802024FF055
:104660000040A0F5800010BD0846420018BFD2F1FE
:10467000807288BF00F0004010BDFF2141EAD05099
:10468000C005704790EA010F48BF81F000413FF537
:104690009EAE421A04D882F00042A0EB0200114400
:1046A0004FEAD052A2EBD1534FF07F4C1CEA410F9E
:1046B00018BF9CEA026F4AD04FF0004C4CEA002031
:1046C0004CEA012121FA03FCB0EB0C0C0FD412F0E0
:1046D000FE0F36D05FEA4C001DD5001240EBC250F1
:1046E00038BF70471CF03F0F18BF70470BE05FEA00
:1046F0001C20A2F1010240EBC25038BF70471CF0F1
:104700007F0F18BF7047C3F12003994014BF401EAC
:1047100020F0010070474FEA1223800808BF70475D
:10472000B0FA80FCA2EB0C02CCF1280C60FA0CF081
:1047300093EA122F04BF00EBC25070474FEAC370D8
:104740007047130A5FEADC1008BF7047F6E79CEA7F
:10475000026F04D010EA5C0F08BF0020704710B54C
:10476000FFF745FF40DFF63E81F000407047FBF762
:10477000A7BE000002400000000000A000000000F2
:1047800005400000000000C8000000000C400000D0
:104790000000409C00000000194000000020BCBE4A
:1047A0000000000034400000BFC91B8E0000000460
:1047B000B5400000504BCFD06607E2CF01000000AB
:1047C0006C4100003E8251AADFEEA73401000000D8
:1047D000D9420000DCB5A0E23A301F97FFFFFFFF8F
:1047E000B4450000FD25A0C8E9A3C14FFFFFFFFFAE
:1047F000FF3F00000000008000000000FF3F0000BD
:104800000000008000000000000000000000000028
:104810000102030406070809000000000102030466
:10482000010202030405060708090A0B0C0D0E0F0E
:104830001010000080490008000000202000000047
:1048400050010008A0490008200000205008000086
:10485000700100081C00000043000000F8FFFFFF8B
:104860000C0000000E0000000F0000002E000000F1
:104870001001000043000000F8FFFFFF004040402F
:104880004040404040404141414141404040404023
:1048900040404040404040404040404040050202CF
:1048A000020202020202020202020202022020208E
:1048B00020202020202020020202020202029090EA
:1048C00090909090101010101010101010101010E8
:1048D000101010101010101002020202020288883C
:1048E0008888888808080808080808080808080848
:1048F0000808080808080808020202024000000030
:1049000000000000000000000000000000000000A7
:104910000000000000000000000000000000000097
:104920000000000000000000000000000000000087
:104930000000000000000000000000000000000077
:104940000000000000000000000000000000000067
:104950000000000000000000000000000000000057
:104960000000000000000000000000000000000047
:104970000000000000000000000000000000000037
:1049800064009CFF9A99993D000014430000C842BE
:10499000010000001000000000127A000100000079
:04000005080000ED02
:00000001FF
